{
	"solidity/task2/BeggingContract.sol": {
		"BeggingContract": {
			"abi": [
				{
					"inputs": [],
					"stateMutability": "nonpayable",
					"type": "constructor"
				},
				{
					"anonymous": false,
					"inputs": [
						{
							"indexed": true,
							"internalType": "address",
							"name": "donor",
							"type": "address"
						},
						{
							"indexed": false,
							"internalType": "uint256",
							"name": "amount",
							"type": "uint256"
						},
						{
							"indexed": false,
							"internalType": "uint256",
							"name": "timestamp",
							"type": "uint256"
						}
					],
					"name": "Donation",
					"type": "event"
				},
				{
					"anonymous": false,
					"inputs": [
						{
							"indexed": true,
							"internalType": "address",
							"name": "owner",
							"type": "address"
						},
						{
							"indexed": false,
							"internalType": "uint256",
							"name": "amount",
							"type": "uint256"
						},
						{
							"indexed": false,
							"internalType": "uint256",
							"name": "timeStamp",
							"type": "uint256"
						}
					],
					"name": "Withdraw",
					"type": "event"
				},
				{
					"anonymous": false,
					"inputs": [
						{
							"indexed": false,
							"internalType": "uint256",
							"name": "startTime",
							"type": "uint256"
						},
						{
							"indexed": false,
							"internalType": "uint256",
							"name": "endTime",
							"type": "uint256"
						},
						{
							"indexed": false,
							"internalType": "bool",
							"name": "enable",
							"type": "bool"
						}
					],
					"name": "timeRestrictionUpdate",
					"type": "event"
				},
				{
					"stateMutability": "payable",
					"type": "fallback"
				},
				{
					"inputs": [],
					"name": "donate",
					"outputs": [
						{
							"internalType": "bool",
							"name": "",
							"type": "bool"
						}
					],
					"stateMutability": "payable",
					"type": "function"
				},
				{
					"inputs": [],
					"name": "donationEndTime",
					"outputs": [
						{
							"internalType": "uint256",
							"name": "",
							"type": "uint256"
						}
					],
					"stateMutability": "view",
					"type": "function"
				},
				{
					"inputs": [],
					"name": "donationStartTime",
					"outputs": [
						{
							"internalType": "uint256",
							"name": "",
							"type": "uint256"
						}
					],
					"stateMutability": "view",
					"type": "function"
				},
				{
					"inputs": [],
					"name": "emergencyStop",
					"outputs": [],
					"stateMutability": "nonpayable",
					"type": "function"
				},
				{
					"inputs": [],
					"name": "getBalance",
					"outputs": [
						{
							"internalType": "uint256",
							"name": "",
							"type": "uint256"
						}
					],
					"stateMutability": "view",
					"type": "function"
				},
				{
					"inputs": [
						{
							"internalType": "address",
							"name": "donor",
							"type": "address"
						}
					],
					"name": "getDonation",
					"outputs": [
						{
							"internalType": "uint256",
							"name": "",
							"type": "uint256"
						}
					],
					"stateMutability": "view",
					"type": "function"
				},
				{
					"inputs": [
						{
							"internalType": "uint256",
							"name": "topN",
							"type": "uint256"
						}
					],
					"name": "getTopDonors",
					"outputs": [
						{
							"internalType": "address[]",
							"name": "topDonors",
							"type": "address[]"
						},
						{
							"internalType": "uint256[]",
							"name": "topAmounts",
							"type": "uint256[]"
						}
					],
					"stateMutability": "view",
					"type": "function"
				},
				{
					"inputs": [],
					"name": "getTotalInfo",
					"outputs": [
						{
							"internalType": "uint256",
							"name": "",
							"type": "uint256"
						},
						{
							"internalType": "uint256",
							"name": "",
							"type": "uint256"
						}
					],
					"stateMutability": "view",
					"type": "function"
				},
				{
					"inputs": [
						{
							"internalType": "uint256",
							"name": "startTime",
							"type": "uint256"
						},
						{
							"internalType": "uint256",
							"name": "endTime",
							"type": "uint256"
						},
						{
							"internalType": "bool",
							"name": "enable",
							"type": "bool"
						}
					],
					"name": "setTimeRestriction",
					"outputs": [],
					"stateMutability": "nonpayable",
					"type": "function"
				},
				{
					"inputs": [],
					"name": "timeRestrictionEnabled",
					"outputs": [
						{
							"internalType": "bool",
							"name": "",
							"type": "bool"
						}
					],
					"stateMutability": "view",
					"type": "function"
				},
				{
					"inputs": [],
					"name": "withdraw",
					"outputs": [
						{
							"internalType": "uint256",
							"name": "",
							"type": "uint256"
						}
					],
					"stateMutability": "payable",
					"type": "function"
				},
				{
					"stateMutability": "payable",
					"type": "receive"
				}
			],
			"devdoc": {
				"kind": "dev",
				"methods": {},
				"version": 1
			},
			"evm": {
				"assembly": "    /* \"solidity/task2/BeggingContract.sol\":119:4780  contract BeggingContract is ReentrancyGuard {... */\n  mstore(0x40, 0x80)\n    /* \"solidity/task2/BeggingContract.sol\":1223:1423  constructor() {... */\n  callvalue\n  dup1\n  iszero\n  tag_1\n  jumpi\n  revert(0x00, 0x00)\ntag_1:\n  pop\n    /* \"@openzeppelin/contracts/security/ReentrancyGuard.sol\":1716:1717  1 */\n  0x01\n    /* \"@openzeppelin/contracts/security/ReentrancyGuard.sol\":1821:1828  _status */\n  0x00\n    /* \"@openzeppelin/contracts/security/ReentrancyGuard.sol\":1821:1843  _status = _NOT_ENTERED */\n  dup2\n  swap1\n  sstore\n  pop\n    /* \"solidity/task2/BeggingContract.sol\":1255:1265  msg.sender */\n  caller\n    /* \"solidity/task2/BeggingContract.sol\":1247:1252  owner */\n  0x01\n  0x00\n    /* \"solidity/task2/BeggingContract.sol\":1247:1265  owner = msg.sender */\n  0x0100\n  exp\n  dup2\n  sload\n  dup2\n  0xffffffffffffffffffffffffffffffffffffffff\n  mul\n  not\n  and\n  swap1\n  dup4\n  0xffffffffffffffffffffffffffffffffffffffff\n  and\n  mul\n  or\n  swap1\n  sstore\n  pop\n    /* \"solidity/task2/BeggingContract.sol\":1295:1310  block.timestamp */\n  timestamp\n    /* \"solidity/task2/BeggingContract.sol\":1275:1292  donationStartTime */\n  0x05\n    /* \"solidity/task2/BeggingContract.sol\":1275:1310  donationStartTime = block.timestamp */\n  dup2\n  swap1\n  sstore\n  pop\n    /* \"solidity/task2/BeggingContract.sol\":1356:1363  90 days */\n  0x76a700\n    /* \"solidity/task2/BeggingContract.sol\":1338:1353  block.timestamp */\n  timestamp\n    /* \"solidity/task2/BeggingContract.sol\":1338:1363  block.timestamp + 90 days */\n  tag_6\n  swap2\n  swap1\n  tag_7\n  jump\t// in\ntag_6:\n    /* \"solidity/task2/BeggingContract.sol\":1320:1335  donationEndTime */\n  0x06\n    /* \"solidity/task2/BeggingContract.sol\":1320:1363  donationEndTime = block.timestamp + 90 days */\n  dup2\n  swap1\n  sstore\n  pop\n    /* \"solidity/task2/BeggingContract.sol\":1411:1416  false */\n  0x00\n    /* \"solidity/task2/BeggingContract.sol\":1386:1408  timeRestrictionEnabled */\n  0x07\n  0x00\n    /* \"solidity/task2/BeggingContract.sol\":1386:1416  timeRestrictionEnabled = false */\n  0x0100\n  exp\n  dup2\n  sload\n  dup2\n  0xff\n  mul\n  not\n  and\n  swap1\n  dup4\n  iszero\n  iszero\n  mul\n  or\n  swap1\n  sstore\n  pop\n    /* \"solidity/task2/BeggingContract.sol\":119:4780  contract BeggingContract is ReentrancyGuard {... */\n  jump(tag_8)\n    /* \"#utility.yul\":7:84   */\ntag_9:\n    /* \"#utility.yul\":44:51   */\n  0x00\n    /* \"#utility.yul\":73:78   */\n  dup2\n    /* \"#utility.yul\":62:78   */\n  swap1\n  pop\n    /* \"#utility.yul\":7:84   */\n  swap2\n  swap1\n  pop\n  jump\t// out\n    /* \"#utility.yul\":90:270   */\ntag_10:\n    /* \"#utility.yul\":138:215   */\n  0x4e487b7100000000000000000000000000000000000000000000000000000000\n    /* \"#utility.yul\":135:136   */\n  0x00\n    /* \"#utility.yul\":128:216   */\n  mstore\n    /* \"#utility.yul\":235:239   */\n  0x11\n    /* \"#utility.yul\":232:233   */\n  0x04\n    /* \"#utility.yul\":225:240   */\n  mstore\n    /* \"#utility.yul\":259:263   */\n  0x24\n    /* \"#utility.yul\":256:257   */\n  0x00\n    /* \"#utility.yul\":249:264   */\n  revert\n    /* \"#utility.yul\":276:467   */\ntag_7:\n    /* \"#utility.yul\":316:319   */\n  0x00\n    /* \"#utility.yul\":335:355   */\n  tag_15\n    /* \"#utility.yul\":353:354   */\n  dup3\n    /* \"#utility.yul\":335:355   */\n  tag_9\n  jump\t// in\ntag_15:\n    /* \"#utility.yul\":330:355   */\n  swap2\n  pop\n    /* \"#utility.yul\":369:389   */\n  tag_16\n    /* \"#utility.yul\":387:388   */\n  dup4\n    /* \"#utility.yul\":369:389   */\n  tag_9\n  jump\t// in\ntag_16:\n    /* \"#utility.yul\":364:389   */\n  swap3\n  pop\n    /* \"#utility.yul\":412:413   */\n  dup3\n    /* \"#utility.yul\":409:410   */\n  dup3\n    /* \"#utility.yul\":405:414   */\n  add\n    /* \"#utility.yul\":398:414   */\n  swap1\n  pop\n    /* \"#utility.yul\":433:436   */\n  dup1\n    /* \"#utility.yul\":430:431   */\n  dup3\n    /* \"#utility.yul\":427:437   */\n  gt\n    /* \"#utility.yul\":424:460   */\n  iszero\n  tag_17\n  jumpi\n    /* \"#utility.yul\":440:458   */\n  tag_18\n  tag_10\n  jump\t// in\ntag_18:\n    /* \"#utility.yul\":424:460   */\ntag_17:\n    /* \"#utility.yul\":276:467   */\n  swap3\n  swap2\n  pop\n  pop\n  jump\t// out\n    /* \"solidity/task2/BeggingContract.sol\":119:4780  contract BeggingContract is ReentrancyGuard {... */\ntag_8:\n  dataSize(sub_0)\n  dup1\n  dataOffset(sub_0)\n  0x00\n  codecopy\n  0x00\n  return\nstop\n\nsub_0: assembly {\n        /* \"solidity/task2/BeggingContract.sol\":119:4780  contract BeggingContract is ReentrancyGuard {... */\n      mstore(0x40, 0x80)\n      jumpi(tag_1, lt(calldatasize, 0x04))\n      shr(0xe0, calldataload(0x00))\n      dup1\n      0x63a599a4\n      gt\n      tag_14\n      jumpi\n      dup1\n      0x63a599a4\n      eq\n      tag_8\n      jumpi\n      dup1\n      0x78331552\n      eq\n      tag_9\n      jumpi\n      dup1\n      0xa601c624\n      eq\n      tag_10\n      jumpi\n      dup1\n      0xed88c68e\n      eq\n      tag_11\n      jumpi\n      dup1\n      0xf12a4a53\n      eq\n      tag_12\n      jumpi\n      dup1\n      0xf5d1282b\n      eq\n      tag_13\n      jumpi\n      jump(tag_2)\n    tag_14:\n      dup1\n      0x12065fe0\n      eq\n      tag_3\n      jumpi\n      dup1\n      0x285109d1\n      eq\n      tag_4\n      jumpi\n      dup1\n      0x3ccfd60b\n      eq\n      tag_5\n      jumpi\n      dup1\n      0x410a1d32\n      eq\n      tag_6\n      jumpi\n      dup1\n      0x5e068de1\n      eq\n      tag_7\n      jumpi\n      jump(tag_2)\n    tag_1:\n    tag_2:\n      stop\n        /* \"solidity/task2/BeggingContract.sol\":2506:2599  function getBalance() public view returns(uint) {... */\n    tag_3:\n      callvalue\n      dup1\n      iszero\n      tag_19\n      jumpi\n      revert(0x00, 0x00)\n    tag_19:\n      pop\n      tag_20\n      tag_21\n      jump\t// in\n    tag_20:\n      mload(0x40)\n      tag_22\n      swap2\n      swap1\n      tag_23\n      jump\t// in\n    tag_22:\n      mload(0x40)\n      dup1\n      swap2\n      sub\n      swap1\n      return\n        /* \"solidity/task2/BeggingContract.sol\":2636:2749  function getTotalInfo() public view returns(uint256,uint256) { ... */\n    tag_4:\n      callvalue\n      dup1\n      iszero\n      tag_24\n      jumpi\n      revert(0x00, 0x00)\n    tag_24:\n      pop\n      tag_25\n      tag_26\n      jump\t// in\n    tag_25:\n      mload(0x40)\n      tag_27\n      swap3\n      swap2\n      swap1\n      tag_28\n      jump\t// in\n    tag_27:\n      mload(0x40)\n      dup1\n      swap2\n      sub\n      swap1\n      return\n        /* \"solidity/task2/BeggingContract.sol\":2008:2394  function withdraw() public payable onlyOwner nonReentrant returns(uint256) {... */\n    tag_5:\n      tag_29\n      tag_30\n      jump\t// in\n    tag_29:\n      mload(0x40)\n      tag_31\n      swap2\n      swap1\n      tag_23\n      jump\t// in\n    tag_31:\n      mload(0x40)\n      dup1\n      swap2\n      sub\n      swap1\n      return\n        /* \"solidity/task2/BeggingContract.sol\":2400:2500  function getDonation(address donor) public view returns(uint) {... */\n    tag_6:\n      callvalue\n      dup1\n      iszero\n      tag_32\n      jumpi\n      revert(0x00, 0x00)\n    tag_32:\n      pop\n      tag_33\n      0x04\n      dup1\n      calldatasize\n      sub\n      dup2\n      add\n      swap1\n      tag_34\n      swap2\n      swap1\n      tag_35\n      jump\t// in\n    tag_34:\n      tag_36\n      jump\t// in\n    tag_33:\n      mload(0x40)\n      tag_37\n      swap2\n      swap1\n      tag_23\n      jump\t// in\n    tag_37:\n      mload(0x40)\n      dup1\n      swap2\n      sub\n      swap1\n      return\n        /* \"solidity/task2/BeggingContract.sol\":807:842  bool  public timeRestrictionEnabled */\n    tag_7:\n      callvalue\n      dup1\n      iszero\n      tag_38\n      jumpi\n      revert(0x00, 0x00)\n    tag_38:\n      pop\n      tag_39\n      tag_40\n      jump\t// in\n    tag_39:\n      mload(0x40)\n      tag_41\n      swap2\n      swap1\n      tag_42\n      jump\t// in\n    tag_41:\n      mload(0x40)\n      dup1\n      swap2\n      sub\n      swap1\n      return\n        /* \"solidity/task2/BeggingContract.sol\":4642:4772  function emergencyStop() public onlyOwner{... */\n    tag_8:\n      callvalue\n      dup1\n      iszero\n      tag_43\n      jumpi\n      revert(0x00, 0x00)\n    tag_43:\n      pop\n      tag_44\n      tag_45\n      jump\t// in\n    tag_44:\n      stop\n        /* \"solidity/task2/BeggingContract.sol\":702:734  uint256 public donationStartTime */\n    tag_9:\n      callvalue\n      dup1\n      iszero\n      tag_46\n      jumpi\n      revert(0x00, 0x00)\n    tag_46:\n      pop\n      tag_47\n      tag_48\n      jump\t// in\n    tag_47:\n      mload(0x40)\n      tag_49\n      swap2\n      swap1\n      tag_23\n      jump\t// in\n    tag_49:\n      mload(0x40)\n      dup1\n      swap2\n      sub\n      swap1\n      return\n        /* \"solidity/task2/BeggingContract.sol\":4253:4605  function setTimeRestriction(uint256 startTime,uint256 endTime,bool enable) public onlyOwner {... */\n    tag_10:\n      callvalue\n      dup1\n      iszero\n      tag_50\n      jumpi\n      revert(0x00, 0x00)\n    tag_50:\n      pop\n      tag_51\n      0x04\n      dup1\n      calldatasize\n      sub\n      dup2\n      add\n      swap1\n      tag_52\n      swap2\n      swap1\n      tag_53\n      jump\t// in\n    tag_52:\n      tag_54\n      jump\t// in\n    tag_51:\n      stop\n        /* \"solidity/task2/BeggingContract.sol\":1569:1956  function donate() public  payable withinTimeimit returns(bool){... */\n    tag_11:\n      tag_55\n      tag_56\n      jump\t// in\n    tag_55:\n      mload(0x40)\n      tag_57\n      swap2\n      swap1\n      tag_42\n      jump\t// in\n    tag_57:\n      mload(0x40)\n      dup1\n      swap2\n      sub\n      swap1\n      return\n        /* \"solidity/task2/BeggingContract.sol\":740:770  uint256 public donationEndTime */\n    tag_12:\n      callvalue\n      dup1\n      iszero\n      tag_58\n      jumpi\n      revert(0x00, 0x00)\n    tag_58:\n      pop\n      tag_59\n      tag_60\n      jump\t// in\n    tag_59:\n      mload(0x40)\n      tag_61\n      swap2\n      swap1\n      tag_23\n      jump\t// in\n    tag_61:\n      mload(0x40)\n      dup1\n      swap2\n      sub\n      swap1\n      return\n        /* \"solidity/task2/BeggingContract.sol\":2790:4216  function getTopDonors(uint256 topN) public view returns(address[] memory topDonors,uint256[] memory topAmounts) {... */\n    tag_13:\n      callvalue\n      dup1\n      iszero\n      tag_62\n      jumpi\n      revert(0x00, 0x00)\n    tag_62:\n      pop\n      tag_63\n      0x04\n      dup1\n      calldatasize\n      sub\n      dup2\n      add\n      swap1\n      tag_64\n      swap2\n      swap1\n      tag_65\n      jump\t// in\n    tag_64:\n      tag_66\n      jump\t// in\n    tag_63:\n      mload(0x40)\n      tag_67\n      swap3\n      swap2\n      swap1\n      tag_68\n      jump\t// in\n    tag_67:\n      mload(0x40)\n      dup1\n      swap2\n      sub\n      swap1\n      return\n        /* \"solidity/task2/BeggingContract.sol\":2506:2599  function getBalance() public view returns(uint) {... */\n    tag_21:\n        /* \"solidity/task2/BeggingContract.sol\":2548:2552  uint */\n      0x00\n        /* \"solidity/task2/BeggingContract.sol\":2571:2592  address(this).balance */\n      selfbalance\n        /* \"solidity/task2/BeggingContract.sol\":2564:2592  return address(this).balance */\n      swap1\n      pop\n        /* \"solidity/task2/BeggingContract.sol\":2506:2599  function getBalance() public view returns(uint) {... */\n      swap1\n      jump\t// out\n        /* \"solidity/task2/BeggingContract.sol\":2636:2749  function getTotalInfo() public view returns(uint256,uint256) { ... */\n    tag_26:\n        /* \"solidity/task2/BeggingContract.sol\":2680:2687  uint256 */\n      0x00\n        /* \"solidity/task2/BeggingContract.sol\":2688:2695  uint256 */\n      0x00\n        /* \"solidity/task2/BeggingContract.sol\":2716:2727  totalAmount */\n      sload(0x02)\n        /* \"solidity/task2/BeggingContract.sol\":2728:2734  donors */\n      0x04\n        /* \"solidity/task2/BeggingContract.sol\":2728:2741  donors.length */\n      dup1\n      sload\n      swap1\n      pop\n        /* \"solidity/task2/BeggingContract.sol\":2708:2742  return (totalAmount,donors.length) */\n      swap2\n      pop\n      swap2\n      pop\n        /* \"solidity/task2/BeggingContract.sol\":2636:2749  function getTotalInfo() public view returns(uint256,uint256) { ... */\n      swap1\n      swap2\n      jump\t// out\n        /* \"solidity/task2/BeggingContract.sol\":2008:2394  function withdraw() public payable onlyOwner nonReentrant returns(uint256) {... */\n    tag_30:\n        /* \"solidity/task2/BeggingContract.sol\":2074:2081  uint256 */\n      0x00\n        /* \"solidity/task2/BeggingContract.sol\":903:913  msg.sender */\n      caller\n        /* \"solidity/task2/BeggingContract.sol\":894:913  owner == msg.sender */\n      0xffffffffffffffffffffffffffffffffffffffff\n      and\n        /* \"solidity/task2/BeggingContract.sol\":894:899  owner */\n      0x01\n      0x00\n      swap1\n      sload\n      swap1\n      0x0100\n      exp\n      swap1\n      div\n      0xffffffffffffffffffffffffffffffffffffffff\n      and\n        /* \"solidity/task2/BeggingContract.sol\":894:913  owner == msg.sender */\n      0xffffffffffffffffffffffffffffffffffffffff\n      and\n      eq\n        /* \"solidity/task2/BeggingContract.sol\":886:939  require(owner == msg.sender,\"only owner can operate\") */\n      tag_72\n      jumpi\n      mload(0x40)\n      0x08c379a000000000000000000000000000000000000000000000000000000000\n      dup2\n      mstore\n      0x04\n      add\n      tag_73\n      swap1\n      tag_74\n      jump\t// in\n    tag_73:\n      mload(0x40)\n      dup1\n      swap2\n      sub\n      swap1\n      revert\n    tag_72:\n        /* \"@openzeppelin/contracts/security/ReentrancyGuard.sol\":2261:2282  _nonReentrantBefore() */\n      tag_76\n        /* \"@openzeppelin/contracts/security/ReentrancyGuard.sol\":2261:2280  _nonReentrantBefore */\n      tag_77\n        /* \"@openzeppelin/contracts/security/ReentrancyGuard.sol\":2261:2282  _nonReentrantBefore() */\n      jump\t// in\n    tag_76:\n        /* \"solidity/task2/BeggingContract.sol\":2093:2108  uint256 balance */\n      0x00\n        /* \"solidity/task2/BeggingContract.sol\":2111:2132  address(this).balance */\n      selfbalance\n        /* \"solidity/task2/BeggingContract.sol\":2093:2132  uint256 balance = address(this).balance */\n      swap1\n      pop\n        /* \"solidity/task2/BeggingContract.sol\":2160:2161  0 */\n      0x00\n        /* \"solidity/task2/BeggingContract.sol\":2150:2157  balance */\n      dup2\n        /* \"solidity/task2/BeggingContract.sol\":2150:2161  balance > 0 */\n      gt\n        /* \"solidity/task2/BeggingContract.sol\":2142:2188  require(balance > 0,\"withdraw amount is zero\") */\n      tag_79\n      jumpi\n      mload(0x40)\n      0x08c379a000000000000000000000000000000000000000000000000000000000\n      dup2\n      mstore\n      0x04\n      add\n      tag_80\n      swap1\n      tag_81\n      jump\t// in\n    tag_80:\n      mload(0x40)\n      dup1\n      swap2\n      sub\n      swap1\n      revert\n    tag_79:\n        /* \"solidity/task2/BeggingContract.sol\":2339:2344  owner */\n      0x01\n      0x00\n      swap1\n      sload\n      swap1\n      0x0100\n      exp\n      swap1\n      div\n      0xffffffffffffffffffffffffffffffffffffffff\n      and\n        /* \"solidity/task2/BeggingContract.sol\":2331:2354  payable(owner).transfer */\n      0xffffffffffffffffffffffffffffffffffffffff\n      and\n        /* \"solidity/task2/BeggingContract.sol\":2331:2363  payable(owner).transfer(balance) */\n      0x08fc\n        /* \"solidity/task2/BeggingContract.sol\":2355:2362  balance */\n      dup3\n        /* \"solidity/task2/BeggingContract.sol\":2331:2363  payable(owner).transfer(balance) */\n      swap1\n      dup2\n      iszero\n      mul\n      swap1\n      mload(0x40)\n      0x00\n      mload(0x40)\n      dup1\n      dup4\n      sub\n      dup2\n      dup6\n      dup9\n      dup9\n      call\n      swap4\n      pop\n      pop\n      pop\n      pop\n      iszero\n      dup1\n      iszero\n      tag_83\n      jumpi\n      returndatacopy(0x00, 0x00, returndatasize)\n      revert(0x00, returndatasize)\n    tag_83:\n      pop\n        /* \"solidity/task2/BeggingContract.sol\":2380:2387  balance */\n      dup1\n        /* \"solidity/task2/BeggingContract.sol\":2373:2387  return balance */\n      swap2\n      pop\n      pop\n        /* \"@openzeppelin/contracts/security/ReentrancyGuard.sol\":2303:2323  _nonReentrantAfter() */\n      tag_84\n        /* \"@openzeppelin/contracts/security/ReentrancyGuard.sol\":2303:2321  _nonReentrantAfter */\n      tag_85\n        /* \"@openzeppelin/contracts/security/ReentrancyGuard.sol\":2303:2323  _nonReentrantAfter() */\n      jump\t// in\n    tag_84:\n        /* \"solidity/task2/BeggingContract.sol\":2008:2394  function withdraw() public payable onlyOwner nonReentrant returns(uint256) {... */\n      swap1\n      jump\t// out\n        /* \"solidity/task2/BeggingContract.sol\":2400:2500  function getDonation(address donor) public view returns(uint) {... */\n    tag_36:\n        /* \"solidity/task2/BeggingContract.sol\":2456:2460  uint */\n      0x00\n        /* \"solidity/task2/BeggingContract.sol\":2479:2486  donates */\n      0x03\n        /* \"solidity/task2/BeggingContract.sol\":2479:2493  donates[donor] */\n      0x00\n        /* \"solidity/task2/BeggingContract.sol\":2487:2492  donor */\n      dup4\n        /* \"solidity/task2/BeggingContract.sol\":2479:2493  donates[donor] */\n      0xffffffffffffffffffffffffffffffffffffffff\n      and\n      0xffffffffffffffffffffffffffffffffffffffff\n      and\n      dup2\n      mstore\n      0x20\n      add\n      swap1\n      dup2\n      mstore\n      0x20\n      add\n      0x00\n      keccak256\n      sload\n        /* \"solidity/task2/BeggingContract.sol\":2472:2493  return donates[donor] */\n      swap1\n      pop\n        /* \"solidity/task2/BeggingContract.sol\":2400:2500  function getDonation(address donor) public view returns(uint) {... */\n      swap2\n      swap1\n      pop\n      jump\t// out\n        /* \"solidity/task2/BeggingContract.sol\":807:842  bool  public timeRestrictionEnabled */\n    tag_40:\n      0x07\n      0x00\n      swap1\n      sload\n      swap1\n      0x0100\n      exp\n      swap1\n      div\n      0xff\n      and\n      dup2\n      jump\t// out\n        /* \"solidity/task2/BeggingContract.sol\":4642:4772  function emergencyStop() public onlyOwner{... */\n    tag_45:\n        /* \"solidity/task2/BeggingContract.sol\":903:913  msg.sender */\n      caller\n        /* \"solidity/task2/BeggingContract.sol\":894:913  owner == msg.sender */\n      0xffffffffffffffffffffffffffffffffffffffff\n      and\n        /* \"solidity/task2/BeggingContract.sol\":894:899  owner */\n      0x01\n      0x00\n      swap1\n      sload\n      swap1\n      0x0100\n      exp\n      swap1\n      div\n      0xffffffffffffffffffffffffffffffffffffffff\n      and\n        /* \"solidity/task2/BeggingContract.sol\":894:913  owner == msg.sender */\n      0xffffffffffffffffffffffffffffffffffffffff\n      and\n      eq\n        /* \"solidity/task2/BeggingContract.sol\":886:939  require(owner == msg.sender,\"only owner can operate\") */\n      tag_88\n      jumpi\n      mload(0x40)\n      0x08c379a000000000000000000000000000000000000000000000000000000000\n      dup2\n      mstore\n      0x04\n      add\n      tag_89\n      swap1\n      tag_74\n      jump\t// in\n    tag_89:\n      mload(0x40)\n      dup1\n      swap2\n      sub\n      swap1\n      revert\n    tag_88:\n        /* \"solidity/task2/BeggingContract.sol\":4718:4722  true */\n      0x01\n        /* \"solidity/task2/BeggingContract.sol\":4693:4715  timeRestrictionEnabled */\n      0x07\n      0x00\n        /* \"solidity/task2/BeggingContract.sol\":4693:4722  timeRestrictionEnabled = true */\n      0x0100\n      exp\n      dup2\n      sload\n      dup2\n      0xff\n      mul\n      not\n      and\n      swap1\n      dup4\n      iszero\n      iszero\n      mul\n      or\n      swap1\n      sstore\n      pop\n        /* \"solidity/task2/BeggingContract.sol\":4750:4765  block.timestamp */\n      timestamp\n        /* \"solidity/task2/BeggingContract.sol\":4732:4747  donationEndTime */\n      0x06\n        /* \"solidity/task2/BeggingContract.sol\":4732:4765  donationEndTime = block.timestamp */\n      dup2\n      swap1\n      sstore\n      pop\n        /* \"solidity/task2/BeggingContract.sol\":4642:4772  function emergencyStop() public onlyOwner{... */\n      jump\t// out\n        /* \"solidity/task2/BeggingContract.sol\":702:734  uint256 public donationStartTime */\n    tag_48:\n      sload(0x05)\n      dup2\n      jump\t// out\n        /* \"solidity/task2/BeggingContract.sol\":4253:4605  function setTimeRestriction(uint256 startTime,uint256 endTime,bool enable) public onlyOwner {... */\n    tag_54:\n        /* \"solidity/task2/BeggingContract.sol\":903:913  msg.sender */\n      caller\n        /* \"solidity/task2/BeggingContract.sol\":894:913  owner == msg.sender */\n      0xffffffffffffffffffffffffffffffffffffffff\n      and\n        /* \"solidity/task2/BeggingContract.sol\":894:899  owner */\n      0x01\n      0x00\n      swap1\n      sload\n      swap1\n      0x0100\n      exp\n      swap1\n      div\n      0xffffffffffffffffffffffffffffffffffffffff\n      and\n        /* \"solidity/task2/BeggingContract.sol\":894:913  owner == msg.sender */\n      0xffffffffffffffffffffffffffffffffffffffff\n      and\n      eq\n        /* \"solidity/task2/BeggingContract.sol\":886:939  require(owner == msg.sender,\"only owner can operate\") */\n      tag_92\n      jumpi\n      mload(0x40)\n      0x08c379a000000000000000000000000000000000000000000000000000000000\n      dup2\n      mstore\n      0x04\n      add\n      tag_93\n      swap1\n      tag_74\n      jump\t// in\n    tag_93:\n      mload(0x40)\n      dup1\n      swap2\n      sub\n      swap1\n      revert\n    tag_92:\n        /* \"solidity/task2/BeggingContract.sol\":4375:4382  endTime */\n      dup2\n        /* \"solidity/task2/BeggingContract.sol\":4363:4372  startTime */\n      dup4\n        /* \"solidity/task2/BeggingContract.sol\":4363:4382  startTime < endTime */\n      lt\n        /* \"solidity/task2/BeggingContract.sol\":4355:4419  require(startTime < endTime,\"End time must be after start time\") */\n      tag_95\n      jumpi\n      mload(0x40)\n      0x08c379a000000000000000000000000000000000000000000000000000000000\n      dup2\n      mstore\n      0x04\n      add\n      tag_96\n      swap1\n      tag_97\n      jump\t// in\n    tag_96:\n      mload(0x40)\n      dup1\n      swap2\n      sub\n      swap1\n      revert\n    tag_95:\n        /* \"solidity/task2/BeggingContract.sol\":4449:4458  startTime */\n      dup3\n        /* \"solidity/task2/BeggingContract.sol\":4429:4446  donationStartTime */\n      0x05\n        /* \"solidity/task2/BeggingContract.sol\":4429:4458  donationStartTime = startTime */\n      dup2\n      swap1\n      sstore\n      pop\n        /* \"solidity/task2/BeggingContract.sol\":4486:4493  endTime */\n      dup2\n        /* \"solidity/task2/BeggingContract.sol\":4468:4483  donationEndTime */\n      0x06\n        /* \"solidity/task2/BeggingContract.sol\":4468:4493  donationEndTime = endTime */\n      dup2\n      swap1\n      sstore\n      pop\n        /* \"solidity/task2/BeggingContract.sol\":4528:4534  enable */\n      dup1\n        /* \"solidity/task2/BeggingContract.sol\":4503:4525  timeRestrictionEnabled */\n      0x07\n      0x00\n        /* \"solidity/task2/BeggingContract.sol\":4503:4534  timeRestrictionEnabled = enable */\n      0x0100\n      exp\n      dup2\n      sload\n      dup2\n      0xff\n      mul\n      not\n      and\n      swap1\n      dup4\n      iszero\n      iszero\n      mul\n      or\n      swap1\n      sstore\n      pop\n        /* \"solidity/task2/BeggingContract.sol\":4549:4598  timeRestrictionUpdate(startTime, endTime, enable) */\n      0x481593f763953be7bb16523cf5f9b6243e7ff3194d3bc9f7e286413df4257a5e\n        /* \"solidity/task2/BeggingContract.sol\":4571:4580  startTime */\n      dup4\n        /* \"solidity/task2/BeggingContract.sol\":4582:4589  endTime */\n      dup4\n        /* \"solidity/task2/BeggingContract.sol\":4591:4597  enable */\n      dup4\n        /* \"solidity/task2/BeggingContract.sol\":4549:4598  timeRestrictionUpdate(startTime, endTime, enable) */\n      mload(0x40)\n      tag_98\n      swap4\n      swap3\n      swap2\n      swap1\n      tag_99\n      jump\t// in\n    tag_98:\n      mload(0x40)\n      dup1\n      swap2\n      sub\n      swap1\n      log1\n        /* \"solidity/task2/BeggingContract.sol\":4253:4605  function setTimeRestriction(uint256 startTime,uint256 endTime,bool enable) public onlyOwner {... */\n      pop\n      pop\n      pop\n      jump\t// out\n        /* \"solidity/task2/BeggingContract.sol\":1569:1956  function donate() public  payable withinTimeimit returns(bool){... */\n    tag_56:\n        /* \"solidity/task2/BeggingContract.sol\":1626:1630  bool */\n      0x00\n        /* \"solidity/task2/BeggingContract.sol\":1002:1024  timeRestrictionEnabled */\n      0x07\n      0x00\n      swap1\n      sload\n      swap1\n      0x0100\n      exp\n      swap1\n      div\n      0xff\n      and\n        /* \"solidity/task2/BeggingContract.sol\":999:1199  if(timeRestrictionEnabled) {... */\n      iszero\n      tag_101\n      jumpi\n        /* \"solidity/task2/BeggingContract.sol\":1067:1084  donationStartTime */\n      sload(0x05)\n        /* \"solidity/task2/BeggingContract.sol\":1048:1063  block.timestamp */\n      timestamp\n        /* \"solidity/task2/BeggingContract.sol\":1048:1084  block.timestamp >= donationStartTime */\n      lt\n      iszero\n        /* \"solidity/task2/BeggingContract.sol\":1048:1135  block.timestamp >= donationStartTime && ... */\n      dup1\n      iszero\n      tag_102\n      jumpi\n      pop\n        /* \"solidity/task2/BeggingContract.sol\":1120:1135  donationEndTime */\n      sload(0x06)\n        /* \"solidity/task2/BeggingContract.sol\":1101:1116  block.timestamp */\n      timestamp\n        /* \"solidity/task2/BeggingContract.sol\":1101:1135  block.timestamp <= donationEndTime */\n      gt\n      iszero\n        /* \"solidity/task2/BeggingContract.sol\":1048:1135  block.timestamp >= donationStartTime && ... */\n    tag_102:\n        /* \"solidity/task2/BeggingContract.sol\":1040:1188  require(block.timestamp >= donationStartTime && ... */\n      tag_103\n      jumpi\n      mload(0x40)\n      0x08c379a000000000000000000000000000000000000000000000000000000000\n      dup2\n      mstore\n      0x04\n      add\n      tag_104\n      swap1\n      tag_105\n      jump\t// in\n    tag_104:\n      mload(0x40)\n      dup1\n      swap2\n      sub\n      swap1\n      revert\n    tag_103:\n        /* \"solidity/task2/BeggingContract.sol\":999:1199  if(timeRestrictionEnabled) {... */\n    tag_101:\n        /* \"solidity/task2/BeggingContract.sol\":1661:1662  0 */\n      0x00\n        /* \"solidity/task2/BeggingContract.sol\":1649:1658  msg.value */\n      callvalue\n        /* \"solidity/task2/BeggingContract.sol\":1649:1662  msg.value > 0 */\n      gt\n        /* \"solidity/task2/BeggingContract.sol\":1641:1704  require(msg.value > 0,\"donor amount must be greater than zero\") */\n      tag_107\n      jumpi\n      mload(0x40)\n      0x08c379a000000000000000000000000000000000000000000000000000000000\n      dup2\n      mstore\n      0x04\n      add\n      tag_108\n      swap1\n      tag_109\n      jump\t// in\n    tag_108:\n      mload(0x40)\n      dup1\n      swap2\n      sub\n      swap1\n      revert\n    tag_107:\n        /* \"solidity/task2/BeggingContract.sol\":1741:1742  0 */\n      0x00\n        /* \"solidity/task2/BeggingContract.sol\":1718:1725  donates */\n      0x03\n        /* \"solidity/task2/BeggingContract.sol\":1718:1737  donates[msg.sender] */\n      0x00\n        /* \"solidity/task2/BeggingContract.sol\":1726:1736  msg.sender */\n      caller\n        /* \"solidity/task2/BeggingContract.sol\":1718:1737  donates[msg.sender] */\n      0xffffffffffffffffffffffffffffffffffffffff\n      and\n      0xffffffffffffffffffffffffffffffffffffffff\n      and\n      dup2\n      mstore\n      0x20\n      add\n      swap1\n      dup2\n      mstore\n      0x20\n      add\n      0x00\n      keccak256\n      sload\n        /* \"solidity/task2/BeggingContract.sol\":1718:1742  donates[msg.sender] == 0 */\n      sub\n        /* \"solidity/task2/BeggingContract.sol\":1714:1792  if (donates[msg.sender] == 0) {... */\n      tag_110\n      jumpi\n        /* \"solidity/task2/BeggingContract.sol\":1758:1764  donors */\n      0x04\n        /* \"solidity/task2/BeggingContract.sol\":1770:1780  msg.sender */\n      caller\n        /* \"solidity/task2/BeggingContract.sol\":1758:1781  donors.push(msg.sender) */\n      swap1\n      dup1\n      0x01\n      dup2\n      sload\n      add\n      dup1\n      dup3\n      sstore\n      dup1\n      swap2\n      pop\n      pop\n      0x01\n      swap1\n      sub\n      swap1\n      0x00\n      mstore\n      keccak256(0x00, 0x20)\n      add\n      0x00\n      swap1\n      swap2\n      swap1\n      swap2\n      swap1\n      swap2\n      0x0100\n      exp\n      dup2\n      sload\n      dup2\n      0xffffffffffffffffffffffffffffffffffffffff\n      mul\n      not\n      and\n      swap1\n      dup4\n      0xffffffffffffffffffffffffffffffffffffffff\n      and\n      mul\n      or\n      swap1\n      sstore\n      pop\n        /* \"solidity/task2/BeggingContract.sol\":1714:1792  if (donates[msg.sender] == 0) {... */\n    tag_110:\n        /* \"solidity/task2/BeggingContract.sol\":1816:1825  msg.value */\n      callvalue\n        /* \"solidity/task2/BeggingContract.sol\":1801:1812  totalAmount */\n      0x02\n      0x00\n        /* \"solidity/task2/BeggingContract.sol\":1801:1825  totalAmount += msg.value */\n      dup3\n      dup3\n      sload\n      tag_112\n      swap2\n      swap1\n      tag_113\n      jump\t// in\n    tag_112:\n      swap3\n      pop\n      pop\n      dup2\n      swap1\n      sstore\n      pop\n        /* \"solidity/task2/BeggingContract.sol\":1858:1867  msg.value */\n      callvalue\n        /* \"solidity/task2/BeggingContract.sol\":1835:1842  donates */\n      0x03\n        /* \"solidity/task2/BeggingContract.sol\":1835:1854  donates[msg.sender] */\n      0x00\n        /* \"solidity/task2/BeggingContract.sol\":1843:1853  msg.sender */\n      caller\n        /* \"solidity/task2/BeggingContract.sol\":1835:1854  donates[msg.sender] */\n      0xffffffffffffffffffffffffffffffffffffffff\n      and\n      0xffffffffffffffffffffffffffffffffffffffff\n      and\n      dup2\n      mstore\n      0x20\n      add\n      swap1\n      dup2\n      mstore\n      0x20\n      add\n      0x00\n      keccak256\n      0x00\n        /* \"solidity/task2/BeggingContract.sol\":1835:1867  donates[msg.sender] += msg.value */\n      dup3\n      dup3\n      sload\n      tag_114\n      swap2\n      swap1\n      tag_113\n      jump\t// in\n    tag_114:\n      swap3\n      pop\n      pop\n      dup2\n      swap1\n      sstore\n      pop\n        /* \"solidity/task2/BeggingContract.sol\":1891:1901  msg.sender */\n      caller\n        /* \"solidity/task2/BeggingContract.sol\":1882:1928  Donation(msg.sender,msg.value,block.timestamp) */\n      0xffffffffffffffffffffffffffffffffffffffff\n      and\n      0x106aac375bbcf013d1e52338bbf9e740009a1a3a6869f8daa1b72aa1620f5fec\n        /* \"solidity/task2/BeggingContract.sol\":1902:1911  msg.value */\n      callvalue\n        /* \"solidity/task2/BeggingContract.sol\":1912:1927  block.timestamp */\n      timestamp\n        /* \"solidity/task2/BeggingContract.sol\":1882:1928  Donation(msg.sender,msg.value,block.timestamp) */\n      mload(0x40)\n      tag_115\n      swap3\n      swap2\n      swap1\n      tag_28\n      jump\t// in\n    tag_115:\n      mload(0x40)\n      dup1\n      swap2\n      sub\n      swap1\n      log2\n        /* \"solidity/task2/BeggingContract.sol\":1945:1949  true */\n      0x01\n        /* \"solidity/task2/BeggingContract.sol\":1938:1949  return true */\n      swap1\n      pop\n        /* \"solidity/task2/BeggingContract.sol\":1569:1956  function donate() public  payable withinTimeimit returns(bool){... */\n      swap1\n      jump\t// out\n        /* \"solidity/task2/BeggingContract.sol\":740:770  uint256 public donationEndTime */\n    tag_60:\n      sload(0x06)\n      dup2\n      jump\t// out\n        /* \"solidity/task2/BeggingContract.sol\":2790:4216  function getTopDonors(uint256 topN) public view returns(address[] memory topDonors,uint256[] memory topAmounts) {... */\n    tag_66:\n        /* \"solidity/task2/BeggingContract.sol\":2846:2872  address[] memory topDonors */\n      0x60\n        /* \"solidity/task2/BeggingContract.sol\":2873:2900  uint256[] memory topAmounts */\n      dup1\n        /* \"solidity/task2/BeggingContract.sol\":2927:2928  0 */\n      0x00\n        /* \"solidity/task2/BeggingContract.sol\":2920:2924  topN */\n      dup4\n        /* \"solidity/task2/BeggingContract.sol\":2920:2928  topN > 0 */\n      gt\n        /* \"solidity/task2/BeggingContract.sol\":2920:2953  topN > 0 && topN <= donors.length */\n      dup1\n      iszero\n      tag_117\n      jumpi\n      pop\n        /* \"solidity/task2/BeggingContract.sol\":2940:2946  donors */\n      0x04\n        /* \"solidity/task2/BeggingContract.sol\":2940:2953  donors.length */\n      dup1\n      sload\n      swap1\n      pop\n        /* \"solidity/task2/BeggingContract.sol\":2932:2936  topN */\n      dup4\n        /* \"solidity/task2/BeggingContract.sol\":2932:2953  topN <= donors.length */\n      gt\n      iszero\n        /* \"solidity/task2/BeggingContract.sol\":2920:2953  topN > 0 && topN <= donors.length */\n    tag_117:\n        /* \"solidity/task2/BeggingContract.sol\":2912:2975  require(topN > 0 && topN <= donors.length,\"Invalid topN value\") */\n      tag_118\n      jumpi\n      mload(0x40)\n      0x08c379a000000000000000000000000000000000000000000000000000000000\n      dup2\n      mstore\n      0x04\n      add\n      tag_119\n      swap1\n      tag_120\n      jump\t// in\n    tag_119:\n      mload(0x40)\n      dup1\n      swap2\n      sub\n      swap1\n      revert\n    tag_118:\n        /* \"solidity/task2/BeggingContract.sol\":3026:3053  address[] memory tempDonors */\n      0x00\n        /* \"solidity/task2/BeggingContract.sol\":3070:3076  donors */\n      0x04\n        /* \"solidity/task2/BeggingContract.sol\":3070:3083  donors.length */\n      dup1\n      sload\n      swap1\n      pop\n        /* \"solidity/task2/BeggingContract.sol\":3056:3084  new address[](donors.length) */\n      0xffffffffffffffff\n      dup2\n      gt\n      iszero\n      tag_121\n      jumpi\n      tag_122\n      tag_123\n      jump\t// in\n    tag_122:\n    tag_121:\n      mload(0x40)\n      swap1\n      dup1\n      dup3\n      mstore\n      dup1\n      0x20\n      mul\n      0x20\n      add\n      dup3\n      add\n      0x40\n      mstore\n      dup1\n      iszero\n      tag_124\n      jumpi\n      dup2\n      0x20\n      add\n      0x20\n      dup3\n      mul\n      dup1\n      calldatasize\n      dup4\n      calldatacopy\n      dup1\n      dup3\n      add\n      swap2\n      pop\n      pop\n      swap1\n      pop\n    tag_124:\n      pop\n        /* \"solidity/task2/BeggingContract.sol\":3026:3084  address[] memory tempDonors = new address[](donors.length) */\n      swap1\n      pop\n        /* \"solidity/task2/BeggingContract.sol\":3094:3122  uint256[] memory tempAmounts */\n      0x00\n        /* \"solidity/task2/BeggingContract.sol\":3139:3145  donors */\n      0x04\n        /* \"solidity/task2/BeggingContract.sol\":3139:3152  donors.length */\n      dup1\n      sload\n      swap1\n      pop\n        /* \"solidity/task2/BeggingContract.sol\":3125:3153  new uint256[](donors.length) */\n      0xffffffffffffffff\n      dup2\n      gt\n      iszero\n      tag_125\n      jumpi\n      tag_126\n      tag_123\n      jump\t// in\n    tag_126:\n    tag_125:\n      mload(0x40)\n      swap1\n      dup1\n      dup3\n      mstore\n      dup1\n      0x20\n      mul\n      0x20\n      add\n      dup3\n      add\n      0x40\n      mstore\n      dup1\n      iszero\n      tag_127\n      jumpi\n      dup2\n      0x20\n      add\n      0x20\n      dup3\n      mul\n      dup1\n      calldatasize\n      dup4\n      calldatacopy\n      dup1\n      dup3\n      add\n      swap2\n      pop\n      pop\n      swap1\n      pop\n    tag_127:\n      pop\n        /* \"solidity/task2/BeggingContract.sol\":3094:3153  uint256[] memory tempAmounts = new uint256[](donors.length) */\n      swap1\n      pop\n        /* \"solidity/task2/BeggingContract.sol\":3192:3201  uint256 i */\n      0x00\n        /* \"solidity/task2/BeggingContract.sol\":3202:3203  0 */\n      0x00\n        /* \"solidity/task2/BeggingContract.sol\":3192:3203  uint256 i=0 */\n      swap1\n      pop\n        /* \"solidity/task2/BeggingContract.sol\":3187:3324  for (uint256 i=0;i<donors.length;i++) {... */\n    tag_128:\n        /* \"solidity/task2/BeggingContract.sol\":3206:3212  donors */\n      0x04\n        /* \"solidity/task2/BeggingContract.sol\":3206:3219  donors.length */\n      dup1\n      sload\n      swap1\n      pop\n        /* \"solidity/task2/BeggingContract.sol\":3204:3205  i */\n      dup2\n        /* \"solidity/task2/BeggingContract.sol\":3204:3219  i<donors.length */\n      lt\n        /* \"solidity/task2/BeggingContract.sol\":3187:3324  for (uint256 i=0;i<donors.length;i++) {... */\n      iszero\n      tag_129\n      jumpi\n        /* \"solidity/task2/BeggingContract.sol\":3255:3261  donors */\n      0x04\n        /* \"solidity/task2/BeggingContract.sol\":3262:3263  i */\n      dup2\n        /* \"solidity/task2/BeggingContract.sol\":3255:3264  donors[i] */\n      dup2\n      sload\n      dup2\n      lt\n      tag_131\n      jumpi\n      tag_132\n      tag_133\n      jump\t// in\n    tag_132:\n    tag_131:\n      swap1\n      0x00\n      mstore\n      keccak256(0x00, 0x20)\n      add\n      0x00\n      swap1\n      sload\n      swap1\n      0x0100\n      exp\n      swap1\n      div\n      0xffffffffffffffffffffffffffffffffffffffff\n      and\n        /* \"solidity/task2/BeggingContract.sol\":3239:3249  tempDonors */\n      dup4\n        /* \"solidity/task2/BeggingContract.sol\":3250:3251  i */\n      dup3\n        /* \"solidity/task2/BeggingContract.sol\":3239:3252  tempDonors[i] */\n      dup2\n      mload\n      dup2\n      lt\n      tag_135\n      jumpi\n      tag_136\n      tag_133\n      jump\t// in\n    tag_136:\n    tag_135:\n      0x20\n      mul\n      0x20\n      add\n      add\n        /* \"solidity/task2/BeggingContract.sol\":3239:3264  tempDonors[i] = donors[i] */\n      swap1\n      0xffffffffffffffffffffffffffffffffffffffff\n      and\n      swap1\n      dup2\n      0xffffffffffffffffffffffffffffffffffffffff\n      and\n      dup2\n      mstore\n      pop\n      pop\n        /* \"solidity/task2/BeggingContract.sol\":3295:3302  donates */\n      0x03\n        /* \"solidity/task2/BeggingContract.sol\":3295:3313  donates[donors[i]] */\n      0x00\n        /* \"solidity/task2/BeggingContract.sol\":3303:3309  donors */\n      0x04\n        /* \"solidity/task2/BeggingContract.sol\":3310:3311  i */\n      dup4\n        /* \"solidity/task2/BeggingContract.sol\":3303:3312  donors[i] */\n      dup2\n      sload\n      dup2\n      lt\n      tag_137\n      jumpi\n      tag_138\n      tag_133\n      jump\t// in\n    tag_138:\n    tag_137:\n      swap1\n      0x00\n      mstore\n      keccak256(0x00, 0x20)\n      add\n      0x00\n      swap1\n      sload\n      swap1\n      0x0100\n      exp\n      swap1\n      div\n      0xffffffffffffffffffffffffffffffffffffffff\n      and\n        /* \"solidity/task2/BeggingContract.sol\":3295:3313  donates[donors[i]] */\n      0xffffffffffffffffffffffffffffffffffffffff\n      and\n      0xffffffffffffffffffffffffffffffffffffffff\n      and\n      dup2\n      mstore\n      0x20\n      add\n      swap1\n      dup2\n      mstore\n      0x20\n      add\n      0x00\n      keccak256\n      sload\n        /* \"solidity/task2/BeggingContract.sol\":3278:3289  tempAmounts */\n      dup3\n        /* \"solidity/task2/BeggingContract.sol\":3290:3291  i */\n      dup3\n        /* \"solidity/task2/BeggingContract.sol\":3278:3292  tempAmounts[i] */\n      dup2\n      mload\n      dup2\n      lt\n      tag_140\n      jumpi\n      tag_141\n      tag_133\n      jump\t// in\n    tag_141:\n    tag_140:\n      0x20\n      mul\n      0x20\n      add\n      add\n        /* \"solidity/task2/BeggingContract.sol\":3278:3313  tempAmounts[i] = donates[donors[i]] */\n      dup2\n      dup2\n      mstore\n      pop\n      pop\n        /* \"solidity/task2/BeggingContract.sol\":3220:3223  i++ */\n      dup1\n      dup1\n      0x01\n      add\n      swap2\n      pop\n      pop\n        /* \"solidity/task2/BeggingContract.sol\":3187:3324  for (uint256 i=0;i<donors.length;i++) {... */\n      jump(tag_128)\n    tag_129:\n      pop\n        /* \"solidity/task2/BeggingContract.sol\":3368:3377  uint256 i */\n      0x00\n        /* \"solidity/task2/BeggingContract.sol\":3378:3379  0 */\n      0x00\n        /* \"solidity/task2/BeggingContract.sol\":3368:3379  uint256 i=0 */\n      swap1\n      pop\n        /* \"solidity/task2/BeggingContract.sol\":3363:3930  for (uint256 i=0;i<tempDonors.length-1;i++) {... */\n    tag_142:\n        /* \"solidity/task2/BeggingContract.sol\":3400:3401  1 */\n      0x01\n        /* \"solidity/task2/BeggingContract.sol\":3382:3392  tempDonors */\n      dup4\n        /* \"solidity/task2/BeggingContract.sol\":3382:3399  tempDonors.length */\n      mload\n        /* \"solidity/task2/BeggingContract.sol\":3382:3401  tempDonors.length-1 */\n      tag_145\n      swap2\n      swap1\n      tag_146\n      jump\t// in\n    tag_145:\n        /* \"solidity/task2/BeggingContract.sol\":3380:3381  i */\n      dup2\n        /* \"solidity/task2/BeggingContract.sol\":3380:3401  i<tempDonors.length-1 */\n      lt\n        /* \"solidity/task2/BeggingContract.sol\":3363:3930  for (uint256 i=0;i<tempDonors.length-1;i++) {... */\n      iszero\n      tag_143\n      jumpi\n        /* \"solidity/task2/BeggingContract.sol\":3426:3435  uint256 j */\n      0x00\n        /* \"solidity/task2/BeggingContract.sol\":3436:3437  0 */\n      0x00\n        /* \"solidity/task2/BeggingContract.sol\":3426:3437  uint256 j=0 */\n      swap1\n      pop\n        /* \"solidity/task2/BeggingContract.sol\":3421:3920  for (uint256 j=0;j<tempDonors.length-1-i;j++) {... */\n    tag_147:\n        /* \"solidity/task2/BeggingContract.sol\":3460:3461  i */\n      dup2\n        /* \"solidity/task2/BeggingContract.sol\":3458:3459  1 */\n      0x01\n        /* \"solidity/task2/BeggingContract.sol\":3440:3450  tempDonors */\n      dup6\n        /* \"solidity/task2/BeggingContract.sol\":3440:3457  tempDonors.length */\n      mload\n        /* \"solidity/task2/BeggingContract.sol\":3440:3459  tempDonors.length-1 */\n      tag_150\n      swap2\n      swap1\n      tag_146\n      jump\t// in\n    tag_150:\n        /* \"solidity/task2/BeggingContract.sol\":3440:3461  tempDonors.length-1-i */\n      tag_151\n      swap2\n      swap1\n      tag_146\n      jump\t// in\n    tag_151:\n        /* \"solidity/task2/BeggingContract.sol\":3438:3439  j */\n      dup2\n        /* \"solidity/task2/BeggingContract.sol\":3438:3461  j<tempDonors.length-1-i */\n      lt\n        /* \"solidity/task2/BeggingContract.sol\":3421:3920  for (uint256 j=0;j<tempDonors.length-1-i;j++) {... */\n      iszero\n      tag_148\n      jumpi\n        /* \"solidity/task2/BeggingContract.sol\":3504:3515  tempAmounts */\n      dup3\n        /* \"solidity/task2/BeggingContract.sol\":3518:3519  1 */\n      0x01\n        /* \"solidity/task2/BeggingContract.sol\":3516:3517  j */\n      dup3\n        /* \"solidity/task2/BeggingContract.sol\":3516:3519  j+1 */\n      tag_152\n      swap2\n      swap1\n      tag_113\n      jump\t// in\n    tag_152:\n        /* \"solidity/task2/BeggingContract.sol\":3504:3520  tempAmounts[j+1] */\n      dup2\n      mload\n      dup2\n      lt\n      tag_153\n      jumpi\n      tag_154\n      tag_133\n      jump\t// in\n    tag_154:\n    tag_153:\n      0x20\n      mul\n      0x20\n      add\n      add\n      mload\n        /* \"solidity/task2/BeggingContract.sol\":3489:3500  tempAmounts */\n      dup4\n        /* \"solidity/task2/BeggingContract.sol\":3501:3502  j */\n      dup3\n        /* \"solidity/task2/BeggingContract.sol\":3489:3503  tempAmounts[j] */\n      dup2\n      mload\n      dup2\n      lt\n      tag_155\n      jumpi\n      tag_156\n      tag_133\n      jump\t// in\n    tag_156:\n    tag_155:\n      0x20\n      mul\n      0x20\n      add\n      add\n      mload\n        /* \"solidity/task2/BeggingContract.sol\":3489:3520  tempAmounts[j]<tempAmounts[j+1] */\n      lt\n        /* \"solidity/task2/BeggingContract.sol\":3485:3906  if (tempAmounts[j]<tempAmounts[j+1]) {... */\n      iszero\n      tag_157\n      jumpi\n        /* \"solidity/task2/BeggingContract.sol\":3588:3606  uint256 tempAmount */\n      0x00\n        /* \"solidity/task2/BeggingContract.sol\":3609:3620  tempAmounts */\n      dup4\n        /* \"solidity/task2/BeggingContract.sol\":3621:3622  j */\n      dup3\n        /* \"solidity/task2/BeggingContract.sol\":3609:3623  tempAmounts[j] */\n      dup2\n      mload\n      dup2\n      lt\n      tag_158\n      jumpi\n      tag_159\n      tag_133\n      jump\t// in\n    tag_159:\n    tag_158:\n      0x20\n      mul\n      0x20\n      add\n      add\n      mload\n        /* \"solidity/task2/BeggingContract.sol\":3588:3623  uint256 tempAmount = tempAmounts[j] */\n      swap1\n      pop\n        /* \"solidity/task2/BeggingContract.sol\":3662:3673  tempAmounts */\n      dup4\n        /* \"solidity/task2/BeggingContract.sol\":3676:3677  1 */\n      0x01\n        /* \"solidity/task2/BeggingContract.sol\":3674:3675  j */\n      dup4\n        /* \"solidity/task2/BeggingContract.sol\":3674:3677  j+1 */\n      tag_160\n      swap2\n      swap1\n      tag_113\n      jump\t// in\n    tag_160:\n        /* \"solidity/task2/BeggingContract.sol\":3662:3678  tempAmounts[j+1] */\n      dup2\n      mload\n      dup2\n      lt\n      tag_161\n      jumpi\n      tag_162\n      tag_133\n      jump\t// in\n    tag_162:\n    tag_161:\n      0x20\n      mul\n      0x20\n      add\n      add\n      mload\n        /* \"solidity/task2/BeggingContract.sol\":3645:3656  tempAmounts */\n      dup5\n        /* \"solidity/task2/BeggingContract.sol\":3657:3658  j */\n      dup4\n        /* \"solidity/task2/BeggingContract.sol\":3645:3659  tempAmounts[j] */\n      dup2\n      mload\n      dup2\n      lt\n      tag_163\n      jumpi\n      tag_164\n      tag_133\n      jump\t// in\n    tag_164:\n    tag_163:\n      0x20\n      mul\n      0x20\n      add\n      add\n        /* \"solidity/task2/BeggingContract.sol\":3645:3678  tempAmounts[j] = tempAmounts[j+1] */\n      dup2\n      dup2\n      mstore\n      pop\n      pop\n        /* \"solidity/task2/BeggingContract.sol\":3719:3729  tempAmount */\n      dup1\n        /* \"solidity/task2/BeggingContract.sol\":3700:3711  tempAmounts */\n      dup5\n        /* \"solidity/task2/BeggingContract.sol\":3714:3715  1 */\n      0x01\n        /* \"solidity/task2/BeggingContract.sol\":3712:3713  j */\n      dup5\n        /* \"solidity/task2/BeggingContract.sol\":3712:3715  j+1 */\n      tag_165\n      swap2\n      swap1\n      tag_113\n      jump\t// in\n    tag_165:\n        /* \"solidity/task2/BeggingContract.sol\":3700:3716  tempAmounts[j+1] */\n      dup2\n      mload\n      dup2\n      lt\n      tag_166\n      jumpi\n      tag_167\n      tag_133\n      jump\t// in\n    tag_167:\n    tag_166:\n      0x20\n      mul\n      0x20\n      add\n      add\n        /* \"solidity/task2/BeggingContract.sol\":3700:3729  tempAmounts[j+1] = tempAmount */\n      dup2\n      dup2\n      mstore\n      pop\n      pop\n        /* \"solidity/task2/BeggingContract.sol\":3752:3769  address tempDonor */\n      0x00\n        /* \"solidity/task2/BeggingContract.sol\":3772:3782  tempDonors */\n      dup6\n        /* \"solidity/task2/BeggingContract.sol\":3783:3784  j */\n      dup4\n        /* \"solidity/task2/BeggingContract.sol\":3772:3785  tempDonors[j] */\n      dup2\n      mload\n      dup2\n      lt\n      tag_168\n      jumpi\n      tag_169\n      tag_133\n      jump\t// in\n    tag_169:\n    tag_168:\n      0x20\n      mul\n      0x20\n      add\n      add\n      mload\n        /* \"solidity/task2/BeggingContract.sol\":3752:3785  address tempDonor = tempDonors[j] */\n      swap1\n      pop\n        /* \"solidity/task2/BeggingContract.sol\":3823:3833  tempDonors */\n      dup6\n        /* \"solidity/task2/BeggingContract.sol\":3836:3837  1 */\n      0x01\n        /* \"solidity/task2/BeggingContract.sol\":3834:3835  j */\n      dup5\n        /* \"solidity/task2/BeggingContract.sol\":3834:3837  j+1 */\n      tag_170\n      swap2\n      swap1\n      tag_113\n      jump\t// in\n    tag_170:\n        /* \"solidity/task2/BeggingContract.sol\":3823:3838  tempDonors[j+1] */\n      dup2\n      mload\n      dup2\n      lt\n      tag_171\n      jumpi\n      tag_172\n      tag_133\n      jump\t// in\n    tag_172:\n    tag_171:\n      0x20\n      mul\n      0x20\n      add\n      add\n      mload\n        /* \"solidity/task2/BeggingContract.sol\":3807:3817  tempDonors */\n      dup7\n        /* \"solidity/task2/BeggingContract.sol\":3818:3819  j */\n      dup5\n        /* \"solidity/task2/BeggingContract.sol\":3807:3820  tempDonors[j] */\n      dup2\n      mload\n      dup2\n      lt\n      tag_173\n      jumpi\n      tag_174\n      tag_133\n      jump\t// in\n    tag_174:\n    tag_173:\n      0x20\n      mul\n      0x20\n      add\n      add\n        /* \"solidity/task2/BeggingContract.sol\":3807:3838  tempDonors[j] = tempDonors[j+1] */\n      swap1\n      0xffffffffffffffffffffffffffffffffffffffff\n      and\n      swap1\n      dup2\n      0xffffffffffffffffffffffffffffffffffffffff\n      and\n      dup2\n      mstore\n      pop\n      pop\n        /* \"solidity/task2/BeggingContract.sol\":3878:3887  tempDonor */\n      dup1\n        /* \"solidity/task2/BeggingContract.sol\":3860:3870  tempDonors */\n      dup7\n        /* \"solidity/task2/BeggingContract.sol\":3873:3874  1 */\n      0x01\n        /* \"solidity/task2/BeggingContract.sol\":3871:3872  j */\n      dup6\n        /* \"solidity/task2/BeggingContract.sol\":3871:3874  j+1 */\n      tag_175\n      swap2\n      swap1\n      tag_113\n      jump\t// in\n    tag_175:\n        /* \"solidity/task2/BeggingContract.sol\":3860:3875  tempDonors[j+1] */\n      dup2\n      mload\n      dup2\n      lt\n      tag_176\n      jumpi\n      tag_177\n      tag_133\n      jump\t// in\n    tag_177:\n    tag_176:\n      0x20\n      mul\n      0x20\n      add\n      add\n        /* \"solidity/task2/BeggingContract.sol\":3860:3887  tempDonors[j+1] = tempDonor */\n      swap1\n      0xffffffffffffffffffffffffffffffffffffffff\n      and\n      swap1\n      dup2\n      0xffffffffffffffffffffffffffffffffffffffff\n      and\n      dup2\n      mstore\n      pop\n      pop\n        /* \"solidity/task2/BeggingContract.sol\":3522:3906  {... */\n      pop\n      pop\n        /* \"solidity/task2/BeggingContract.sol\":3485:3906  if (tempAmounts[j]<tempAmounts[j+1]) {... */\n    tag_157:\n        /* \"solidity/task2/BeggingContract.sol\":3462:3465  j++ */\n      dup1\n      dup1\n      0x01\n      add\n      swap2\n      pop\n      pop\n        /* \"solidity/task2/BeggingContract.sol\":3421:3920  for (uint256 j=0;j<tempDonors.length-1-i;j++) {... */\n      jump(tag_147)\n    tag_148:\n      pop\n        /* \"solidity/task2/BeggingContract.sol\":3402:3405  i++ */\n      dup1\n      dup1\n      0x01\n      add\n      swap2\n      pop\n      pop\n        /* \"solidity/task2/BeggingContract.sol\":3363:3930  for (uint256 i=0;i<tempDonors.length-1;i++) {... */\n      jump(tag_142)\n    tag_143:\n      pop\n        /* \"solidity/task2/BeggingContract.sol\":3990:3994  topN */\n      dup5\n        /* \"solidity/task2/BeggingContract.sol\":3976:3995  new address[](topN) */\n      0xffffffffffffffff\n      dup2\n      gt\n      iszero\n      tag_178\n      jumpi\n      tag_179\n      tag_123\n      jump\t// in\n    tag_179:\n    tag_178:\n      mload(0x40)\n      swap1\n      dup1\n      dup3\n      mstore\n      dup1\n      0x20\n      mul\n      0x20\n      add\n      dup3\n      add\n      0x40\n      mstore\n      dup1\n      iszero\n      tag_180\n      jumpi\n      dup2\n      0x20\n      add\n      0x20\n      dup3\n      mul\n      dup1\n      calldatasize\n      dup4\n      calldatacopy\n      dup1\n      dup3\n      add\n      swap2\n      pop\n      pop\n      swap1\n      pop\n    tag_180:\n      pop\n        /* \"solidity/task2/BeggingContract.sol\":3964:3995  topDonors = new address[](topN) */\n      swap4\n      pop\n        /* \"solidity/task2/BeggingContract.sol\":4032:4036  topN */\n      dup5\n        /* \"solidity/task2/BeggingContract.sol\":4018:4037  new uint256[](topN) */\n      0xffffffffffffffff\n      dup2\n      gt\n      iszero\n      tag_181\n      jumpi\n      tag_182\n      tag_123\n      jump\t// in\n    tag_182:\n    tag_181:\n      mload(0x40)\n      swap1\n      dup1\n      dup3\n      mstore\n      dup1\n      0x20\n      mul\n      0x20\n      add\n      dup3\n      add\n      0x40\n      mstore\n      dup1\n      iszero\n      tag_183\n      jumpi\n      dup2\n      0x20\n      add\n      0x20\n      dup3\n      mul\n      dup1\n      calldatasize\n      dup4\n      calldatacopy\n      dup1\n      dup3\n      add\n      swap2\n      pop\n      pop\n      swap1\n      pop\n    tag_183:\n      pop\n        /* \"solidity/task2/BeggingContract.sol\":4005:4037  topAmounts = new uint256[](topN) */\n      swap3\n      pop\n        /* \"solidity/task2/BeggingContract.sol\":4052:4061  uint256 i */\n      0x00\n        /* \"solidity/task2/BeggingContract.sol\":4062:4063  0 */\n      0x00\n        /* \"solidity/task2/BeggingContract.sol\":4052:4063  uint256 i=0 */\n      swap1\n      pop\n        /* \"solidity/task2/BeggingContract.sol\":4047:4171  for (uint256 i=0;i<topN;i++) {... */\n    tag_184:\n        /* \"solidity/task2/BeggingContract.sol\":4066:4070  topN */\n      dup6\n        /* \"solidity/task2/BeggingContract.sol\":4064:4065  i */\n      dup2\n        /* \"solidity/task2/BeggingContract.sol\":4064:4070  i<topN */\n      lt\n        /* \"solidity/task2/BeggingContract.sol\":4047:4171  for (uint256 i=0;i<topN;i++) {... */\n      iszero\n      tag_185\n      jumpi\n        /* \"solidity/task2/BeggingContract.sol\":4104:4114  tempDonors */\n      dup3\n        /* \"solidity/task2/BeggingContract.sol\":4115:4116  i */\n      dup2\n        /* \"solidity/task2/BeggingContract.sol\":4104:4117  tempDonors[i] */\n      dup2\n      mload\n      dup2\n      lt\n      tag_187\n      jumpi\n      tag_188\n      tag_133\n      jump\t// in\n    tag_188:\n    tag_187:\n      0x20\n      mul\n      0x20\n      add\n      add\n      mload\n        /* \"solidity/task2/BeggingContract.sol\":4089:4098  topDonors */\n      dup6\n        /* \"solidity/task2/BeggingContract.sol\":4099:4100  i */\n      dup3\n        /* \"solidity/task2/BeggingContract.sol\":4089:4101  topDonors[i] */\n      dup2\n      mload\n      dup2\n      lt\n      tag_189\n      jumpi\n      tag_190\n      tag_133\n      jump\t// in\n    tag_190:\n    tag_189:\n      0x20\n      mul\n      0x20\n      add\n      add\n        /* \"solidity/task2/BeggingContract.sol\":4089:4117  topDonors[i] = tempDonors[i] */\n      swap1\n      0xffffffffffffffffffffffffffffffffffffffff\n      and\n      swap1\n      dup2\n      0xffffffffffffffffffffffffffffffffffffffff\n      and\n      dup2\n      mstore\n      pop\n      pop\n        /* \"solidity/task2/BeggingContract.sol\":4146:4157  tempAmounts */\n      dup2\n        /* \"solidity/task2/BeggingContract.sol\":4158:4159  i */\n      dup2\n        /* \"solidity/task2/BeggingContract.sol\":4146:4160  tempAmounts[i] */\n      dup2\n      mload\n      dup2\n      lt\n      tag_191\n      jumpi\n      tag_192\n      tag_133\n      jump\t// in\n    tag_192:\n    tag_191:\n      0x20\n      mul\n      0x20\n      add\n      add\n      mload\n        /* \"solidity/task2/BeggingContract.sol\":4130:4140  topAmounts */\n      dup5\n        /* \"solidity/task2/BeggingContract.sol\":4141:4142  i */\n      dup3\n        /* \"solidity/task2/BeggingContract.sol\":4130:4143  topAmounts[i] */\n      dup2\n      mload\n      dup2\n      lt\n      tag_193\n      jumpi\n      tag_194\n      tag_133\n      jump\t// in\n    tag_194:\n    tag_193:\n      0x20\n      mul\n      0x20\n      add\n      add\n        /* \"solidity/task2/BeggingContract.sol\":4130:4160  topAmounts[i] = tempAmounts[i] */\n      dup2\n      dup2\n      mstore\n      pop\n      pop\n        /* \"solidity/task2/BeggingContract.sol\":4071:4074  i++ */\n      dup1\n      dup1\n      0x01\n      add\n      swap2\n      pop\n      pop\n        /* \"solidity/task2/BeggingContract.sol\":4047:4171  for (uint256 i=0;i<topN;i++) {... */\n      jump(tag_184)\n    tag_185:\n      pop\n        /* \"solidity/task2/BeggingContract.sol\":4180:4209  return (topDonors,topAmounts) */\n      pop\n      pop\n        /* \"solidity/task2/BeggingContract.sol\":2790:4216  function getTopDonors(uint256 topN) public view returns(address[] memory topDonors,uint256[] memory topAmounts) {... */\n      swap2\n      pop\n      swap2\n      jump\t// out\n        /* \"@openzeppelin/contracts/security/ReentrancyGuard.sol\":2336:2623  function _nonReentrantBefore() private {... */\n    tag_77:\n        /* \"@openzeppelin/contracts/security/ReentrancyGuard.sol\":1759:1760  2 */\n      0x02\n        /* \"@openzeppelin/contracts/security/ReentrancyGuard.sol\":2468:2475  _status */\n      sload(0x00)\n        /* \"@openzeppelin/contracts/security/ReentrancyGuard.sol\":2468:2487  _status != _ENTERED */\n      sub\n        /* \"@openzeppelin/contracts/security/ReentrancyGuard.sol\":2460:2523  require(_status != _ENTERED, \"ReentrancyGuard: reentrant call\") */\n      tag_196\n      jumpi\n      mload(0x40)\n      0x08c379a000000000000000000000000000000000000000000000000000000000\n      dup2\n      mstore\n      0x04\n      add\n      tag_197\n      swap1\n      tag_198\n      jump\t// in\n    tag_197:\n      mload(0x40)\n      dup1\n      swap2\n      sub\n      swap1\n      revert\n    tag_196:\n        /* \"@openzeppelin/contracts/security/ReentrancyGuard.sol\":1759:1760  2 */\n      0x02\n        /* \"@openzeppelin/contracts/security/ReentrancyGuard.sol\":2598:2605  _status */\n      0x00\n        /* \"@openzeppelin/contracts/security/ReentrancyGuard.sol\":2598:2616  _status = _ENTERED */\n      dup2\n      swap1\n      sstore\n      pop\n        /* \"@openzeppelin/contracts/security/ReentrancyGuard.sol\":2336:2623  function _nonReentrantBefore() private {... */\n      jump\t// out\n        /* \"@openzeppelin/contracts/security/ReentrancyGuard.sol\":2629:2838  function _nonReentrantAfter() private {... */\n    tag_85:\n        /* \"@openzeppelin/contracts/security/ReentrancyGuard.sol\":1716:1717  1 */\n      0x01\n        /* \"@openzeppelin/contracts/security/ReentrancyGuard.sol\":2809:2816  _status */\n      0x00\n        /* \"@openzeppelin/contracts/security/ReentrancyGuard.sol\":2809:2831  _status = _NOT_ENTERED */\n      dup2\n      swap1\n      sstore\n      pop\n        /* \"@openzeppelin/contracts/security/ReentrancyGuard.sol\":2629:2838  function _nonReentrantAfter() private {... */\n      jump\t// out\n        /* \"#utility.yul\":7:84   */\n    tag_200:\n        /* \"#utility.yul\":44:51   */\n      0x00\n        /* \"#utility.yul\":73:78   */\n      dup2\n        /* \"#utility.yul\":62:78   */\n      swap1\n      pop\n        /* \"#utility.yul\":7:84   */\n      swap2\n      swap1\n      pop\n      jump\t// out\n        /* \"#utility.yul\":90:208   */\n    tag_201:\n        /* \"#utility.yul\":177:201   */\n      tag_248\n        /* \"#utility.yul\":195:200   */\n      dup2\n        /* \"#utility.yul\":177:201   */\n      tag_200\n      jump\t// in\n    tag_248:\n        /* \"#utility.yul\":172:175   */\n      dup3\n        /* \"#utility.yul\":165:202   */\n      mstore\n        /* \"#utility.yul\":90:208   */\n      pop\n      pop\n      jump\t// out\n        /* \"#utility.yul\":214:436   */\n    tag_23:\n        /* \"#utility.yul\":307:311   */\n      0x00\n        /* \"#utility.yul\":345:347   */\n      0x20\n        /* \"#utility.yul\":334:343   */\n      dup3\n        /* \"#utility.yul\":330:348   */\n      add\n        /* \"#utility.yul\":322:348   */\n      swap1\n      pop\n        /* \"#utility.yul\":358:429   */\n      tag_250\n        /* \"#utility.yul\":426:427   */\n      0x00\n        /* \"#utility.yul\":415:424   */\n      dup4\n        /* \"#utility.yul\":411:428   */\n      add\n        /* \"#utility.yul\":402:408   */\n      dup5\n        /* \"#utility.yul\":358:429   */\n      tag_201\n      jump\t// in\n    tag_250:\n        /* \"#utility.yul\":214:436   */\n      swap3\n      swap2\n      pop\n      pop\n      jump\t// out\n        /* \"#utility.yul\":442:774   */\n    tag_28:\n        /* \"#utility.yul\":563:567   */\n      0x00\n        /* \"#utility.yul\":601:603   */\n      0x40\n        /* \"#utility.yul\":590:599   */\n      dup3\n        /* \"#utility.yul\":586:604   */\n      add\n        /* \"#utility.yul\":578:604   */\n      swap1\n      pop\n        /* \"#utility.yul\":614:685   */\n      tag_252\n        /* \"#utility.yul\":682:683   */\n      0x00\n        /* \"#utility.yul\":671:680   */\n      dup4\n        /* \"#utility.yul\":667:684   */\n      add\n        /* \"#utility.yul\":658:664   */\n      dup6\n        /* \"#utility.yul\":614:685   */\n      tag_201\n      jump\t// in\n    tag_252:\n        /* \"#utility.yul\":695:767   */\n      tag_253\n        /* \"#utility.yul\":763:765   */\n      0x20\n        /* \"#utility.yul\":752:761   */\n      dup4\n        /* \"#utility.yul\":748:766   */\n      add\n        /* \"#utility.yul\":739:745   */\n      dup5\n        /* \"#utility.yul\":695:767   */\n      tag_201\n      jump\t// in\n    tag_253:\n        /* \"#utility.yul\":442:774   */\n      swap4\n      swap3\n      pop\n      pop\n      pop\n      jump\t// out\n        /* \"#utility.yul\":861:978   */\n    tag_203:\n        /* \"#utility.yul\":970:971   */\n      0x00\n        /* \"#utility.yul\":967:968   */\n      0x00\n        /* \"#utility.yul\":960:972   */\n      revert\n        /* \"#utility.yul\":1107:1233   */\n    tag_205:\n        /* \"#utility.yul\":1144:1151   */\n      0x00\n        /* \"#utility.yul\":1184:1226   */\n      0xffffffffffffffffffffffffffffffffffffffff\n        /* \"#utility.yul\":1177:1182   */\n      dup3\n        /* \"#utility.yul\":1173:1227   */\n      and\n        /* \"#utility.yul\":1162:1227   */\n      swap1\n      pop\n        /* \"#utility.yul\":1107:1233   */\n      swap2\n      swap1\n      pop\n      jump\t// out\n        /* \"#utility.yul\":1239:1335   */\n    tag_206:\n        /* \"#utility.yul\":1276:1283   */\n      0x00\n        /* \"#utility.yul\":1305:1329   */\n      tag_259\n        /* \"#utility.yul\":1323:1328   */\n      dup3\n        /* \"#utility.yul\":1305:1329   */\n      tag_205\n      jump\t// in\n    tag_259:\n        /* \"#utility.yul\":1294:1329   */\n      swap1\n      pop\n        /* \"#utility.yul\":1239:1335   */\n      swap2\n      swap1\n      pop\n      jump\t// out\n        /* \"#utility.yul\":1341:1463   */\n    tag_207:\n        /* \"#utility.yul\":1414:1438   */\n      tag_261\n        /* \"#utility.yul\":1432:1437   */\n      dup2\n        /* \"#utility.yul\":1414:1438   */\n      tag_206\n      jump\t// in\n    tag_261:\n        /* \"#utility.yul\":1407:1412   */\n      dup2\n        /* \"#utility.yul\":1404:1439   */\n      eq\n        /* \"#utility.yul\":1394:1457   */\n      tag_262\n      jumpi\n        /* \"#utility.yul\":1453:1454   */\n      0x00\n        /* \"#utility.yul\":1450:1451   */\n      0x00\n        /* \"#utility.yul\":1443:1455   */\n      revert\n        /* \"#utility.yul\":1394:1457   */\n    tag_262:\n        /* \"#utility.yul\":1341:1463   */\n      pop\n      jump\t// out\n        /* \"#utility.yul\":1469:1608   */\n    tag_208:\n        /* \"#utility.yul\":1515:1520   */\n      0x00\n        /* \"#utility.yul\":1553:1559   */\n      dup2\n        /* \"#utility.yul\":1540:1560   */\n      calldataload\n        /* \"#utility.yul\":1531:1560   */\n      swap1\n      pop\n        /* \"#utility.yul\":1569:1602   */\n      tag_264\n        /* \"#utility.yul\":1596:1601   */\n      dup2\n        /* \"#utility.yul\":1569:1602   */\n      tag_207\n      jump\t// in\n    tag_264:\n        /* \"#utility.yul\":1469:1608   */\n      swap3\n      swap2\n      pop\n      pop\n      jump\t// out\n        /* \"#utility.yul\":1614:1943   */\n    tag_35:\n        /* \"#utility.yul\":1673:1679   */\n      0x00\n        /* \"#utility.yul\":1722:1724   */\n      0x20\n        /* \"#utility.yul\":1710:1719   */\n      dup3\n        /* \"#utility.yul\":1701:1708   */\n      dup5\n        /* \"#utility.yul\":1697:1720   */\n      sub\n        /* \"#utility.yul\":1693:1725   */\n      slt\n        /* \"#utility.yul\":1690:1809   */\n      iszero\n      tag_266\n      jumpi\n        /* \"#utility.yul\":1728:1807   */\n      tag_267\n      tag_203\n      jump\t// in\n    tag_267:\n        /* \"#utility.yul\":1690:1809   */\n    tag_266:\n        /* \"#utility.yul\":1848:1849   */\n      0x00\n        /* \"#utility.yul\":1873:1926   */\n      tag_268\n        /* \"#utility.yul\":1918:1925   */\n      dup5\n        /* \"#utility.yul\":1909:1915   */\n      dup3\n        /* \"#utility.yul\":1898:1907   */\n      dup6\n        /* \"#utility.yul\":1894:1916   */\n      add\n        /* \"#utility.yul\":1873:1926   */\n      tag_208\n      jump\t// in\n    tag_268:\n        /* \"#utility.yul\":1863:1926   */\n      swap2\n      pop\n        /* \"#utility.yul\":1819:1936   */\n      pop\n        /* \"#utility.yul\":1614:1943   */\n      swap3\n      swap2\n      pop\n      pop\n      jump\t// out\n        /* \"#utility.yul\":1949:2039   */\n    tag_209:\n        /* \"#utility.yul\":1983:1990   */\n      0x00\n        /* \"#utility.yul\":2026:2031   */\n      dup2\n        /* \"#utility.yul\":2019:2032   */\n      iszero\n        /* \"#utility.yul\":2012:2033   */\n      iszero\n        /* \"#utility.yul\":2001:2033   */\n      swap1\n      pop\n        /* \"#utility.yul\":1949:2039   */\n      swap2\n      swap1\n      pop\n      jump\t// out\n        /* \"#utility.yul\":2045:2154   */\n    tag_210:\n        /* \"#utility.yul\":2126:2147   */\n      tag_271\n        /* \"#utility.yul\":2141:2146   */\n      dup2\n        /* \"#utility.yul\":2126:2147   */\n      tag_209\n      jump\t// in\n    tag_271:\n        /* \"#utility.yul\":2121:2124   */\n      dup3\n        /* \"#utility.yul\":2114:2148   */\n      mstore\n        /* \"#utility.yul\":2045:2154   */\n      pop\n      pop\n      jump\t// out\n        /* \"#utility.yul\":2160:2370   */\n    tag_42:\n        /* \"#utility.yul\":2247:2251   */\n      0x00\n        /* \"#utility.yul\":2285:2287   */\n      0x20\n        /* \"#utility.yul\":2274:2283   */\n      dup3\n        /* \"#utility.yul\":2270:2288   */\n      add\n        /* \"#utility.yul\":2262:2288   */\n      swap1\n      pop\n        /* \"#utility.yul\":2298:2363   */\n      tag_273\n        /* \"#utility.yul\":2360:2361   */\n      0x00\n        /* \"#utility.yul\":2349:2358   */\n      dup4\n        /* \"#utility.yul\":2345:2362   */\n      add\n        /* \"#utility.yul\":2336:2342   */\n      dup5\n        /* \"#utility.yul\":2298:2363   */\n      tag_210\n      jump\t// in\n    tag_273:\n        /* \"#utility.yul\":2160:2370   */\n      swap3\n      swap2\n      pop\n      pop\n      jump\t// out\n        /* \"#utility.yul\":2376:2498   */\n    tag_211:\n        /* \"#utility.yul\":2449:2473   */\n      tag_275\n        /* \"#utility.yul\":2467:2472   */\n      dup2\n        /* \"#utility.yul\":2449:2473   */\n      tag_200\n      jump\t// in\n    tag_275:\n        /* \"#utility.yul\":2442:2447   */\n      dup2\n        /* \"#utility.yul\":2439:2474   */\n      eq\n        /* \"#utility.yul\":2429:2492   */\n      tag_276\n      jumpi\n        /* \"#utility.yul\":2488:2489   */\n      0x00\n        /* \"#utility.yul\":2485:2486   */\n      0x00\n        /* \"#utility.yul\":2478:2490   */\n      revert\n        /* \"#utility.yul\":2429:2492   */\n    tag_276:\n        /* \"#utility.yul\":2376:2498   */\n      pop\n      jump\t// out\n        /* \"#utility.yul\":2504:2643   */\n    tag_212:\n        /* \"#utility.yul\":2550:2555   */\n      0x00\n        /* \"#utility.yul\":2588:2594   */\n      dup2\n        /* \"#utility.yul\":2575:2595   */\n      calldataload\n        /* \"#utility.yul\":2566:2595   */\n      swap1\n      pop\n        /* \"#utility.yul\":2604:2637   */\n      tag_278\n        /* \"#utility.yul\":2631:2636   */\n      dup2\n        /* \"#utility.yul\":2604:2637   */\n      tag_211\n      jump\t// in\n    tag_278:\n        /* \"#utility.yul\":2504:2643   */\n      swap3\n      swap2\n      pop\n      pop\n      jump\t// out\n        /* \"#utility.yul\":2649:2765   */\n    tag_213:\n        /* \"#utility.yul\":2719:2740   */\n      tag_280\n        /* \"#utility.yul\":2734:2739   */\n      dup2\n        /* \"#utility.yul\":2719:2740   */\n      tag_209\n      jump\t// in\n    tag_280:\n        /* \"#utility.yul\":2712:2717   */\n      dup2\n        /* \"#utility.yul\":2709:2741   */\n      eq\n        /* \"#utility.yul\":2699:2759   */\n      tag_281\n      jumpi\n        /* \"#utility.yul\":2755:2756   */\n      0x00\n        /* \"#utility.yul\":2752:2753   */\n      0x00\n        /* \"#utility.yul\":2745:2757   */\n      revert\n        /* \"#utility.yul\":2699:2759   */\n    tag_281:\n        /* \"#utility.yul\":2649:2765   */\n      pop\n      jump\t// out\n        /* \"#utility.yul\":2771:2904   */\n    tag_214:\n        /* \"#utility.yul\":2814:2819   */\n      0x00\n        /* \"#utility.yul\":2852:2858   */\n      dup2\n        /* \"#utility.yul\":2839:2859   */\n      calldataload\n        /* \"#utility.yul\":2830:2859   */\n      swap1\n      pop\n        /* \"#utility.yul\":2868:2898   */\n      tag_283\n        /* \"#utility.yul\":2892:2897   */\n      dup2\n        /* \"#utility.yul\":2868:2898   */\n      tag_213\n      jump\t// in\n    tag_283:\n        /* \"#utility.yul\":2771:2904   */\n      swap3\n      swap2\n      pop\n      pop\n      jump\t// out\n        /* \"#utility.yul\":2910:3523   */\n    tag_53:\n        /* \"#utility.yul\":2984:2990   */\n      0x00\n        /* \"#utility.yul\":2992:2998   */\n      0x00\n        /* \"#utility.yul\":3000:3006   */\n      0x00\n        /* \"#utility.yul\":3049:3051   */\n      0x60\n        /* \"#utility.yul\":3037:3046   */\n      dup5\n        /* \"#utility.yul\":3028:3035   */\n      dup7\n        /* \"#utility.yul\":3024:3047   */\n      sub\n        /* \"#utility.yul\":3020:3052   */\n      slt\n        /* \"#utility.yul\":3017:3136   */\n      iszero\n      tag_285\n      jumpi\n        /* \"#utility.yul\":3055:3134   */\n      tag_286\n      tag_203\n      jump\t// in\n    tag_286:\n        /* \"#utility.yul\":3017:3136   */\n    tag_285:\n        /* \"#utility.yul\":3175:3176   */\n      0x00\n        /* \"#utility.yul\":3200:3253   */\n      tag_287\n        /* \"#utility.yul\":3245:3252   */\n      dup7\n        /* \"#utility.yul\":3236:3242   */\n      dup3\n        /* \"#utility.yul\":3225:3234   */\n      dup8\n        /* \"#utility.yul\":3221:3243   */\n      add\n        /* \"#utility.yul\":3200:3253   */\n      tag_212\n      jump\t// in\n    tag_287:\n        /* \"#utility.yul\":3190:3253   */\n      swap4\n      pop\n        /* \"#utility.yul\":3146:3263   */\n      pop\n        /* \"#utility.yul\":3302:3304   */\n      0x20\n        /* \"#utility.yul\":3328:3381   */\n      tag_288\n        /* \"#utility.yul\":3373:3380   */\n      dup7\n        /* \"#utility.yul\":3364:3370   */\n      dup3\n        /* \"#utility.yul\":3353:3362   */\n      dup8\n        /* \"#utility.yul\":3349:3371   */\n      add\n        /* \"#utility.yul\":3328:3381   */\n      tag_212\n      jump\t// in\n    tag_288:\n        /* \"#utility.yul\":3318:3381   */\n      swap3\n      pop\n        /* \"#utility.yul\":3273:3391   */\n      pop\n        /* \"#utility.yul\":3430:3432   */\n      0x40\n        /* \"#utility.yul\":3456:3506   */\n      tag_289\n        /* \"#utility.yul\":3498:3505   */\n      dup7\n        /* \"#utility.yul\":3489:3495   */\n      dup3\n        /* \"#utility.yul\":3478:3487   */\n      dup8\n        /* \"#utility.yul\":3474:3496   */\n      add\n        /* \"#utility.yul\":3456:3506   */\n      tag_214\n      jump\t// in\n    tag_289:\n        /* \"#utility.yul\":3446:3506   */\n      swap2\n      pop\n        /* \"#utility.yul\":3401:3516   */\n      pop\n        /* \"#utility.yul\":2910:3523   */\n      swap3\n      pop\n      swap3\n      pop\n      swap3\n      jump\t// out\n        /* \"#utility.yul\":3529:3858   */\n    tag_65:\n        /* \"#utility.yul\":3588:3594   */\n      0x00\n        /* \"#utility.yul\":3637:3639   */\n      0x20\n        /* \"#utility.yul\":3625:3634   */\n      dup3\n        /* \"#utility.yul\":3616:3623   */\n      dup5\n        /* \"#utility.yul\":3612:3635   */\n      sub\n        /* \"#utility.yul\":3608:3640   */\n      slt\n        /* \"#utility.yul\":3605:3724   */\n      iszero\n      tag_291\n      jumpi\n        /* \"#utility.yul\":3643:3722   */\n      tag_292\n      tag_203\n      jump\t// in\n    tag_292:\n        /* \"#utility.yul\":3605:3724   */\n    tag_291:\n        /* \"#utility.yul\":3763:3764   */\n      0x00\n        /* \"#utility.yul\":3788:3841   */\n      tag_293\n        /* \"#utility.yul\":3833:3840   */\n      dup5\n        /* \"#utility.yul\":3824:3830   */\n      dup3\n        /* \"#utility.yul\":3813:3822   */\n      dup6\n        /* \"#utility.yul\":3809:3831   */\n      add\n        /* \"#utility.yul\":3788:3841   */\n      tag_212\n      jump\t// in\n    tag_293:\n        /* \"#utility.yul\":3778:3841   */\n      swap2\n      pop\n        /* \"#utility.yul\":3734:3851   */\n      pop\n        /* \"#utility.yul\":3529:3858   */\n      swap3\n      swap2\n      pop\n      pop\n      jump\t// out\n        /* \"#utility.yul\":3864:3978   */\n    tag_215:\n        /* \"#utility.yul\":3931:3937   */\n      0x00\n        /* \"#utility.yul\":3965:3970   */\n      dup2\n        /* \"#utility.yul\":3959:3971   */\n      mload\n        /* \"#utility.yul\":3949:3971   */\n      swap1\n      pop\n        /* \"#utility.yul\":3864:3978   */\n      swap2\n      swap1\n      pop\n      jump\t// out\n        /* \"#utility.yul\":3984:4168   */\n    tag_216:\n        /* \"#utility.yul\":4083:4094   */\n      0x00\n        /* \"#utility.yul\":4117:4123   */\n      dup3\n        /* \"#utility.yul\":4112:4115   */\n      dup3\n        /* \"#utility.yul\":4105:4124   */\n      mstore\n        /* \"#utility.yul\":4157:4161   */\n      0x20\n        /* \"#utility.yul\":4152:4155   */\n      dup3\n        /* \"#utility.yul\":4148:4162   */\n      add\n        /* \"#utility.yul\":4133:4162   */\n      swap1\n      pop\n        /* \"#utility.yul\":3984:4168   */\n      swap3\n      swap2\n      pop\n      pop\n      jump\t// out\n        /* \"#utility.yul\":4174:4306   */\n    tag_217:\n        /* \"#utility.yul\":4241:4245   */\n      0x00\n        /* \"#utility.yul\":4264:4267   */\n      dup2\n        /* \"#utility.yul\":4256:4267   */\n      swap1\n      pop\n        /* \"#utility.yul\":4294:4298   */\n      0x20\n        /* \"#utility.yul\":4289:4292   */\n      dup3\n        /* \"#utility.yul\":4285:4299   */\n      add\n        /* \"#utility.yul\":4277:4299   */\n      swap1\n      pop\n        /* \"#utility.yul\":4174:4306   */\n      swap2\n      swap1\n      pop\n      jump\t// out\n        /* \"#utility.yul\":4312:4420   */\n    tag_218:\n        /* \"#utility.yul\":4389:4413   */\n      tag_298\n        /* \"#utility.yul\":4407:4412   */\n      dup2\n        /* \"#utility.yul\":4389:4413   */\n      tag_206\n      jump\t// in\n    tag_298:\n        /* \"#utility.yul\":4384:4387   */\n      dup3\n        /* \"#utility.yul\":4377:4414   */\n      mstore\n        /* \"#utility.yul\":4312:4420   */\n      pop\n      pop\n      jump\t// out\n        /* \"#utility.yul\":4426:4605   */\n    tag_219:\n        /* \"#utility.yul\":4495:4505   */\n      0x00\n        /* \"#utility.yul\":4516:4562   */\n      tag_300\n        /* \"#utility.yul\":4558:4561   */\n      dup4\n        /* \"#utility.yul\":4550:4556   */\n      dup4\n        /* \"#utility.yul\":4516:4562   */\n      tag_218\n      jump\t// in\n    tag_300:\n        /* \"#utility.yul\":4594:4598   */\n      0x20\n        /* \"#utility.yul\":4589:4592   */\n      dup4\n        /* \"#utility.yul\":4585:4599   */\n      add\n        /* \"#utility.yul\":4571:4599   */\n      swap1\n      pop\n        /* \"#utility.yul\":4426:4605   */\n      swap3\n      swap2\n      pop\n      pop\n      jump\t// out\n        /* \"#utility.yul\":4611:4724   */\n    tag_220:\n        /* \"#utility.yul\":4681:4685   */\n      0x00\n        /* \"#utility.yul\":4713:4717   */\n      0x20\n        /* \"#utility.yul\":4708:4711   */\n      dup3\n        /* \"#utility.yul\":4704:4718   */\n      add\n        /* \"#utility.yul\":4696:4718   */\n      swap1\n      pop\n        /* \"#utility.yul\":4611:4724   */\n      swap2\n      swap1\n      pop\n      jump\t// out\n        /* \"#utility.yul\":4760:5492   */\n    tag_221:\n        /* \"#utility.yul\":4879:4882   */\n      0x00\n        /* \"#utility.yul\":4908:4962   */\n      tag_303\n        /* \"#utility.yul\":4956:4961   */\n      dup3\n        /* \"#utility.yul\":4908:4962   */\n      tag_215\n      jump\t// in\n    tag_303:\n        /* \"#utility.yul\":4978:5064   */\n      tag_304\n        /* \"#utility.yul\":5057:5063   */\n      dup2\n        /* \"#utility.yul\":5052:5055   */\n      dup6\n        /* \"#utility.yul\":4978:5064   */\n      tag_216\n      jump\t// in\n    tag_304:\n        /* \"#utility.yul\":4971:5064   */\n      swap4\n      pop\n        /* \"#utility.yul\":5088:5144   */\n      tag_305\n        /* \"#utility.yul\":5138:5143   */\n      dup4\n        /* \"#utility.yul\":5088:5144   */\n      tag_217\n      jump\t// in\n    tag_305:\n        /* \"#utility.yul\":5167:5174   */\n      dup1\n        /* \"#utility.yul\":5198:5199   */\n      0x00\n        /* \"#utility.yul\":5183:5467   */\n    tag_306:\n        /* \"#utility.yul\":5208:5214   */\n      dup4\n        /* \"#utility.yul\":5205:5206   */\n      dup2\n        /* \"#utility.yul\":5202:5215   */\n      lt\n        /* \"#utility.yul\":5183:5467   */\n      iszero\n      tag_308\n      jumpi\n        /* \"#utility.yul\":5284:5290   */\n      dup2\n        /* \"#utility.yul\":5278:5291   */\n      mload\n        /* \"#utility.yul\":5311:5374   */\n      tag_309\n        /* \"#utility.yul\":5370:5373   */\n      dup9\n        /* \"#utility.yul\":5355:5368   */\n      dup3\n        /* \"#utility.yul\":5311:5374   */\n      tag_219\n      jump\t// in\n    tag_309:\n        /* \"#utility.yul\":5304:5374   */\n      swap8\n      pop\n        /* \"#utility.yul\":5397:5457   */\n      tag_310\n        /* \"#utility.yul\":5450:5456   */\n      dup4\n        /* \"#utility.yul\":5397:5457   */\n      tag_220\n      jump\t// in\n    tag_310:\n        /* \"#utility.yul\":5387:5457   */\n      swap3\n      pop\n        /* \"#utility.yul\":5243:5467   */\n      pop\n        /* \"#utility.yul\":5230:5231   */\n      0x01\n        /* \"#utility.yul\":5227:5228   */\n      dup2\n        /* \"#utility.yul\":5223:5232   */\n      add\n        /* \"#utility.yul\":5218:5232   */\n      swap1\n      pop\n        /* \"#utility.yul\":5183:5467   */\n      jump(tag_306)\n    tag_308:\n        /* \"#utility.yul\":5187:5201   */\n      pop\n        /* \"#utility.yul\":5483:5486   */\n      dup6\n        /* \"#utility.yul\":5476:5486   */\n      swap4\n      pop\n        /* \"#utility.yul\":4884:5492   */\n      pop\n      pop\n      pop\n        /* \"#utility.yul\":4760:5492   */\n      swap3\n      swap2\n      pop\n      pop\n      jump\t// out\n        /* \"#utility.yul\":5498:5612   */\n    tag_222:\n        /* \"#utility.yul\":5565:5571   */\n      0x00\n        /* \"#utility.yul\":5599:5604   */\n      dup2\n        /* \"#utility.yul\":5593:5605   */\n      mload\n        /* \"#utility.yul\":5583:5605   */\n      swap1\n      pop\n        /* \"#utility.yul\":5498:5612   */\n      swap2\n      swap1\n      pop\n      jump\t// out\n        /* \"#utility.yul\":5618:5802   */\n    tag_223:\n        /* \"#utility.yul\":5717:5728   */\n      0x00\n        /* \"#utility.yul\":5751:5757   */\n      dup3\n        /* \"#utility.yul\":5746:5749   */\n      dup3\n        /* \"#utility.yul\":5739:5758   */\n      mstore\n        /* \"#utility.yul\":5791:5795   */\n      0x20\n        /* \"#utility.yul\":5786:5789   */\n      dup3\n        /* \"#utility.yul\":5782:5796   */\n      add\n        /* \"#utility.yul\":5767:5796   */\n      swap1\n      pop\n        /* \"#utility.yul\":5618:5802   */\n      swap3\n      swap2\n      pop\n      pop\n      jump\t// out\n        /* \"#utility.yul\":5808:5940   */\n    tag_224:\n        /* \"#utility.yul\":5875:5879   */\n      0x00\n        /* \"#utility.yul\":5898:5901   */\n      dup2\n        /* \"#utility.yul\":5890:5901   */\n      swap1\n      pop\n        /* \"#utility.yul\":5928:5932   */\n      0x20\n        /* \"#utility.yul\":5923:5926   */\n      dup3\n        /* \"#utility.yul\":5919:5933   */\n      add\n        /* \"#utility.yul\":5911:5933   */\n      swap1\n      pop\n        /* \"#utility.yul\":5808:5940   */\n      swap2\n      swap1\n      pop\n      jump\t// out\n        /* \"#utility.yul\":5946:6054   */\n    tag_225:\n        /* \"#utility.yul\":6023:6047   */\n      tag_315\n        /* \"#utility.yul\":6041:6046   */\n      dup2\n        /* \"#utility.yul\":6023:6047   */\n      tag_200\n      jump\t// in\n    tag_315:\n        /* \"#utility.yul\":6018:6021   */\n      dup3\n        /* \"#utility.yul\":6011:6048   */\n      mstore\n        /* \"#utility.yul\":5946:6054   */\n      pop\n      pop\n      jump\t// out\n        /* \"#utility.yul\":6060:6239   */\n    tag_226:\n        /* \"#utility.yul\":6129:6139   */\n      0x00\n        /* \"#utility.yul\":6150:6196   */\n      tag_317\n        /* \"#utility.yul\":6192:6195   */\n      dup4\n        /* \"#utility.yul\":6184:6190   */\n      dup4\n        /* \"#utility.yul\":6150:6196   */\n      tag_225\n      jump\t// in\n    tag_317:\n        /* \"#utility.yul\":6228:6232   */\n      0x20\n        /* \"#utility.yul\":6223:6226   */\n      dup4\n        /* \"#utility.yul\":6219:6233   */\n      add\n        /* \"#utility.yul\":6205:6233   */\n      swap1\n      pop\n        /* \"#utility.yul\":6060:6239   */\n      swap3\n      swap2\n      pop\n      pop\n      jump\t// out\n        /* \"#utility.yul\":6245:6358   */\n    tag_227:\n        /* \"#utility.yul\":6315:6319   */\n      0x00\n        /* \"#utility.yul\":6347:6351   */\n      0x20\n        /* \"#utility.yul\":6342:6345   */\n      dup3\n        /* \"#utility.yul\":6338:6352   */\n      add\n        /* \"#utility.yul\":6330:6352   */\n      swap1\n      pop\n        /* \"#utility.yul\":6245:6358   */\n      swap2\n      swap1\n      pop\n      jump\t// out\n        /* \"#utility.yul\":6394:7126   */\n    tag_228:\n        /* \"#utility.yul\":6513:6516   */\n      0x00\n        /* \"#utility.yul\":6542:6596   */\n      tag_320\n        /* \"#utility.yul\":6590:6595   */\n      dup3\n        /* \"#utility.yul\":6542:6596   */\n      tag_222\n      jump\t// in\n    tag_320:\n        /* \"#utility.yul\":6612:6698   */\n      tag_321\n        /* \"#utility.yul\":6691:6697   */\n      dup2\n        /* \"#utility.yul\":6686:6689   */\n      dup6\n        /* \"#utility.yul\":6612:6698   */\n      tag_223\n      jump\t// in\n    tag_321:\n        /* \"#utility.yul\":6605:6698   */\n      swap4\n      pop\n        /* \"#utility.yul\":6722:6778   */\n      tag_322\n        /* \"#utility.yul\":6772:6777   */\n      dup4\n        /* \"#utility.yul\":6722:6778   */\n      tag_224\n      jump\t// in\n    tag_322:\n        /* \"#utility.yul\":6801:6808   */\n      dup1\n        /* \"#utility.yul\":6832:6833   */\n      0x00\n        /* \"#utility.yul\":6817:7101   */\n    tag_323:\n        /* \"#utility.yul\":6842:6848   */\n      dup4\n        /* \"#utility.yul\":6839:6840   */\n      dup2\n        /* \"#utility.yul\":6836:6849   */\n      lt\n        /* \"#utility.yul\":6817:7101   */\n      iszero\n      tag_325\n      jumpi\n        /* \"#utility.yul\":6918:6924   */\n      dup2\n        /* \"#utility.yul\":6912:6925   */\n      mload\n        /* \"#utility.yul\":6945:7008   */\n      tag_326\n        /* \"#utility.yul\":7004:7007   */\n      dup9\n        /* \"#utility.yul\":6989:7002   */\n      dup3\n        /* \"#utility.yul\":6945:7008   */\n      tag_226\n      jump\t// in\n    tag_326:\n        /* \"#utility.yul\":6938:7008   */\n      swap8\n      pop\n        /* \"#utility.yul\":7031:7091   */\n      tag_327\n        /* \"#utility.yul\":7084:7090   */\n      dup4\n        /* \"#utility.yul\":7031:7091   */\n      tag_227\n      jump\t// in\n    tag_327:\n        /* \"#utility.yul\":7021:7091   */\n      swap3\n      pop\n        /* \"#utility.yul\":6877:7101   */\n      pop\n        /* \"#utility.yul\":6864:6865   */\n      0x01\n        /* \"#utility.yul\":6861:6862   */\n      dup2\n        /* \"#utility.yul\":6857:6866   */\n      add\n        /* \"#utility.yul\":6852:6866   */\n      swap1\n      pop\n        /* \"#utility.yul\":6817:7101   */\n      jump(tag_323)\n    tag_325:\n        /* \"#utility.yul\":6821:6835   */\n      pop\n        /* \"#utility.yul\":7117:7120   */\n      dup6\n        /* \"#utility.yul\":7110:7120   */\n      swap4\n      pop\n        /* \"#utility.yul\":6518:7126   */\n      pop\n      pop\n      pop\n        /* \"#utility.yul\":6394:7126   */\n      swap3\n      swap2\n      pop\n      pop\n      jump\t// out\n        /* \"#utility.yul\":7132:7766   */\n    tag_68:\n        /* \"#utility.yul\":7353:7357   */\n      0x00\n        /* \"#utility.yul\":7391:7393   */\n      0x40\n        /* \"#utility.yul\":7380:7389   */\n      dup3\n        /* \"#utility.yul\":7376:7394   */\n      add\n        /* \"#utility.yul\":7368:7394   */\n      swap1\n      pop\n        /* \"#utility.yul\":7440:7449   */\n      dup2\n        /* \"#utility.yul\":7434:7438   */\n      dup2\n        /* \"#utility.yul\":7430:7450   */\n      sub\n        /* \"#utility.yul\":7426:7427   */\n      0x00\n        /* \"#utility.yul\":7415:7424   */\n      dup4\n        /* \"#utility.yul\":7411:7428   */\n      add\n        /* \"#utility.yul\":7404:7451   */\n      mstore\n        /* \"#utility.yul\":7468:7576   */\n      tag_329\n        /* \"#utility.yul\":7571:7575   */\n      dup2\n        /* \"#utility.yul\":7562:7568   */\n      dup6\n        /* \"#utility.yul\":7468:7576   */\n      tag_221\n      jump\t// in\n    tag_329:\n        /* \"#utility.yul\":7460:7576   */\n      swap1\n      pop\n        /* \"#utility.yul\":7623:7632   */\n      dup2\n        /* \"#utility.yul\":7617:7621   */\n      dup2\n        /* \"#utility.yul\":7613:7633   */\n      sub\n        /* \"#utility.yul\":7608:7610   */\n      0x20\n        /* \"#utility.yul\":7597:7606   */\n      dup4\n        /* \"#utility.yul\":7593:7611   */\n      add\n        /* \"#utility.yul\":7586:7634   */\n      mstore\n        /* \"#utility.yul\":7651:7759   */\n      tag_330\n        /* \"#utility.yul\":7754:7758   */\n      dup2\n        /* \"#utility.yul\":7745:7751   */\n      dup5\n        /* \"#utility.yul\":7651:7759   */\n      tag_228\n      jump\t// in\n    tag_330:\n        /* \"#utility.yul\":7643:7759   */\n      swap1\n      pop\n        /* \"#utility.yul\":7132:7766   */\n      swap4\n      swap3\n      pop\n      pop\n      pop\n      jump\t// out\n        /* \"#utility.yul\":7772:7941   */\n    tag_229:\n        /* \"#utility.yul\":7856:7867   */\n      0x00\n        /* \"#utility.yul\":7890:7896   */\n      dup3\n        /* \"#utility.yul\":7885:7888   */\n      dup3\n        /* \"#utility.yul\":7878:7897   */\n      mstore\n        /* \"#utility.yul\":7930:7934   */\n      0x20\n        /* \"#utility.yul\":7925:7928   */\n      dup3\n        /* \"#utility.yul\":7921:7935   */\n      add\n        /* \"#utility.yul\":7906:7935   */\n      swap1\n      pop\n        /* \"#utility.yul\":7772:7941   */\n      swap3\n      swap2\n      pop\n      pop\n      jump\t// out\n        /* \"#utility.yul\":7947:8119   */\n    tag_230:\n        /* \"#utility.yul\":8087:8111   */\n      0x6f6e6c79206f776e65722063616e206f70657261746500000000000000000000\n        /* \"#utility.yul\":8083:8084   */\n      0x00\n        /* \"#utility.yul\":8075:8081   */\n      dup3\n        /* \"#utility.yul\":8071:8085   */\n      add\n        /* \"#utility.yul\":8064:8112   */\n      mstore\n        /* \"#utility.yul\":7947:8119   */\n      pop\n      jump\t// out\n        /* \"#utility.yul\":8125:8491   */\n    tag_231:\n        /* \"#utility.yul\":8267:8270   */\n      0x00\n        /* \"#utility.yul\":8288:8355   */\n      tag_334\n        /* \"#utility.yul\":8352:8354   */\n      0x16\n        /* \"#utility.yul\":8347:8350   */\n      dup4\n        /* \"#utility.yul\":8288:8355   */\n      tag_229\n      jump\t// in\n    tag_334:\n        /* \"#utility.yul\":8281:8355   */\n      swap2\n      pop\n        /* \"#utility.yul\":8364:8457   */\n      tag_335\n        /* \"#utility.yul\":8453:8456   */\n      dup3\n        /* \"#utility.yul\":8364:8457   */\n      tag_230\n      jump\t// in\n    tag_335:\n        /* \"#utility.yul\":8482:8484   */\n      0x20\n        /* \"#utility.yul\":8477:8480   */\n      dup3\n        /* \"#utility.yul\":8473:8485   */\n      add\n        /* \"#utility.yul\":8466:8485   */\n      swap1\n      pop\n        /* \"#utility.yul\":8125:8491   */\n      swap2\n      swap1\n      pop\n      jump\t// out\n        /* \"#utility.yul\":8497:8916   */\n    tag_74:\n        /* \"#utility.yul\":8663:8667   */\n      0x00\n        /* \"#utility.yul\":8701:8703   */\n      0x20\n        /* \"#utility.yul\":8690:8699   */\n      dup3\n        /* \"#utility.yul\":8686:8704   */\n      add\n        /* \"#utility.yul\":8678:8704   */\n      swap1\n      pop\n        /* \"#utility.yul\":8750:8759   */\n      dup2\n        /* \"#utility.yul\":8744:8748   */\n      dup2\n        /* \"#utility.yul\":8740:8760   */\n      sub\n        /* \"#utility.yul\":8736:8737   */\n      0x00\n        /* \"#utility.yul\":8725:8734   */\n      dup4\n        /* \"#utility.yul\":8721:8738   */\n      add\n        /* \"#utility.yul\":8714:8761   */\n      mstore\n        /* \"#utility.yul\":8778:8909   */\n      tag_337\n        /* \"#utility.yul\":8904:8908   */\n      dup2\n        /* \"#utility.yul\":8778:8909   */\n      tag_231\n      jump\t// in\n    tag_337:\n        /* \"#utility.yul\":8770:8909   */\n      swap1\n      pop\n        /* \"#utility.yul\":8497:8916   */\n      swap2\n      swap1\n      pop\n      jump\t// out\n        /* \"#utility.yul\":8922:9095   */\n    tag_232:\n        /* \"#utility.yul\":9062:9087   */\n      0x776974686472617720616d6f756e74206973207a65726f000000000000000000\n        /* \"#utility.yul\":9058:9059   */\n      0x00\n        /* \"#utility.yul\":9050:9056   */\n      dup3\n        /* \"#utility.yul\":9046:9060   */\n      add\n        /* \"#utility.yul\":9039:9088   */\n      mstore\n        /* \"#utility.yul\":8922:9095   */\n      pop\n      jump\t// out\n        /* \"#utility.yul\":9101:9467   */\n    tag_233:\n        /* \"#utility.yul\":9243:9246   */\n      0x00\n        /* \"#utility.yul\":9264:9331   */\n      tag_340\n        /* \"#utility.yul\":9328:9330   */\n      0x17\n        /* \"#utility.yul\":9323:9326   */\n      dup4\n        /* \"#utility.yul\":9264:9331   */\n      tag_229\n      jump\t// in\n    tag_340:\n        /* \"#utility.yul\":9257:9331   */\n      swap2\n      pop\n        /* \"#utility.yul\":9340:9433   */\n      tag_341\n        /* \"#utility.yul\":9429:9432   */\n      dup3\n        /* \"#utility.yul\":9340:9433   */\n      tag_232\n      jump\t// in\n    tag_341:\n        /* \"#utility.yul\":9458:9460   */\n      0x20\n        /* \"#utility.yul\":9453:9456   */\n      dup3\n        /* \"#utility.yul\":9449:9461   */\n      add\n        /* \"#utility.yul\":9442:9461   */\n      swap1\n      pop\n        /* \"#utility.yul\":9101:9467   */\n      swap2\n      swap1\n      pop\n      jump\t// out\n        /* \"#utility.yul\":9473:9892   */\n    tag_81:\n        /* \"#utility.yul\":9639:9643   */\n      0x00\n        /* \"#utility.yul\":9677:9679   */\n      0x20\n        /* \"#utility.yul\":9666:9675   */\n      dup3\n        /* \"#utility.yul\":9662:9680   */\n      add\n        /* \"#utility.yul\":9654:9680   */\n      swap1\n      pop\n        /* \"#utility.yul\":9726:9735   */\n      dup2\n        /* \"#utility.yul\":9720:9724   */\n      dup2\n        /* \"#utility.yul\":9716:9736   */\n      sub\n        /* \"#utility.yul\":9712:9713   */\n      0x00\n        /* \"#utility.yul\":9701:9710   */\n      dup4\n        /* \"#utility.yul\":9697:9714   */\n      add\n        /* \"#utility.yul\":9690:9737   */\n      mstore\n        /* \"#utility.yul\":9754:9885   */\n      tag_343\n        /* \"#utility.yul\":9880:9884   */\n      dup2\n        /* \"#utility.yul\":9754:9885   */\n      tag_233\n      jump\t// in\n    tag_343:\n        /* \"#utility.yul\":9746:9885   */\n      swap1\n      pop\n        /* \"#utility.yul\":9473:9892   */\n      swap2\n      swap1\n      pop\n      jump\t// out\n        /* \"#utility.yul\":9898:10118   */\n    tag_234:\n        /* \"#utility.yul\":10038:10072   */\n      0x456e642074696d65206d7573742062652061667465722073746172742074696d\n        /* \"#utility.yul\":10034:10035   */\n      0x00\n        /* \"#utility.yul\":10026:10032   */\n      dup3\n        /* \"#utility.yul\":10022:10036   */\n      add\n        /* \"#utility.yul\":10015:10073   */\n      mstore\n        /* \"#utility.yul\":10107:10110   */\n      0x6500000000000000000000000000000000000000000000000000000000000000\n        /* \"#utility.yul\":10102:10104   */\n      0x20\n        /* \"#utility.yul\":10094:10100   */\n      dup3\n        /* \"#utility.yul\":10090:10105   */\n      add\n        /* \"#utility.yul\":10083:10111   */\n      mstore\n        /* \"#utility.yul\":9898:10118   */\n      pop\n      jump\t// out\n        /* \"#utility.yul\":10124:10490   */\n    tag_235:\n        /* \"#utility.yul\":10266:10269   */\n      0x00\n        /* \"#utility.yul\":10287:10354   */\n      tag_346\n        /* \"#utility.yul\":10351:10353   */\n      0x21\n        /* \"#utility.yul\":10346:10349   */\n      dup4\n        /* \"#utility.yul\":10287:10354   */\n      tag_229\n      jump\t// in\n    tag_346:\n        /* \"#utility.yul\":10280:10354   */\n      swap2\n      pop\n        /* \"#utility.yul\":10363:10456   */\n      tag_347\n        /* \"#utility.yul\":10452:10455   */\n      dup3\n        /* \"#utility.yul\":10363:10456   */\n      tag_234\n      jump\t// in\n    tag_347:\n        /* \"#utility.yul\":10481:10483   */\n      0x40\n        /* \"#utility.yul\":10476:10479   */\n      dup3\n        /* \"#utility.yul\":10472:10484   */\n      add\n        /* \"#utility.yul\":10465:10484   */\n      swap1\n      pop\n        /* \"#utility.yul\":10124:10490   */\n      swap2\n      swap1\n      pop\n      jump\t// out\n        /* \"#utility.yul\":10496:10915   */\n    tag_97:\n        /* \"#utility.yul\":10662:10666   */\n      0x00\n        /* \"#utility.yul\":10700:10702   */\n      0x20\n        /* \"#utility.yul\":10689:10698   */\n      dup3\n        /* \"#utility.yul\":10685:10703   */\n      add\n        /* \"#utility.yul\":10677:10703   */\n      swap1\n      pop\n        /* \"#utility.yul\":10749:10758   */\n      dup2\n        /* \"#utility.yul\":10743:10747   */\n      dup2\n        /* \"#utility.yul\":10739:10759   */\n      sub\n        /* \"#utility.yul\":10735:10736   */\n      0x00\n        /* \"#utility.yul\":10724:10733   */\n      dup4\n        /* \"#utility.yul\":10720:10737   */\n      add\n        /* \"#utility.yul\":10713:10760   */\n      mstore\n        /* \"#utility.yul\":10777:10908   */\n      tag_349\n        /* \"#utility.yul\":10903:10907   */\n      dup2\n        /* \"#utility.yul\":10777:10908   */\n      tag_235\n      jump\t// in\n    tag_349:\n        /* \"#utility.yul\":10769:10908   */\n      swap1\n      pop\n        /* \"#utility.yul\":10496:10915   */\n      swap2\n      swap1\n      pop\n      jump\t// out\n        /* \"#utility.yul\":10921:11351   */\n    tag_99:\n        /* \"#utility.yul\":11064:11068   */\n      0x00\n        /* \"#utility.yul\":11102:11104   */\n      0x60\n        /* \"#utility.yul\":11091:11100   */\n      dup3\n        /* \"#utility.yul\":11087:11105   */\n      add\n        /* \"#utility.yul\":11079:11105   */\n      swap1\n      pop\n        /* \"#utility.yul\":11115:11186   */\n      tag_351\n        /* \"#utility.yul\":11183:11184   */\n      0x00\n        /* \"#utility.yul\":11172:11181   */\n      dup4\n        /* \"#utility.yul\":11168:11185   */\n      add\n        /* \"#utility.yul\":11159:11165   */\n      dup7\n        /* \"#utility.yul\":11115:11186   */\n      tag_201\n      jump\t// in\n    tag_351:\n        /* \"#utility.yul\":11196:11268   */\n      tag_352\n        /* \"#utility.yul\":11264:11266   */\n      0x20\n        /* \"#utility.yul\":11253:11262   */\n      dup4\n        /* \"#utility.yul\":11249:11267   */\n      add\n        /* \"#utility.yul\":11240:11246   */\n      dup6\n        /* \"#utility.yul\":11196:11268   */\n      tag_201\n      jump\t// in\n    tag_352:\n        /* \"#utility.yul\":11278:11344   */\n      tag_353\n        /* \"#utility.yul\":11340:11342   */\n      0x40\n        /* \"#utility.yul\":11329:11338   */\n      dup4\n        /* \"#utility.yul\":11325:11343   */\n      add\n        /* \"#utility.yul\":11316:11322   */\n      dup5\n        /* \"#utility.yul\":11278:11344   */\n      tag_210\n      jump\t// in\n    tag_353:\n        /* \"#utility.yul\":10921:11351   */\n      swap5\n      swap4\n      pop\n      pop\n      pop\n      pop\n      jump\t// out\n        /* \"#utility.yul\":11357:11580   */\n    tag_236:\n        /* \"#utility.yul\":11497:11531   */\n      0x446f6e6174696f6e206973206e6f7420616c6c6f776564206174207468697320\n        /* \"#utility.yul\":11493:11494   */\n      0x00\n        /* \"#utility.yul\":11485:11491   */\n      dup3\n        /* \"#utility.yul\":11481:11495   */\n      add\n        /* \"#utility.yul\":11474:11532   */\n      mstore\n        /* \"#utility.yul\":11566:11572   */\n      0x74696d6500000000000000000000000000000000000000000000000000000000\n        /* \"#utility.yul\":11561:11563   */\n      0x20\n        /* \"#utility.yul\":11553:11559   */\n      dup3\n        /* \"#utility.yul\":11549:11564   */\n      add\n        /* \"#utility.yul\":11542:11573   */\n      mstore\n        /* \"#utility.yul\":11357:11580   */\n      pop\n      jump\t// out\n        /* \"#utility.yul\":11586:11952   */\n    tag_237:\n        /* \"#utility.yul\":11728:11731   */\n      0x00\n        /* \"#utility.yul\":11749:11816   */\n      tag_356\n        /* \"#utility.yul\":11813:11815   */\n      0x24\n        /* \"#utility.yul\":11808:11811   */\n      dup4\n        /* \"#utility.yul\":11749:11816   */\n      tag_229\n      jump\t// in\n    tag_356:\n        /* \"#utility.yul\":11742:11816   */\n      swap2\n      pop\n        /* \"#utility.yul\":11825:11918   */\n      tag_357\n        /* \"#utility.yul\":11914:11917   */\n      dup3\n        /* \"#utility.yul\":11825:11918   */\n      tag_236\n      jump\t// in\n    tag_357:\n        /* \"#utility.yul\":11943:11945   */\n      0x40\n        /* \"#utility.yul\":11938:11941   */\n      dup3\n        /* \"#utility.yul\":11934:11946   */\n      add\n        /* \"#utility.yul\":11927:11946   */\n      swap1\n      pop\n        /* \"#utility.yul\":11586:11952   */\n      swap2\n      swap1\n      pop\n      jump\t// out\n        /* \"#utility.yul\":11958:12377   */\n    tag_105:\n        /* \"#utility.yul\":12124:12128   */\n      0x00\n        /* \"#utility.yul\":12162:12164   */\n      0x20\n        /* \"#utility.yul\":12151:12160   */\n      dup3\n        /* \"#utility.yul\":12147:12165   */\n      add\n        /* \"#utility.yul\":12139:12165   */\n      swap1\n      pop\n        /* \"#utility.yul\":12211:12220   */\n      dup2\n        /* \"#utility.yul\":12205:12209   */\n      dup2\n        /* \"#utility.yul\":12201:12221   */\n      sub\n        /* \"#utility.yul\":12197:12198   */\n      0x00\n        /* \"#utility.yul\":12186:12195   */\n      dup4\n        /* \"#utility.yul\":12182:12199   */\n      add\n        /* \"#utility.yul\":12175:12222   */\n      mstore\n        /* \"#utility.yul\":12239:12370   */\n      tag_359\n        /* \"#utility.yul\":12365:12369   */\n      dup2\n        /* \"#utility.yul\":12239:12370   */\n      tag_237\n      jump\t// in\n    tag_359:\n        /* \"#utility.yul\":12231:12370   */\n      swap1\n      pop\n        /* \"#utility.yul\":11958:12377   */\n      swap2\n      swap1\n      pop\n      jump\t// out\n        /* \"#utility.yul\":12383:12608   */\n    tag_238:\n        /* \"#utility.yul\":12523:12557   */\n      0x646f6e6f7220616d6f756e74206d757374206265206772656174657220746861\n        /* \"#utility.yul\":12519:12520   */\n      0x00\n        /* \"#utility.yul\":12511:12517   */\n      dup3\n        /* \"#utility.yul\":12507:12521   */\n      add\n        /* \"#utility.yul\":12500:12558   */\n      mstore\n        /* \"#utility.yul\":12592:12600   */\n      0x6e207a65726f0000000000000000000000000000000000000000000000000000\n        /* \"#utility.yul\":12587:12589   */\n      0x20\n        /* \"#utility.yul\":12579:12585   */\n      dup3\n        /* \"#utility.yul\":12575:12590   */\n      add\n        /* \"#utility.yul\":12568:12601   */\n      mstore\n        /* \"#utility.yul\":12383:12608   */\n      pop\n      jump\t// out\n        /* \"#utility.yul\":12614:12980   */\n    tag_239:\n        /* \"#utility.yul\":12756:12759   */\n      0x00\n        /* \"#utility.yul\":12777:12844   */\n      tag_362\n        /* \"#utility.yul\":12841:12843   */\n      0x26\n        /* \"#utility.yul\":12836:12839   */\n      dup4\n        /* \"#utility.yul\":12777:12844   */\n      tag_229\n      jump\t// in\n    tag_362:\n        /* \"#utility.yul\":12770:12844   */\n      swap2\n      pop\n        /* \"#utility.yul\":12853:12946   */\n      tag_363\n        /* \"#utility.yul\":12942:12945   */\n      dup3\n        /* \"#utility.yul\":12853:12946   */\n      tag_238\n      jump\t// in\n    tag_363:\n        /* \"#utility.yul\":12971:12973   */\n      0x40\n        /* \"#utility.yul\":12966:12969   */\n      dup3\n        /* \"#utility.yul\":12962:12974   */\n      add\n        /* \"#utility.yul\":12955:12974   */\n      swap1\n      pop\n        /* \"#utility.yul\":12614:12980   */\n      swap2\n      swap1\n      pop\n      jump\t// out\n        /* \"#utility.yul\":12986:13405   */\n    tag_109:\n        /* \"#utility.yul\":13152:13156   */\n      0x00\n        /* \"#utility.yul\":13190:13192   */\n      0x20\n        /* \"#utility.yul\":13179:13188   */\n      dup3\n        /* \"#utility.yul\":13175:13193   */\n      add\n        /* \"#utility.yul\":13167:13193   */\n      swap1\n      pop\n        /* \"#utility.yul\":13239:13248   */\n      dup2\n        /* \"#utility.yul\":13233:13237   */\n      dup2\n        /* \"#utility.yul\":13229:13249   */\n      sub\n        /* \"#utility.yul\":13225:13226   */\n      0x00\n        /* \"#utility.yul\":13214:13223   */\n      dup4\n        /* \"#utility.yul\":13210:13227   */\n      add\n        /* \"#utility.yul\":13203:13250   */\n      mstore\n        /* \"#utility.yul\":13267:13398   */\n      tag_365\n        /* \"#utility.yul\":13393:13397   */\n      dup2\n        /* \"#utility.yul\":13267:13398   */\n      tag_239\n      jump\t// in\n    tag_365:\n        /* \"#utility.yul\":13259:13398   */\n      swap1\n      pop\n        /* \"#utility.yul\":12986:13405   */\n      swap2\n      swap1\n      pop\n      jump\t// out\n        /* \"#utility.yul\":13411:13591   */\n    tag_240:\n        /* \"#utility.yul\":13459:13536   */\n      0x4e487b7100000000000000000000000000000000000000000000000000000000\n        /* \"#utility.yul\":13456:13457   */\n      0x00\n        /* \"#utility.yul\":13449:13537   */\n      mstore\n        /* \"#utility.yul\":13556:13560   */\n      0x11\n        /* \"#utility.yul\":13553:13554   */\n      0x04\n        /* \"#utility.yul\":13546:13561   */\n      mstore\n        /* \"#utility.yul\":13580:13584   */\n      0x24\n        /* \"#utility.yul\":13577:13578   */\n      0x00\n        /* \"#utility.yul\":13570:13585   */\n      revert\n        /* \"#utility.yul\":13597:13788   */\n    tag_113:\n        /* \"#utility.yul\":13637:13640   */\n      0x00\n        /* \"#utility.yul\":13656:13676   */\n      tag_368\n        /* \"#utility.yul\":13674:13675   */\n      dup3\n        /* \"#utility.yul\":13656:13676   */\n      tag_200\n      jump\t// in\n    tag_368:\n        /* \"#utility.yul\":13651:13676   */\n      swap2\n      pop\n        /* \"#utility.yul\":13690:13710   */\n      tag_369\n        /* \"#utility.yul\":13708:13709   */\n      dup4\n        /* \"#utility.yul\":13690:13710   */\n      tag_200\n      jump\t// in\n    tag_369:\n        /* \"#utility.yul\":13685:13710   */\n      swap3\n      pop\n        /* \"#utility.yul\":13733:13734   */\n      dup3\n        /* \"#utility.yul\":13730:13731   */\n      dup3\n        /* \"#utility.yul\":13726:13735   */\n      add\n        /* \"#utility.yul\":13719:13735   */\n      swap1\n      pop\n        /* \"#utility.yul\":13754:13757   */\n      dup1\n        /* \"#utility.yul\":13751:13752   */\n      dup3\n        /* \"#utility.yul\":13748:13758   */\n      gt\n        /* \"#utility.yul\":13745:13781   */\n      iszero\n      tag_370\n      jumpi\n        /* \"#utility.yul\":13761:13779   */\n      tag_371\n      tag_240\n      jump\t// in\n    tag_371:\n        /* \"#utility.yul\":13745:13781   */\n    tag_370:\n        /* \"#utility.yul\":13597:13788   */\n      swap3\n      swap2\n      pop\n      pop\n      jump\t// out\n        /* \"#utility.yul\":13794:13962   */\n    tag_241:\n        /* \"#utility.yul\":13934:13954   */\n      0x496e76616c696420746f704e2076616c75650000000000000000000000000000\n        /* \"#utility.yul\":13930:13931   */\n      0x00\n        /* \"#utility.yul\":13922:13928   */\n      dup3\n        /* \"#utility.yul\":13918:13932   */\n      add\n        /* \"#utility.yul\":13911:13955   */\n      mstore\n        /* \"#utility.yul\":13794:13962   */\n      pop\n      jump\t// out\n        /* \"#utility.yul\":13968:14334   */\n    tag_242:\n        /* \"#utility.yul\":14110:14113   */\n      0x00\n        /* \"#utility.yul\":14131:14198   */\n      tag_374\n        /* \"#utility.yul\":14195:14197   */\n      0x12\n        /* \"#utility.yul\":14190:14193   */\n      dup4\n        /* \"#utility.yul\":14131:14198   */\n      tag_229\n      jump\t// in\n    tag_374:\n        /* \"#utility.yul\":14124:14198   */\n      swap2\n      pop\n        /* \"#utility.yul\":14207:14300   */\n      tag_375\n        /* \"#utility.yul\":14296:14299   */\n      dup3\n        /* \"#utility.yul\":14207:14300   */\n      tag_241\n      jump\t// in\n    tag_375:\n        /* \"#utility.yul\":14325:14327   */\n      0x20\n        /* \"#utility.yul\":14320:14323   */\n      dup3\n        /* \"#utility.yul\":14316:14328   */\n      add\n        /* \"#utility.yul\":14309:14328   */\n      swap1\n      pop\n        /* \"#utility.yul\":13968:14334   */\n      swap2\n      swap1\n      pop\n      jump\t// out\n        /* \"#utility.yul\":14340:14759   */\n    tag_120:\n        /* \"#utility.yul\":14506:14510   */\n      0x00\n        /* \"#utility.yul\":14544:14546   */\n      0x20\n        /* \"#utility.yul\":14533:14542   */\n      dup3\n        /* \"#utility.yul\":14529:14547   */\n      add\n        /* \"#utility.yul\":14521:14547   */\n      swap1\n      pop\n        /* \"#utility.yul\":14593:14602   */\n      dup2\n        /* \"#utility.yul\":14587:14591   */\n      dup2\n        /* \"#utility.yul\":14583:14603   */\n      sub\n        /* \"#utility.yul\":14579:14580   */\n      0x00\n        /* \"#utility.yul\":14568:14577   */\n      dup4\n        /* \"#utility.yul\":14564:14581   */\n      add\n        /* \"#utility.yul\":14557:14604   */\n      mstore\n        /* \"#utility.yul\":14621:14752   */\n      tag_377\n        /* \"#utility.yul\":14747:14751   */\n      dup2\n        /* \"#utility.yul\":14621:14752   */\n      tag_242\n      jump\t// in\n    tag_377:\n        /* \"#utility.yul\":14613:14752   */\n      swap1\n      pop\n        /* \"#utility.yul\":14340:14759   */\n      swap2\n      swap1\n      pop\n      jump\t// out\n        /* \"#utility.yul\":14765:14945   */\n    tag_123:\n        /* \"#utility.yul\":14813:14890   */\n      0x4e487b7100000000000000000000000000000000000000000000000000000000\n        /* \"#utility.yul\":14810:14811   */\n      0x00\n        /* \"#utility.yul\":14803:14891   */\n      mstore\n        /* \"#utility.yul\":14910:14914   */\n      0x41\n        /* \"#utility.yul\":14907:14908   */\n      0x04\n        /* \"#utility.yul\":14900:14915   */\n      mstore\n        /* \"#utility.yul\":14934:14938   */\n      0x24\n        /* \"#utility.yul\":14931:14932   */\n      0x00\n        /* \"#utility.yul\":14924:14939   */\n      revert\n        /* \"#utility.yul\":14951:15131   */\n    tag_133:\n        /* \"#utility.yul\":14999:15076   */\n      0x4e487b7100000000000000000000000000000000000000000000000000000000\n        /* \"#utility.yul\":14996:14997   */\n      0x00\n        /* \"#utility.yul\":14989:15077   */\n      mstore\n        /* \"#utility.yul\":15096:15100   */\n      0x32\n        /* \"#utility.yul\":15093:15094   */\n      0x04\n        /* \"#utility.yul\":15086:15101   */\n      mstore\n        /* \"#utility.yul\":15120:15124   */\n      0x24\n        /* \"#utility.yul\":15117:15118   */\n      0x00\n        /* \"#utility.yul\":15110:15125   */\n      revert\n        /* \"#utility.yul\":15137:15331   */\n    tag_146:\n        /* \"#utility.yul\":15177:15181   */\n      0x00\n        /* \"#utility.yul\":15197:15217   */\n      tag_381\n        /* \"#utility.yul\":15215:15216   */\n      dup3\n        /* \"#utility.yul\":15197:15217   */\n      tag_200\n      jump\t// in\n    tag_381:\n        /* \"#utility.yul\":15192:15217   */\n      swap2\n      pop\n        /* \"#utility.yul\":15231:15251   */\n      tag_382\n        /* \"#utility.yul\":15249:15250   */\n      dup4\n        /* \"#utility.yul\":15231:15251   */\n      tag_200\n      jump\t// in\n    tag_382:\n        /* \"#utility.yul\":15226:15251   */\n      swap3\n      pop\n        /* \"#utility.yul\":15275:15276   */\n      dup3\n        /* \"#utility.yul\":15272:15273   */\n      dup3\n        /* \"#utility.yul\":15268:15277   */\n      sub\n        /* \"#utility.yul\":15260:15277   */\n      swap1\n      pop\n        /* \"#utility.yul\":15299:15300   */\n      dup2\n        /* \"#utility.yul\":15293:15297   */\n      dup2\n        /* \"#utility.yul\":15290:15301   */\n      gt\n        /* \"#utility.yul\":15287:15324   */\n      iszero\n      tag_383\n      jumpi\n        /* \"#utility.yul\":15304:15322   */\n      tag_384\n      tag_240\n      jump\t// in\n    tag_384:\n        /* \"#utility.yul\":15287:15324   */\n    tag_383:\n        /* \"#utility.yul\":15137:15331   */\n      swap3\n      swap2\n      pop\n      pop\n      jump\t// out\n        /* \"#utility.yul\":15337:15518   */\n    tag_243:\n        /* \"#utility.yul\":15477:15510   */\n      0x5265656e7472616e637947756172643a207265656e7472616e742063616c6c00\n        /* \"#utility.yul\":15473:15474   */\n      0x00\n        /* \"#utility.yul\":15465:15471   */\n      dup3\n        /* \"#utility.yul\":15461:15475   */\n      add\n        /* \"#utility.yul\":15454:15511   */\n      mstore\n        /* \"#utility.yul\":15337:15518   */\n      pop\n      jump\t// out\n        /* \"#utility.yul\":15524:15890   */\n    tag_244:\n        /* \"#utility.yul\":15666:15669   */\n      0x00\n        /* \"#utility.yul\":15687:15754   */\n      tag_387\n        /* \"#utility.yul\":15751:15753   */\n      0x1f\n        /* \"#utility.yul\":15746:15749   */\n      dup4\n        /* \"#utility.yul\":15687:15754   */\n      tag_229\n      jump\t// in\n    tag_387:\n        /* \"#utility.yul\":15680:15754   */\n      swap2\n      pop\n        /* \"#utility.yul\":15763:15856   */\n      tag_388\n        /* \"#utility.yul\":15852:15855   */\n      dup3\n        /* \"#utility.yul\":15763:15856   */\n      tag_243\n      jump\t// in\n    tag_388:\n        /* \"#utility.yul\":15881:15883   */\n      0x20\n        /* \"#utility.yul\":15876:15879   */\n      dup3\n        /* \"#utility.yul\":15872:15884   */\n      add\n        /* \"#utility.yul\":15865:15884   */\n      swap1\n      pop\n        /* \"#utility.yul\":15524:15890   */\n      swap2\n      swap1\n      pop\n      jump\t// out\n        /* \"#utility.yul\":15896:16315   */\n    tag_198:\n        /* \"#utility.yul\":16062:16066   */\n      0x00\n        /* \"#utility.yul\":16100:16102   */\n      0x20\n        /* \"#utility.yul\":16089:16098   */\n      dup3\n        /* \"#utility.yul\":16085:16103   */\n      add\n        /* \"#utility.yul\":16077:16103   */\n      swap1\n      pop\n        /* \"#utility.yul\":16149:16158   */\n      dup2\n        /* \"#utility.yul\":16143:16147   */\n      dup2\n        /* \"#utility.yul\":16139:16159   */\n      sub\n        /* \"#utility.yul\":16135:16136   */\n      0x00\n        /* \"#utility.yul\":16124:16133   */\n      dup4\n        /* \"#utility.yul\":16120:16137   */\n      add\n        /* \"#utility.yul\":16113:16160   */\n      mstore\n        /* \"#utility.yul\":16177:16308   */\n      tag_390\n        /* \"#utility.yul\":16303:16307   */\n      dup2\n        /* \"#utility.yul\":16177:16308   */\n      tag_244\n      jump\t// in\n    tag_390:\n        /* \"#utility.yul\":16169:16308   */\n      swap1\n      pop\n        /* \"#utility.yul\":15896:16315   */\n      swap2\n      swap1\n      pop\n      jump\t// out\n\n    auxdata: 0xa26469706673582212201c62a48d3331a5bc73521a522083022114bb30a52a614e858002c62c571677ce64736f6c634300081e0033\n}\n",
				"bytecode": {
					"linkReferences": {},
					"object": "608060405234801561000f575f5ffd5b5060015f819055503360015f6101000a81548173ffffffffffffffffffffffffffffffffffffffff021916908373ffffffffffffffffffffffffffffffffffffffff160217905550426005819055506276a7004261006d91906100c7565b6006819055505f60075f6101000a81548160ff0219169083151502179055506100fa565b5f819050919050565b7f4e487b71000000000000000000000000000000000000000000000000000000005f52601160045260245ffd5b5f6100d182610091565b91506100dc83610091565b92508282019050808211156100f4576100f361009a565b5b92915050565b611677806101075f395ff3fe60806040526004361061009f575f3560e01c806363a599a41161006357806363a599a41461017b5780637833155214610191578063a601c624146101bb578063ed88c68e146101e3578063f12a4a5314610201578063f5d1282b1461022b576100a0565b806312065fe0146100a2578063285109d1146100cc5780633ccfd60b146100f7578063410a1d32146101155780635e068de114610151576100a0565b5b005b3480156100ad575f5ffd5b506100b6610268565b6040516100c39190610e57565b60405180910390f35b3480156100d7575f5ffd5b506100e061026f565b6040516100ee929190610e70565b60405180910390f35b6100ff610282565b60405161010c9190610e57565b60405180910390f35b348015610120575f5ffd5b5061013b60048036038101906101369190610ef5565b6103d4565b6040516101489190610e57565b60405180910390f35b34801561015c575f5ffd5b5061016561041a565b6040516101729190610f3a565b60405180910390f35b348015610186575f5ffd5b5061018f61042c565b005b34801561019c575f5ffd5b506101a56104de565b6040516101b29190610e57565b60405180910390f35b3480156101c6575f5ffd5b506101e160048036038101906101dc9190610fa7565b6104e4565b005b6101eb61061c565b6040516101f89190610f3a565b60405180910390f35b34801561020c575f5ffd5b5061021561082e565b6040516102229190610e57565b60405180910390f35b348015610236575f5ffd5b50610251600480360381019061024c9190610ff7565b610834565b60405161025f929190611190565b60405180910390f35b5f47905090565b5f5f600254600480549050915091509091565b5f3373ffffffffffffffffffffffffffffffffffffffff1660015f9054906101000a900473ffffffffffffffffffffffffffffffffffffffff1673ffffffffffffffffffffffffffffffffffffffff1614610312576040517f08c379a00000000000000000000000000000000000000000000000000000000081526004016103099061121f565b60405180910390fd5b61031a610de9565b5f4790505f8111610360576040517f08c379a000000000000000000000000000000000000000000000000000000000815260040161035790611287565b60405180910390fd5b60015f9054906101000a900473ffffffffffffffffffffffffffffffffffffffff1673ffffffffffffffffffffffffffffffffffffffff166108fc8290811502906040515f60405180830381858888f193505050501580156103c4573d5f5f3e3d5ffd5b50809150506103d1610e36565b90565b5f60035f8373ffffffffffffffffffffffffffffffffffffffff1673ffffffffffffffffffffffffffffffffffffffff1681526020019081526020015f20549050919050565b60075f9054906101000a900460ff1681565b3373ffffffffffffffffffffffffffffffffffffffff1660015f9054906101000a900473ffffffffffffffffffffffffffffffffffffffff1673ffffffffffffffffffffffffffffffffffffffff16146104bb576040517f08c379a00000000000000000000000000000000000000000000000000000000081526004016104b29061121f565b60405180910390fd5b600160075f6101000a81548160ff02191690831515021790555042600681905550565b60055481565b3373ffffffffffffffffffffffffffffffffffffffff1660015f9054906101000a900473ffffffffffffffffffffffffffffffffffffffff1673ffffffffffffffffffffffffffffffffffffffff1614610573576040517f08c379a000000000000000000000000000000000000000000000000000000000815260040161056a9061121f565b60405180910390fd5b8183106105b5576040517f08c379a00000000000000000000000000000000000000000000000000000000081526004016105ac90611315565b60405180910390fd5b82600581905550816006819055508060075f6101000a81548160ff0219169083151502179055507f481593f763953be7bb16523cf5f9b6243e7ff3194d3bc9f7e286413df4257a5e83838360405161060f93929190611333565b60405180910390a1505050565b5f60075f9054906101000a900460ff161561068557600554421015801561064557506006544211155b610684576040517f08c379a000000000000000000000000000000000000000000000000000000000815260040161067b906113d8565b60405180910390fd5b5b5f34116106c7576040517f08c379a00000000000000000000000000000000000000000000000000000000081526004016106be90611466565b60405180910390fd5b5f60035f3373ffffffffffffffffffffffffffffffffffffffff1673ffffffffffffffffffffffffffffffffffffffff1681526020019081526020015f20540361076c57600433908060018154018082558091505060019003905f5260205f20015f9091909190916101000a81548173ffffffffffffffffffffffffffffffffffffffff021916908373ffffffffffffffffffffffffffffffffffffffff1602179055505b3460025f82825461077d91906114b1565b925050819055503460035f3373ffffffffffffffffffffffffffffffffffffffff1673ffffffffffffffffffffffffffffffffffffffff1681526020019081526020015f205f8282546107d091906114b1565b925050819055503373ffffffffffffffffffffffffffffffffffffffff167f106aac375bbcf013d1e52338bbf9e740009a1a3a6869f8daa1b72aa1620f5fec344260405161081f929190610e70565b60405180910390a26001905090565b60065481565b6060805f8311801561084b57506004805490508311155b61088a576040517f08c379a00000000000000000000000000000000000000000000000000000000081526004016108819061152e565b60405180910390fd5b5f60048054905067ffffffffffffffff8111156108aa576108a961154c565b5b6040519080825280602002602001820160405280156108d85781602001602082028036833780820191505090505b5090505f60048054905067ffffffffffffffff8111156108fb576108fa61154c565b5b6040519080825280602002602001820160405280156109295781602001602082028036833780820191505090505b5090505f5f90505b600480549050811015610a6c576004818154811061095257610951611579565b5b905f5260205f20015f9054906101000a900473ffffffffffffffffffffffffffffffffffffffff1683828151811061098d5761098c611579565b5b602002602001019073ffffffffffffffffffffffffffffffffffffffff16908173ffffffffffffffffffffffffffffffffffffffff168152505060035f600483815481106109de576109dd611579565b5b905f5260205f20015f9054906101000a900473ffffffffffffffffffffffffffffffffffffffff1673ffffffffffffffffffffffffffffffffffffffff1673ffffffffffffffffffffffffffffffffffffffff1681526020019081526020015f2054828281518110610a5357610a52611579565b5b6020026020010181815250508080600101915050610931565b505f5f90505b60018351610a8091906115a6565b811015610c8e575f5f90505b8160018551610a9b91906115a6565b610aa591906115a6565b811015610c805782600182610aba91906114b1565b81518110610acb57610aca611579565b5b6020026020010151838281518110610ae657610ae5611579565b5b60200260200101511015610c73575f838281518110610b0857610b07611579565b5b6020026020010151905083600183610b2091906114b1565b81518110610b3157610b30611579565b5b6020026020010151848381518110610b4c57610b4b611579565b5b6020026020010181815250508084600184610b6791906114b1565b81518110610b7857610b77611579565b5b6020026020010181815250505f858381518110610b9857610b97611579565b5b6020026020010151905085600184610bb091906114b1565b81518110610bc157610bc0611579565b5b6020026020010151868481518110610bdc57610bdb611579565b5b602002602001019073ffffffffffffffffffffffffffffffffffffffff16908173ffffffffffffffffffffffffffffffffffffffff16815250508086600185610c2591906114b1565b81518110610c3657610c35611579565b5b602002602001019073ffffffffffffffffffffffffffffffffffffffff16908173ffffffffffffffffffffffffffffffffffffffff168152505050505b8080600101915050610a8c565b508080600101915050610a72565b508467ffffffffffffffff811115610ca957610ca861154c565b5b604051908082528060200260200182016040528015610cd75781602001602082028036833780820191505090505b5093508467ffffffffffffffff811115610cf457610cf361154c565b5b604051908082528060200260200182016040528015610d225781602001602082028036833780820191505090505b5092505f5f90505b85811015610de157828181518110610d4557610d44611579565b5b6020026020010151858281518110610d6057610d5f611579565b5b602002602001019073ffffffffffffffffffffffffffffffffffffffff16908173ffffffffffffffffffffffffffffffffffffffff1681525050818181518110610dad57610dac611579565b5b6020026020010151848281518110610dc857610dc7611579565b5b6020026020010181815250508080600101915050610d2a565b505050915091565b60025f5403610e2d576040517f08c379a0000000000000000000000000000000000000000000000000000000008152600401610e2490611623565b60405180910390fd5b60025f81905550565b60015f81905550565b5f819050919050565b610e5181610e3f565b82525050565b5f602082019050610e6a5f830184610e48565b92915050565b5f604082019050610e835f830185610e48565b610e906020830184610e48565b9392505050565b5f5ffd5b5f73ffffffffffffffffffffffffffffffffffffffff82169050919050565b5f610ec482610e9b565b9050919050565b610ed481610eba565b8114610ede575f5ffd5b50565b5f81359050610eef81610ecb565b92915050565b5f60208284031215610f0a57610f09610e97565b5b5f610f1784828501610ee1565b91505092915050565b5f8115159050919050565b610f3481610f20565b82525050565b5f602082019050610f4d5f830184610f2b565b92915050565b610f5c81610e3f565b8114610f66575f5ffd5b50565b5f81359050610f7781610f53565b92915050565b610f8681610f20565b8114610f90575f5ffd5b50565b5f81359050610fa181610f7d565b92915050565b5f5f5f60608486031215610fbe57610fbd610e97565b5b5f610fcb86828701610f69565b9350506020610fdc86828701610f69565b9250506040610fed86828701610f93565b9150509250925092565b5f6020828403121561100c5761100b610e97565b5b5f61101984828501610f69565b91505092915050565b5f81519050919050565b5f82825260208201905092915050565b5f819050602082019050919050565b61105481610eba565b82525050565b5f611065838361104b565b60208301905092915050565b5f602082019050919050565b5f61108782611022565b611091818561102c565b935061109c8361103c565b805f5b838110156110cc5781516110b3888261105a565b97506110be83611071565b92505060018101905061109f565b5085935050505092915050565b5f81519050919050565b5f82825260208201905092915050565b5f819050602082019050919050565b61110b81610e3f565b82525050565b5f61111c8383611102565b60208301905092915050565b5f602082019050919050565b5f61113e826110d9565b61114881856110e3565b9350611153836110f3565b805f5b8381101561118357815161116a8882611111565b975061117583611128565b925050600181019050611156565b5085935050505092915050565b5f6040820190508181035f8301526111a8818561107d565b905081810360208301526111bc8184611134565b90509392505050565b5f82825260208201905092915050565b7f6f6e6c79206f776e65722063616e206f706572617465000000000000000000005f82015250565b5f6112096016836111c5565b9150611214826111d5565b602082019050919050565b5f6020820190508181035f830152611236816111fd565b9050919050565b7f776974686472617720616d6f756e74206973207a65726f0000000000000000005f82015250565b5f6112716017836111c5565b915061127c8261123d565b602082019050919050565b5f6020820190508181035f83015261129e81611265565b9050919050565b7f456e642074696d65206d7573742062652061667465722073746172742074696d5f8201527f6500000000000000000000000000000000000000000000000000000000000000602082015250565b5f6112ff6021836111c5565b915061130a826112a5565b604082019050919050565b5f6020820190508181035f83015261132c816112f3565b9050919050565b5f6060820190506113465f830186610e48565b6113536020830185610e48565b6113606040830184610f2b565b949350505050565b7f446f6e6174696f6e206973206e6f7420616c6c6f7765642061742074686973205f8201527f74696d6500000000000000000000000000000000000000000000000000000000602082015250565b5f6113c26024836111c5565b91506113cd82611368565b604082019050919050565b5f6020820190508181035f8301526113ef816113b6565b9050919050565b7f646f6e6f7220616d6f756e74206d7573742062652067726561746572207468615f8201527f6e207a65726f0000000000000000000000000000000000000000000000000000602082015250565b5f6114506026836111c5565b915061145b826113f6565b604082019050919050565b5f6020820190508181035f83015261147d81611444565b9050919050565b7f4e487b71000000000000000000000000000000000000000000000000000000005f52601160045260245ffd5b5f6114bb82610e3f565b91506114c683610e3f565b92508282019050808211156114de576114dd611484565b5b92915050565b7f496e76616c696420746f704e2076616c756500000000000000000000000000005f82015250565b5f6115186012836111c5565b9150611523826114e4565b602082019050919050565b5f6020820190508181035f8301526115458161150c565b9050919050565b7f4e487b71000000000000000000000000000000000000000000000000000000005f52604160045260245ffd5b7f4e487b71000000000000000000000000000000000000000000000000000000005f52603260045260245ffd5b5f6115b082610e3f565b91506115bb83610e3f565b92508282039050818111156115d3576115d2611484565b5b92915050565b7f5265656e7472616e637947756172643a207265656e7472616e742063616c6c005f82015250565b5f61160d601f836111c5565b9150611618826115d9565b602082019050919050565b5f6020820190508181035f83015261163a81611601565b905091905056fea26469706673582212201c62a48d3331a5bc73521a522083022114bb30a52a614e858002c62c571677ce64736f6c634300081e0033",
					"opcodes": "PUSH1 0x80 PUSH1 0x40 MSTORE CALLVALUE DUP1 ISZERO PUSH2 0xF JUMPI PUSH0 PUSH0 REVERT JUMPDEST POP PUSH1 0x1 PUSH0 DUP2 SWAP1 SSTORE POP CALLER PUSH1 0x1 PUSH0 PUSH2 0x100 EXP DUP2 SLOAD DUP2 PUSH20 0xFFFFFFFFFFFFFFFFFFFFFFFFFFFFFFFFFFFFFFFF MUL NOT AND SWAP1 DUP4 PUSH20 0xFFFFFFFFFFFFFFFFFFFFFFFFFFFFFFFFFFFFFFFF AND MUL OR SWAP1 SSTORE POP TIMESTAMP PUSH1 0x5 DUP2 SWAP1 SSTORE POP PUSH3 0x76A700 TIMESTAMP PUSH2 0x6D SWAP2 SWAP1 PUSH2 0xC7 JUMP JUMPDEST PUSH1 0x6 DUP2 SWAP1 SSTORE POP PUSH0 PUSH1 0x7 PUSH0 PUSH2 0x100 EXP DUP2 SLOAD DUP2 PUSH1 0xFF MUL NOT AND SWAP1 DUP4 ISZERO ISZERO MUL OR SWAP1 SSTORE POP PUSH2 0xFA JUMP JUMPDEST PUSH0 DUP2 SWAP1 POP SWAP2 SWAP1 POP JUMP JUMPDEST PUSH32 0x4E487B7100000000000000000000000000000000000000000000000000000000 PUSH0 MSTORE PUSH1 0x11 PUSH1 0x4 MSTORE PUSH1 0x24 PUSH0 REVERT JUMPDEST PUSH0 PUSH2 0xD1 DUP3 PUSH2 0x91 JUMP JUMPDEST SWAP2 POP PUSH2 0xDC DUP4 PUSH2 0x91 JUMP JUMPDEST SWAP3 POP DUP3 DUP3 ADD SWAP1 POP DUP1 DUP3 GT ISZERO PUSH2 0xF4 JUMPI PUSH2 0xF3 PUSH2 0x9A JUMP JUMPDEST JUMPDEST SWAP3 SWAP2 POP POP JUMP JUMPDEST PUSH2 0x1677 DUP1 PUSH2 0x107 PUSH0 CODECOPY PUSH0 RETURN INVALID PUSH1 0x80 PUSH1 0x40 MSTORE PUSH1 0x4 CALLDATASIZE LT PUSH2 0x9F JUMPI PUSH0 CALLDATALOAD PUSH1 0xE0 SHR DUP1 PUSH4 0x63A599A4 GT PUSH2 0x63 JUMPI DUP1 PUSH4 0x63A599A4 EQ PUSH2 0x17B JUMPI DUP1 PUSH4 0x78331552 EQ PUSH2 0x191 JUMPI DUP1 PUSH4 0xA601C624 EQ PUSH2 0x1BB JUMPI DUP1 PUSH4 0xED88C68E EQ PUSH2 0x1E3 JUMPI DUP1 PUSH4 0xF12A4A53 EQ PUSH2 0x201 JUMPI DUP1 PUSH4 0xF5D1282B EQ PUSH2 0x22B JUMPI PUSH2 0xA0 JUMP JUMPDEST DUP1 PUSH4 0x12065FE0 EQ PUSH2 0xA2 JUMPI DUP1 PUSH4 0x285109D1 EQ PUSH2 0xCC JUMPI DUP1 PUSH4 0x3CCFD60B EQ PUSH2 0xF7 JUMPI DUP1 PUSH4 0x410A1D32 EQ PUSH2 0x115 JUMPI DUP1 PUSH4 0x5E068DE1 EQ PUSH2 0x151 JUMPI PUSH2 0xA0 JUMP JUMPDEST JUMPDEST STOP JUMPDEST CALLVALUE DUP1 ISZERO PUSH2 0xAD JUMPI PUSH0 PUSH0 REVERT JUMPDEST POP PUSH2 0xB6 PUSH2 0x268 JUMP JUMPDEST PUSH1 0x40 MLOAD PUSH2 0xC3 SWAP2 SWAP1 PUSH2 0xE57 JUMP JUMPDEST PUSH1 0x40 MLOAD DUP1 SWAP2 SUB SWAP1 RETURN JUMPDEST CALLVALUE DUP1 ISZERO PUSH2 0xD7 JUMPI PUSH0 PUSH0 REVERT JUMPDEST POP PUSH2 0xE0 PUSH2 0x26F JUMP JUMPDEST PUSH1 0x40 MLOAD PUSH2 0xEE SWAP3 SWAP2 SWAP1 PUSH2 0xE70 JUMP JUMPDEST PUSH1 0x40 MLOAD DUP1 SWAP2 SUB SWAP1 RETURN JUMPDEST PUSH2 0xFF PUSH2 0x282 JUMP JUMPDEST PUSH1 0x40 MLOAD PUSH2 0x10C SWAP2 SWAP1 PUSH2 0xE57 JUMP JUMPDEST PUSH1 0x40 MLOAD DUP1 SWAP2 SUB SWAP1 RETURN JUMPDEST CALLVALUE DUP1 ISZERO PUSH2 0x120 JUMPI PUSH0 PUSH0 REVERT JUMPDEST POP PUSH2 0x13B PUSH1 0x4 DUP1 CALLDATASIZE SUB DUP2 ADD SWAP1 PUSH2 0x136 SWAP2 SWAP1 PUSH2 0xEF5 JUMP JUMPDEST PUSH2 0x3D4 JUMP JUMPDEST PUSH1 0x40 MLOAD PUSH2 0x148 SWAP2 SWAP1 PUSH2 0xE57 JUMP JUMPDEST PUSH1 0x40 MLOAD DUP1 SWAP2 SUB SWAP1 RETURN JUMPDEST CALLVALUE DUP1 ISZERO PUSH2 0x15C JUMPI PUSH0 PUSH0 REVERT JUMPDEST POP PUSH2 0x165 PUSH2 0x41A JUMP JUMPDEST PUSH1 0x40 MLOAD PUSH2 0x172 SWAP2 SWAP1 PUSH2 0xF3A JUMP JUMPDEST PUSH1 0x40 MLOAD DUP1 SWAP2 SUB SWAP1 RETURN JUMPDEST CALLVALUE DUP1 ISZERO PUSH2 0x186 JUMPI PUSH0 PUSH0 REVERT JUMPDEST POP PUSH2 0x18F PUSH2 0x42C JUMP JUMPDEST STOP JUMPDEST CALLVALUE DUP1 ISZERO PUSH2 0x19C JUMPI PUSH0 PUSH0 REVERT JUMPDEST POP PUSH2 0x1A5 PUSH2 0x4DE JUMP JUMPDEST PUSH1 0x40 MLOAD PUSH2 0x1B2 SWAP2 SWAP1 PUSH2 0xE57 JUMP JUMPDEST PUSH1 0x40 MLOAD DUP1 SWAP2 SUB SWAP1 RETURN JUMPDEST CALLVALUE DUP1 ISZERO PUSH2 0x1C6 JUMPI PUSH0 PUSH0 REVERT JUMPDEST POP PUSH2 0x1E1 PUSH1 0x4 DUP1 CALLDATASIZE SUB DUP2 ADD SWAP1 PUSH2 0x1DC SWAP2 SWAP1 PUSH2 0xFA7 JUMP JUMPDEST PUSH2 0x4E4 JUMP JUMPDEST STOP JUMPDEST PUSH2 0x1EB PUSH2 0x61C JUMP JUMPDEST PUSH1 0x40 MLOAD PUSH2 0x1F8 SWAP2 SWAP1 PUSH2 0xF3A JUMP JUMPDEST PUSH1 0x40 MLOAD DUP1 SWAP2 SUB SWAP1 RETURN JUMPDEST CALLVALUE DUP1 ISZERO PUSH2 0x20C JUMPI PUSH0 PUSH0 REVERT JUMPDEST POP PUSH2 0x215 PUSH2 0x82E JUMP JUMPDEST PUSH1 0x40 MLOAD PUSH2 0x222 SWAP2 SWAP1 PUSH2 0xE57 JUMP JUMPDEST PUSH1 0x40 MLOAD DUP1 SWAP2 SUB SWAP1 RETURN JUMPDEST CALLVALUE DUP1 ISZERO PUSH2 0x236 JUMPI PUSH0 PUSH0 REVERT JUMPDEST POP PUSH2 0x251 PUSH1 0x4 DUP1 CALLDATASIZE SUB DUP2 ADD SWAP1 PUSH2 0x24C SWAP2 SWAP1 PUSH2 0xFF7 JUMP JUMPDEST PUSH2 0x834 JUMP JUMPDEST PUSH1 0x40 MLOAD PUSH2 0x25F SWAP3 SWAP2 SWAP1 PUSH2 0x1190 JUMP JUMPDEST PUSH1 0x40 MLOAD DUP1 SWAP2 SUB SWAP1 RETURN JUMPDEST PUSH0 SELFBALANCE SWAP1 POP SWAP1 JUMP JUMPDEST PUSH0 PUSH0 PUSH1 0x2 SLOAD PUSH1 0x4 DUP1 SLOAD SWAP1 POP SWAP2 POP SWAP2 POP SWAP1 SWAP2 JUMP JUMPDEST PUSH0 CALLER PUSH20 0xFFFFFFFFFFFFFFFFFFFFFFFFFFFFFFFFFFFFFFFF AND PUSH1 0x1 PUSH0 SWAP1 SLOAD SWAP1 PUSH2 0x100 EXP SWAP1 DIV PUSH20 0xFFFFFFFFFFFFFFFFFFFFFFFFFFFFFFFFFFFFFFFF AND PUSH20 0xFFFFFFFFFFFFFFFFFFFFFFFFFFFFFFFFFFFFFFFF AND EQ PUSH2 0x312 JUMPI PUSH1 0x40 MLOAD PUSH32 0x8C379A000000000000000000000000000000000000000000000000000000000 DUP2 MSTORE PUSH1 0x4 ADD PUSH2 0x309 SWAP1 PUSH2 0x121F JUMP JUMPDEST PUSH1 0x40 MLOAD DUP1 SWAP2 SUB SWAP1 REVERT JUMPDEST PUSH2 0x31A PUSH2 0xDE9 JUMP JUMPDEST PUSH0 SELFBALANCE SWAP1 POP PUSH0 DUP2 GT PUSH2 0x360 JUMPI PUSH1 0x40 MLOAD PUSH32 0x8C379A000000000000000000000000000000000000000000000000000000000 DUP2 MSTORE PUSH1 0x4 ADD PUSH2 0x357 SWAP1 PUSH2 0x1287 JUMP JUMPDEST PUSH1 0x40 MLOAD DUP1 SWAP2 SUB SWAP1 REVERT JUMPDEST PUSH1 0x1 PUSH0 SWAP1 SLOAD SWAP1 PUSH2 0x100 EXP SWAP1 DIV PUSH20 0xFFFFFFFFFFFFFFFFFFFFFFFFFFFFFFFFFFFFFFFF AND PUSH20 0xFFFFFFFFFFFFFFFFFFFFFFFFFFFFFFFFFFFFFFFF AND PUSH2 0x8FC DUP3 SWAP1 DUP2 ISZERO MUL SWAP1 PUSH1 0x40 MLOAD PUSH0 PUSH1 0x40 MLOAD DUP1 DUP4 SUB DUP2 DUP6 DUP9 DUP9 CALL SWAP4 POP POP POP POP ISZERO DUP1 ISZERO PUSH2 0x3C4 JUMPI RETURNDATASIZE PUSH0 PUSH0 RETURNDATACOPY RETURNDATASIZE PUSH0 REVERT JUMPDEST POP DUP1 SWAP2 POP POP PUSH2 0x3D1 PUSH2 0xE36 JUMP JUMPDEST SWAP1 JUMP JUMPDEST PUSH0 PUSH1 0x3 PUSH0 DUP4 PUSH20 0xFFFFFFFFFFFFFFFFFFFFFFFFFFFFFFFFFFFFFFFF AND PUSH20 0xFFFFFFFFFFFFFFFFFFFFFFFFFFFFFFFFFFFFFFFF AND DUP2 MSTORE PUSH1 0x20 ADD SWAP1 DUP2 MSTORE PUSH1 0x20 ADD PUSH0 KECCAK256 SLOAD SWAP1 POP SWAP2 SWAP1 POP JUMP JUMPDEST PUSH1 0x7 PUSH0 SWAP1 SLOAD SWAP1 PUSH2 0x100 EXP SWAP1 DIV PUSH1 0xFF AND DUP2 JUMP JUMPDEST CALLER PUSH20 0xFFFFFFFFFFFFFFFFFFFFFFFFFFFFFFFFFFFFFFFF AND PUSH1 0x1 PUSH0 SWAP1 SLOAD SWAP1 PUSH2 0x100 EXP SWAP1 DIV PUSH20 0xFFFFFFFFFFFFFFFFFFFFFFFFFFFFFFFFFFFFFFFF AND PUSH20 0xFFFFFFFFFFFFFFFFFFFFFFFFFFFFFFFFFFFFFFFF AND EQ PUSH2 0x4BB JUMPI PUSH1 0x40 MLOAD PUSH32 0x8C379A000000000000000000000000000000000000000000000000000000000 DUP2 MSTORE PUSH1 0x4 ADD PUSH2 0x4B2 SWAP1 PUSH2 0x121F JUMP JUMPDEST PUSH1 0x40 MLOAD DUP1 SWAP2 SUB SWAP1 REVERT JUMPDEST PUSH1 0x1 PUSH1 0x7 PUSH0 PUSH2 0x100 EXP DUP2 SLOAD DUP2 PUSH1 0xFF MUL NOT AND SWAP1 DUP4 ISZERO ISZERO MUL OR SWAP1 SSTORE POP TIMESTAMP PUSH1 0x6 DUP2 SWAP1 SSTORE POP JUMP JUMPDEST PUSH1 0x5 SLOAD DUP2 JUMP JUMPDEST CALLER PUSH20 0xFFFFFFFFFFFFFFFFFFFFFFFFFFFFFFFFFFFFFFFF AND PUSH1 0x1 PUSH0 SWAP1 SLOAD SWAP1 PUSH2 0x100 EXP SWAP1 DIV PUSH20 0xFFFFFFFFFFFFFFFFFFFFFFFFFFFFFFFFFFFFFFFF AND PUSH20 0xFFFFFFFFFFFFFFFFFFFFFFFFFFFFFFFFFFFFFFFF AND EQ PUSH2 0x573 JUMPI PUSH1 0x40 MLOAD PUSH32 0x8C379A000000000000000000000000000000000000000000000000000000000 DUP2 MSTORE PUSH1 0x4 ADD PUSH2 0x56A SWAP1 PUSH2 0x121F JUMP JUMPDEST PUSH1 0x40 MLOAD DUP1 SWAP2 SUB SWAP1 REVERT JUMPDEST DUP2 DUP4 LT PUSH2 0x5B5 JUMPI PUSH1 0x40 MLOAD PUSH32 0x8C379A000000000000000000000000000000000000000000000000000000000 DUP2 MSTORE PUSH1 0x4 ADD PUSH2 0x5AC SWAP1 PUSH2 0x1315 JUMP JUMPDEST PUSH1 0x40 MLOAD DUP1 SWAP2 SUB SWAP1 REVERT JUMPDEST DUP3 PUSH1 0x5 DUP2 SWAP1 SSTORE POP DUP2 PUSH1 0x6 DUP2 SWAP1 SSTORE POP DUP1 PUSH1 0x7 PUSH0 PUSH2 0x100 EXP DUP2 SLOAD DUP2 PUSH1 0xFF MUL NOT AND SWAP1 DUP4 ISZERO ISZERO MUL OR SWAP1 SSTORE POP PUSH32 0x481593F763953BE7BB16523CF5F9B6243E7FF3194D3BC9F7E286413DF4257A5E DUP4 DUP4 DUP4 PUSH1 0x40 MLOAD PUSH2 0x60F SWAP4 SWAP3 SWAP2 SWAP1 PUSH2 0x1333 JUMP JUMPDEST PUSH1 0x40 MLOAD DUP1 SWAP2 SUB SWAP1 LOG1 POP POP POP JUMP JUMPDEST PUSH0 PUSH1 0x7 PUSH0 SWAP1 SLOAD SWAP1 PUSH2 0x100 EXP SWAP1 DIV PUSH1 0xFF AND ISZERO PUSH2 0x685 JUMPI PUSH1 0x5 SLOAD TIMESTAMP LT ISZERO DUP1 ISZERO PUSH2 0x645 JUMPI POP PUSH1 0x6 SLOAD TIMESTAMP GT ISZERO JUMPDEST PUSH2 0x684 JUMPI PUSH1 0x40 MLOAD PUSH32 0x8C379A000000000000000000000000000000000000000000000000000000000 DUP2 MSTORE PUSH1 0x4 ADD PUSH2 0x67B SWAP1 PUSH2 0x13D8 JUMP JUMPDEST PUSH1 0x40 MLOAD DUP1 SWAP2 SUB SWAP1 REVERT JUMPDEST JUMPDEST PUSH0 CALLVALUE GT PUSH2 0x6C7 JUMPI PUSH1 0x40 MLOAD PUSH32 0x8C379A000000000000000000000000000000000000000000000000000000000 DUP2 MSTORE PUSH1 0x4 ADD PUSH2 0x6BE SWAP1 PUSH2 0x1466 JUMP JUMPDEST PUSH1 0x40 MLOAD DUP1 SWAP2 SUB SWAP1 REVERT JUMPDEST PUSH0 PUSH1 0x3 PUSH0 CALLER PUSH20 0xFFFFFFFFFFFFFFFFFFFFFFFFFFFFFFFFFFFFFFFF AND PUSH20 0xFFFFFFFFFFFFFFFFFFFFFFFFFFFFFFFFFFFFFFFF AND DUP2 MSTORE PUSH1 0x20 ADD SWAP1 DUP2 MSTORE PUSH1 0x20 ADD PUSH0 KECCAK256 SLOAD SUB PUSH2 0x76C JUMPI PUSH1 0x4 CALLER SWAP1 DUP1 PUSH1 0x1 DUP2 SLOAD ADD DUP1 DUP3 SSTORE DUP1 SWAP2 POP POP PUSH1 0x1 SWAP1 SUB SWAP1 PUSH0 MSTORE PUSH1 0x20 PUSH0 KECCAK256 ADD PUSH0 SWAP1 SWAP2 SWAP1 SWAP2 SWAP1 SWAP2 PUSH2 0x100 EXP DUP2 SLOAD DUP2 PUSH20 0xFFFFFFFFFFFFFFFFFFFFFFFFFFFFFFFFFFFFFFFF MUL NOT AND SWAP1 DUP4 PUSH20 0xFFFFFFFFFFFFFFFFFFFFFFFFFFFFFFFFFFFFFFFF AND MUL OR SWAP1 SSTORE POP JUMPDEST CALLVALUE PUSH1 0x2 PUSH0 DUP3 DUP3 SLOAD PUSH2 0x77D SWAP2 SWAP1 PUSH2 0x14B1 JUMP JUMPDEST SWAP3 POP POP DUP2 SWAP1 SSTORE POP CALLVALUE PUSH1 0x3 PUSH0 CALLER PUSH20 0xFFFFFFFFFFFFFFFFFFFFFFFFFFFFFFFFFFFFFFFF AND PUSH20 0xFFFFFFFFFFFFFFFFFFFFFFFFFFFFFFFFFFFFFFFF AND DUP2 MSTORE PUSH1 0x20 ADD SWAP1 DUP2 MSTORE PUSH1 0x20 ADD PUSH0 KECCAK256 PUSH0 DUP3 DUP3 SLOAD PUSH2 0x7D0 SWAP2 SWAP1 PUSH2 0x14B1 JUMP JUMPDEST SWAP3 POP POP DUP2 SWAP1 SSTORE POP CALLER PUSH20 0xFFFFFFFFFFFFFFFFFFFFFFFFFFFFFFFFFFFFFFFF AND PUSH32 0x106AAC375BBCF013D1E52338BBF9E740009A1A3A6869F8DAA1B72AA1620F5FEC CALLVALUE TIMESTAMP PUSH1 0x40 MLOAD PUSH2 0x81F SWAP3 SWAP2 SWAP1 PUSH2 0xE70 JUMP JUMPDEST PUSH1 0x40 MLOAD DUP1 SWAP2 SUB SWAP1 LOG2 PUSH1 0x1 SWAP1 POP SWAP1 JUMP JUMPDEST PUSH1 0x6 SLOAD DUP2 JUMP JUMPDEST PUSH1 0x60 DUP1 PUSH0 DUP4 GT DUP1 ISZERO PUSH2 0x84B JUMPI POP PUSH1 0x4 DUP1 SLOAD SWAP1 POP DUP4 GT ISZERO JUMPDEST PUSH2 0x88A JUMPI PUSH1 0x40 MLOAD PUSH32 0x8C379A000000000000000000000000000000000000000000000000000000000 DUP2 MSTORE PUSH1 0x4 ADD PUSH2 0x881 SWAP1 PUSH2 0x152E JUMP JUMPDEST PUSH1 0x40 MLOAD DUP1 SWAP2 SUB SWAP1 REVERT JUMPDEST PUSH0 PUSH1 0x4 DUP1 SLOAD SWAP1 POP PUSH8 0xFFFFFFFFFFFFFFFF DUP2 GT ISZERO PUSH2 0x8AA JUMPI PUSH2 0x8A9 PUSH2 0x154C JUMP JUMPDEST JUMPDEST PUSH1 0x40 MLOAD SWAP1 DUP1 DUP3 MSTORE DUP1 PUSH1 0x20 MUL PUSH1 0x20 ADD DUP3 ADD PUSH1 0x40 MSTORE DUP1 ISZERO PUSH2 0x8D8 JUMPI DUP2 PUSH1 0x20 ADD PUSH1 0x20 DUP3 MUL DUP1 CALLDATASIZE DUP4 CALLDATACOPY DUP1 DUP3 ADD SWAP2 POP POP SWAP1 POP JUMPDEST POP SWAP1 POP PUSH0 PUSH1 0x4 DUP1 SLOAD SWAP1 POP PUSH8 0xFFFFFFFFFFFFFFFF DUP2 GT ISZERO PUSH2 0x8FB JUMPI PUSH2 0x8FA PUSH2 0x154C JUMP JUMPDEST JUMPDEST PUSH1 0x40 MLOAD SWAP1 DUP1 DUP3 MSTORE DUP1 PUSH1 0x20 MUL PUSH1 0x20 ADD DUP3 ADD PUSH1 0x40 MSTORE DUP1 ISZERO PUSH2 0x929 JUMPI DUP2 PUSH1 0x20 ADD PUSH1 0x20 DUP3 MUL DUP1 CALLDATASIZE DUP4 CALLDATACOPY DUP1 DUP3 ADD SWAP2 POP POP SWAP1 POP JUMPDEST POP SWAP1 POP PUSH0 PUSH0 SWAP1 POP JUMPDEST PUSH1 0x4 DUP1 SLOAD SWAP1 POP DUP2 LT ISZERO PUSH2 0xA6C JUMPI PUSH1 0x4 DUP2 DUP2 SLOAD DUP2 LT PUSH2 0x952 JUMPI PUSH2 0x951 PUSH2 0x1579 JUMP JUMPDEST JUMPDEST SWAP1 PUSH0 MSTORE PUSH1 0x20 PUSH0 KECCAK256 ADD PUSH0 SWAP1 SLOAD SWAP1 PUSH2 0x100 EXP SWAP1 DIV PUSH20 0xFFFFFFFFFFFFFFFFFFFFFFFFFFFFFFFFFFFFFFFF AND DUP4 DUP3 DUP2 MLOAD DUP2 LT PUSH2 0x98D JUMPI PUSH2 0x98C PUSH2 0x1579 JUMP JUMPDEST JUMPDEST PUSH1 0x20 MUL PUSH1 0x20 ADD ADD SWAP1 PUSH20 0xFFFFFFFFFFFFFFFFFFFFFFFFFFFFFFFFFFFFFFFF AND SWAP1 DUP2 PUSH20 0xFFFFFFFFFFFFFFFFFFFFFFFFFFFFFFFFFFFFFFFF AND DUP2 MSTORE POP POP PUSH1 0x3 PUSH0 PUSH1 0x4 DUP4 DUP2 SLOAD DUP2 LT PUSH2 0x9DE JUMPI PUSH2 0x9DD PUSH2 0x1579 JUMP JUMPDEST JUMPDEST SWAP1 PUSH0 MSTORE PUSH1 0x20 PUSH0 KECCAK256 ADD PUSH0 SWAP1 SLOAD SWAP1 PUSH2 0x100 EXP SWAP1 DIV PUSH20 0xFFFFFFFFFFFFFFFFFFFFFFFFFFFFFFFFFFFFFFFF AND PUSH20 0xFFFFFFFFFFFFFFFFFFFFFFFFFFFFFFFFFFFFFFFF AND PUSH20 0xFFFFFFFFFFFFFFFFFFFFFFFFFFFFFFFFFFFFFFFF AND DUP2 MSTORE PUSH1 0x20 ADD SWAP1 DUP2 MSTORE PUSH1 0x20 ADD PUSH0 KECCAK256 SLOAD DUP3 DUP3 DUP2 MLOAD DUP2 LT PUSH2 0xA53 JUMPI PUSH2 0xA52 PUSH2 0x1579 JUMP JUMPDEST JUMPDEST PUSH1 0x20 MUL PUSH1 0x20 ADD ADD DUP2 DUP2 MSTORE POP POP DUP1 DUP1 PUSH1 0x1 ADD SWAP2 POP POP PUSH2 0x931 JUMP JUMPDEST POP PUSH0 PUSH0 SWAP1 POP JUMPDEST PUSH1 0x1 DUP4 MLOAD PUSH2 0xA80 SWAP2 SWAP1 PUSH2 0x15A6 JUMP JUMPDEST DUP2 LT ISZERO PUSH2 0xC8E JUMPI PUSH0 PUSH0 SWAP1 POP JUMPDEST DUP2 PUSH1 0x1 DUP6 MLOAD PUSH2 0xA9B SWAP2 SWAP1 PUSH2 0x15A6 JUMP JUMPDEST PUSH2 0xAA5 SWAP2 SWAP1 PUSH2 0x15A6 JUMP JUMPDEST DUP2 LT ISZERO PUSH2 0xC80 JUMPI DUP3 PUSH1 0x1 DUP3 PUSH2 0xABA SWAP2 SWAP1 PUSH2 0x14B1 JUMP JUMPDEST DUP2 MLOAD DUP2 LT PUSH2 0xACB JUMPI PUSH2 0xACA PUSH2 0x1579 JUMP JUMPDEST JUMPDEST PUSH1 0x20 MUL PUSH1 0x20 ADD ADD MLOAD DUP4 DUP3 DUP2 MLOAD DUP2 LT PUSH2 0xAE6 JUMPI PUSH2 0xAE5 PUSH2 0x1579 JUMP JUMPDEST JUMPDEST PUSH1 0x20 MUL PUSH1 0x20 ADD ADD MLOAD LT ISZERO PUSH2 0xC73 JUMPI PUSH0 DUP4 DUP3 DUP2 MLOAD DUP2 LT PUSH2 0xB08 JUMPI PUSH2 0xB07 PUSH2 0x1579 JUMP JUMPDEST JUMPDEST PUSH1 0x20 MUL PUSH1 0x20 ADD ADD MLOAD SWAP1 POP DUP4 PUSH1 0x1 DUP4 PUSH2 0xB20 SWAP2 SWAP1 PUSH2 0x14B1 JUMP JUMPDEST DUP2 MLOAD DUP2 LT PUSH2 0xB31 JUMPI PUSH2 0xB30 PUSH2 0x1579 JUMP JUMPDEST JUMPDEST PUSH1 0x20 MUL PUSH1 0x20 ADD ADD MLOAD DUP5 DUP4 DUP2 MLOAD DUP2 LT PUSH2 0xB4C JUMPI PUSH2 0xB4B PUSH2 0x1579 JUMP JUMPDEST JUMPDEST PUSH1 0x20 MUL PUSH1 0x20 ADD ADD DUP2 DUP2 MSTORE POP POP DUP1 DUP5 PUSH1 0x1 DUP5 PUSH2 0xB67 SWAP2 SWAP1 PUSH2 0x14B1 JUMP JUMPDEST DUP2 MLOAD DUP2 LT PUSH2 0xB78 JUMPI PUSH2 0xB77 PUSH2 0x1579 JUMP JUMPDEST JUMPDEST PUSH1 0x20 MUL PUSH1 0x20 ADD ADD DUP2 DUP2 MSTORE POP POP PUSH0 DUP6 DUP4 DUP2 MLOAD DUP2 LT PUSH2 0xB98 JUMPI PUSH2 0xB97 PUSH2 0x1579 JUMP JUMPDEST JUMPDEST PUSH1 0x20 MUL PUSH1 0x20 ADD ADD MLOAD SWAP1 POP DUP6 PUSH1 0x1 DUP5 PUSH2 0xBB0 SWAP2 SWAP1 PUSH2 0x14B1 JUMP JUMPDEST DUP2 MLOAD DUP2 LT PUSH2 0xBC1 JUMPI PUSH2 0xBC0 PUSH2 0x1579 JUMP JUMPDEST JUMPDEST PUSH1 0x20 MUL PUSH1 0x20 ADD ADD MLOAD DUP7 DUP5 DUP2 MLOAD DUP2 LT PUSH2 0xBDC JUMPI PUSH2 0xBDB PUSH2 0x1579 JUMP JUMPDEST JUMPDEST PUSH1 0x20 MUL PUSH1 0x20 ADD ADD SWAP1 PUSH20 0xFFFFFFFFFFFFFFFFFFFFFFFFFFFFFFFFFFFFFFFF AND SWAP1 DUP2 PUSH20 0xFFFFFFFFFFFFFFFFFFFFFFFFFFFFFFFFFFFFFFFF AND DUP2 MSTORE POP POP DUP1 DUP7 PUSH1 0x1 DUP6 PUSH2 0xC25 SWAP2 SWAP1 PUSH2 0x14B1 JUMP JUMPDEST DUP2 MLOAD DUP2 LT PUSH2 0xC36 JUMPI PUSH2 0xC35 PUSH2 0x1579 JUMP JUMPDEST JUMPDEST PUSH1 0x20 MUL PUSH1 0x20 ADD ADD SWAP1 PUSH20 0xFFFFFFFFFFFFFFFFFFFFFFFFFFFFFFFFFFFFFFFF AND SWAP1 DUP2 PUSH20 0xFFFFFFFFFFFFFFFFFFFFFFFFFFFFFFFFFFFFFFFF AND DUP2 MSTORE POP POP POP POP JUMPDEST DUP1 DUP1 PUSH1 0x1 ADD SWAP2 POP POP PUSH2 0xA8C JUMP JUMPDEST POP DUP1 DUP1 PUSH1 0x1 ADD SWAP2 POP POP PUSH2 0xA72 JUMP JUMPDEST POP DUP5 PUSH8 0xFFFFFFFFFFFFFFFF DUP2 GT ISZERO PUSH2 0xCA9 JUMPI PUSH2 0xCA8 PUSH2 0x154C JUMP JUMPDEST JUMPDEST PUSH1 0x40 MLOAD SWAP1 DUP1 DUP3 MSTORE DUP1 PUSH1 0x20 MUL PUSH1 0x20 ADD DUP3 ADD PUSH1 0x40 MSTORE DUP1 ISZERO PUSH2 0xCD7 JUMPI DUP2 PUSH1 0x20 ADD PUSH1 0x20 DUP3 MUL DUP1 CALLDATASIZE DUP4 CALLDATACOPY DUP1 DUP3 ADD SWAP2 POP POP SWAP1 POP JUMPDEST POP SWAP4 POP DUP5 PUSH8 0xFFFFFFFFFFFFFFFF DUP2 GT ISZERO PUSH2 0xCF4 JUMPI PUSH2 0xCF3 PUSH2 0x154C JUMP JUMPDEST JUMPDEST PUSH1 0x40 MLOAD SWAP1 DUP1 DUP3 MSTORE DUP1 PUSH1 0x20 MUL PUSH1 0x20 ADD DUP3 ADD PUSH1 0x40 MSTORE DUP1 ISZERO PUSH2 0xD22 JUMPI DUP2 PUSH1 0x20 ADD PUSH1 0x20 DUP3 MUL DUP1 CALLDATASIZE DUP4 CALLDATACOPY DUP1 DUP3 ADD SWAP2 POP POP SWAP1 POP JUMPDEST POP SWAP3 POP PUSH0 PUSH0 SWAP1 POP JUMPDEST DUP6 DUP2 LT ISZERO PUSH2 0xDE1 JUMPI DUP3 DUP2 DUP2 MLOAD DUP2 LT PUSH2 0xD45 JUMPI PUSH2 0xD44 PUSH2 0x1579 JUMP JUMPDEST JUMPDEST PUSH1 0x20 MUL PUSH1 0x20 ADD ADD MLOAD DUP6 DUP3 DUP2 MLOAD DUP2 LT PUSH2 0xD60 JUMPI PUSH2 0xD5F PUSH2 0x1579 JUMP JUMPDEST JUMPDEST PUSH1 0x20 MUL PUSH1 0x20 ADD ADD SWAP1 PUSH20 0xFFFFFFFFFFFFFFFFFFFFFFFFFFFFFFFFFFFFFFFF AND SWAP1 DUP2 PUSH20 0xFFFFFFFFFFFFFFFFFFFFFFFFFFFFFFFFFFFFFFFF AND DUP2 MSTORE POP POP DUP2 DUP2 DUP2 MLOAD DUP2 LT PUSH2 0xDAD JUMPI PUSH2 0xDAC PUSH2 0x1579 JUMP JUMPDEST JUMPDEST PUSH1 0x20 MUL PUSH1 0x20 ADD ADD MLOAD DUP5 DUP3 DUP2 MLOAD DUP2 LT PUSH2 0xDC8 JUMPI PUSH2 0xDC7 PUSH2 0x1579 JUMP JUMPDEST JUMPDEST PUSH1 0x20 MUL PUSH1 0x20 ADD ADD DUP2 DUP2 MSTORE POP POP DUP1 DUP1 PUSH1 0x1 ADD SWAP2 POP POP PUSH2 0xD2A JUMP JUMPDEST POP POP POP SWAP2 POP SWAP2 JUMP JUMPDEST PUSH1 0x2 PUSH0 SLOAD SUB PUSH2 0xE2D JUMPI PUSH1 0x40 MLOAD PUSH32 0x8C379A000000000000000000000000000000000000000000000000000000000 DUP2 MSTORE PUSH1 0x4 ADD PUSH2 0xE24 SWAP1 PUSH2 0x1623 JUMP JUMPDEST PUSH1 0x40 MLOAD DUP1 SWAP2 SUB SWAP1 REVERT JUMPDEST PUSH1 0x2 PUSH0 DUP2 SWAP1 SSTORE POP JUMP JUMPDEST PUSH1 0x1 PUSH0 DUP2 SWAP1 SSTORE POP JUMP JUMPDEST PUSH0 DUP2 SWAP1 POP SWAP2 SWAP1 POP JUMP JUMPDEST PUSH2 0xE51 DUP2 PUSH2 0xE3F JUMP JUMPDEST DUP3 MSTORE POP POP JUMP JUMPDEST PUSH0 PUSH1 0x20 DUP3 ADD SWAP1 POP PUSH2 0xE6A PUSH0 DUP4 ADD DUP5 PUSH2 0xE48 JUMP JUMPDEST SWAP3 SWAP2 POP POP JUMP JUMPDEST PUSH0 PUSH1 0x40 DUP3 ADD SWAP1 POP PUSH2 0xE83 PUSH0 DUP4 ADD DUP6 PUSH2 0xE48 JUMP JUMPDEST PUSH2 0xE90 PUSH1 0x20 DUP4 ADD DUP5 PUSH2 0xE48 JUMP JUMPDEST SWAP4 SWAP3 POP POP POP JUMP JUMPDEST PUSH0 PUSH0 REVERT JUMPDEST PUSH0 PUSH20 0xFFFFFFFFFFFFFFFFFFFFFFFFFFFFFFFFFFFFFFFF DUP3 AND SWAP1 POP SWAP2 SWAP1 POP JUMP JUMPDEST PUSH0 PUSH2 0xEC4 DUP3 PUSH2 0xE9B JUMP JUMPDEST SWAP1 POP SWAP2 SWAP1 POP JUMP JUMPDEST PUSH2 0xED4 DUP2 PUSH2 0xEBA JUMP JUMPDEST DUP2 EQ PUSH2 0xEDE JUMPI PUSH0 PUSH0 REVERT JUMPDEST POP JUMP JUMPDEST PUSH0 DUP2 CALLDATALOAD SWAP1 POP PUSH2 0xEEF DUP2 PUSH2 0xECB JUMP JUMPDEST SWAP3 SWAP2 POP POP JUMP JUMPDEST PUSH0 PUSH1 0x20 DUP3 DUP5 SUB SLT ISZERO PUSH2 0xF0A JUMPI PUSH2 0xF09 PUSH2 0xE97 JUMP JUMPDEST JUMPDEST PUSH0 PUSH2 0xF17 DUP5 DUP3 DUP6 ADD PUSH2 0xEE1 JUMP JUMPDEST SWAP2 POP POP SWAP3 SWAP2 POP POP JUMP JUMPDEST PUSH0 DUP2 ISZERO ISZERO SWAP1 POP SWAP2 SWAP1 POP JUMP JUMPDEST PUSH2 0xF34 DUP2 PUSH2 0xF20 JUMP JUMPDEST DUP3 MSTORE POP POP JUMP JUMPDEST PUSH0 PUSH1 0x20 DUP3 ADD SWAP1 POP PUSH2 0xF4D PUSH0 DUP4 ADD DUP5 PUSH2 0xF2B JUMP JUMPDEST SWAP3 SWAP2 POP POP JUMP JUMPDEST PUSH2 0xF5C DUP2 PUSH2 0xE3F JUMP JUMPDEST DUP2 EQ PUSH2 0xF66 JUMPI PUSH0 PUSH0 REVERT JUMPDEST POP JUMP JUMPDEST PUSH0 DUP2 CALLDATALOAD SWAP1 POP PUSH2 0xF77 DUP2 PUSH2 0xF53 JUMP JUMPDEST SWAP3 SWAP2 POP POP JUMP JUMPDEST PUSH2 0xF86 DUP2 PUSH2 0xF20 JUMP JUMPDEST DUP2 EQ PUSH2 0xF90 JUMPI PUSH0 PUSH0 REVERT JUMPDEST POP JUMP JUMPDEST PUSH0 DUP2 CALLDATALOAD SWAP1 POP PUSH2 0xFA1 DUP2 PUSH2 0xF7D JUMP JUMPDEST SWAP3 SWAP2 POP POP JUMP JUMPDEST PUSH0 PUSH0 PUSH0 PUSH1 0x60 DUP5 DUP7 SUB SLT ISZERO PUSH2 0xFBE JUMPI PUSH2 0xFBD PUSH2 0xE97 JUMP JUMPDEST JUMPDEST PUSH0 PUSH2 0xFCB DUP7 DUP3 DUP8 ADD PUSH2 0xF69 JUMP JUMPDEST SWAP4 POP POP PUSH1 0x20 PUSH2 0xFDC DUP7 DUP3 DUP8 ADD PUSH2 0xF69 JUMP JUMPDEST SWAP3 POP POP PUSH1 0x40 PUSH2 0xFED DUP7 DUP3 DUP8 ADD PUSH2 0xF93 JUMP JUMPDEST SWAP2 POP POP SWAP3 POP SWAP3 POP SWAP3 JUMP JUMPDEST PUSH0 PUSH1 0x20 DUP3 DUP5 SUB SLT ISZERO PUSH2 0x100C JUMPI PUSH2 0x100B PUSH2 0xE97 JUMP JUMPDEST JUMPDEST PUSH0 PUSH2 0x1019 DUP5 DUP3 DUP6 ADD PUSH2 0xF69 JUMP JUMPDEST SWAP2 POP POP SWAP3 SWAP2 POP POP JUMP JUMPDEST PUSH0 DUP2 MLOAD SWAP1 POP SWAP2 SWAP1 POP JUMP JUMPDEST PUSH0 DUP3 DUP3 MSTORE PUSH1 0x20 DUP3 ADD SWAP1 POP SWAP3 SWAP2 POP POP JUMP JUMPDEST PUSH0 DUP2 SWAP1 POP PUSH1 0x20 DUP3 ADD SWAP1 POP SWAP2 SWAP1 POP JUMP JUMPDEST PUSH2 0x1054 DUP2 PUSH2 0xEBA JUMP JUMPDEST DUP3 MSTORE POP POP JUMP JUMPDEST PUSH0 PUSH2 0x1065 DUP4 DUP4 PUSH2 0x104B JUMP JUMPDEST PUSH1 0x20 DUP4 ADD SWAP1 POP SWAP3 SWAP2 POP POP JUMP JUMPDEST PUSH0 PUSH1 0x20 DUP3 ADD SWAP1 POP SWAP2 SWAP1 POP JUMP JUMPDEST PUSH0 PUSH2 0x1087 DUP3 PUSH2 0x1022 JUMP JUMPDEST PUSH2 0x1091 DUP2 DUP6 PUSH2 0x102C JUMP JUMPDEST SWAP4 POP PUSH2 0x109C DUP4 PUSH2 0x103C JUMP JUMPDEST DUP1 PUSH0 JUMPDEST DUP4 DUP2 LT ISZERO PUSH2 0x10CC JUMPI DUP2 MLOAD PUSH2 0x10B3 DUP9 DUP3 PUSH2 0x105A JUMP JUMPDEST SWAP8 POP PUSH2 0x10BE DUP4 PUSH2 0x1071 JUMP JUMPDEST SWAP3 POP POP PUSH1 0x1 DUP2 ADD SWAP1 POP PUSH2 0x109F JUMP JUMPDEST POP DUP6 SWAP4 POP POP POP POP SWAP3 SWAP2 POP POP JUMP JUMPDEST PUSH0 DUP2 MLOAD SWAP1 POP SWAP2 SWAP1 POP JUMP JUMPDEST PUSH0 DUP3 DUP3 MSTORE PUSH1 0x20 DUP3 ADD SWAP1 POP SWAP3 SWAP2 POP POP JUMP JUMPDEST PUSH0 DUP2 SWAP1 POP PUSH1 0x20 DUP3 ADD SWAP1 POP SWAP2 SWAP1 POP JUMP JUMPDEST PUSH2 0x110B DUP2 PUSH2 0xE3F JUMP JUMPDEST DUP3 MSTORE POP POP JUMP JUMPDEST PUSH0 PUSH2 0x111C DUP4 DUP4 PUSH2 0x1102 JUMP JUMPDEST PUSH1 0x20 DUP4 ADD SWAP1 POP SWAP3 SWAP2 POP POP JUMP JUMPDEST PUSH0 PUSH1 0x20 DUP3 ADD SWAP1 POP SWAP2 SWAP1 POP JUMP JUMPDEST PUSH0 PUSH2 0x113E DUP3 PUSH2 0x10D9 JUMP JUMPDEST PUSH2 0x1148 DUP2 DUP6 PUSH2 0x10E3 JUMP JUMPDEST SWAP4 POP PUSH2 0x1153 DUP4 PUSH2 0x10F3 JUMP JUMPDEST DUP1 PUSH0 JUMPDEST DUP4 DUP2 LT ISZERO PUSH2 0x1183 JUMPI DUP2 MLOAD PUSH2 0x116A DUP9 DUP3 PUSH2 0x1111 JUMP JUMPDEST SWAP8 POP PUSH2 0x1175 DUP4 PUSH2 0x1128 JUMP JUMPDEST SWAP3 POP POP PUSH1 0x1 DUP2 ADD SWAP1 POP PUSH2 0x1156 JUMP JUMPDEST POP DUP6 SWAP4 POP POP POP POP SWAP3 SWAP2 POP POP JUMP JUMPDEST PUSH0 PUSH1 0x40 DUP3 ADD SWAP1 POP DUP2 DUP2 SUB PUSH0 DUP4 ADD MSTORE PUSH2 0x11A8 DUP2 DUP6 PUSH2 0x107D JUMP JUMPDEST SWAP1 POP DUP2 DUP2 SUB PUSH1 0x20 DUP4 ADD MSTORE PUSH2 0x11BC DUP2 DUP5 PUSH2 0x1134 JUMP JUMPDEST SWAP1 POP SWAP4 SWAP3 POP POP POP JUMP JUMPDEST PUSH0 DUP3 DUP3 MSTORE PUSH1 0x20 DUP3 ADD SWAP1 POP SWAP3 SWAP2 POP POP JUMP JUMPDEST PUSH32 0x6F6E6C79206F776E65722063616E206F70657261746500000000000000000000 PUSH0 DUP3 ADD MSTORE POP JUMP JUMPDEST PUSH0 PUSH2 0x1209 PUSH1 0x16 DUP4 PUSH2 0x11C5 JUMP JUMPDEST SWAP2 POP PUSH2 0x1214 DUP3 PUSH2 0x11D5 JUMP JUMPDEST PUSH1 0x20 DUP3 ADD SWAP1 POP SWAP2 SWAP1 POP JUMP JUMPDEST PUSH0 PUSH1 0x20 DUP3 ADD SWAP1 POP DUP2 DUP2 SUB PUSH0 DUP4 ADD MSTORE PUSH2 0x1236 DUP2 PUSH2 0x11FD JUMP JUMPDEST SWAP1 POP SWAP2 SWAP1 POP JUMP JUMPDEST PUSH32 0x776974686472617720616D6F756E74206973207A65726F000000000000000000 PUSH0 DUP3 ADD MSTORE POP JUMP JUMPDEST PUSH0 PUSH2 0x1271 PUSH1 0x17 DUP4 PUSH2 0x11C5 JUMP JUMPDEST SWAP2 POP PUSH2 0x127C DUP3 PUSH2 0x123D JUMP JUMPDEST PUSH1 0x20 DUP3 ADD SWAP1 POP SWAP2 SWAP1 POP JUMP JUMPDEST PUSH0 PUSH1 0x20 DUP3 ADD SWAP1 POP DUP2 DUP2 SUB PUSH0 DUP4 ADD MSTORE PUSH2 0x129E DUP2 PUSH2 0x1265 JUMP JUMPDEST SWAP1 POP SWAP2 SWAP1 POP JUMP JUMPDEST PUSH32 0x456E642074696D65206D7573742062652061667465722073746172742074696D PUSH0 DUP3 ADD MSTORE PUSH32 0x6500000000000000000000000000000000000000000000000000000000000000 PUSH1 0x20 DUP3 ADD MSTORE POP JUMP JUMPDEST PUSH0 PUSH2 0x12FF PUSH1 0x21 DUP4 PUSH2 0x11C5 JUMP JUMPDEST SWAP2 POP PUSH2 0x130A DUP3 PUSH2 0x12A5 JUMP JUMPDEST PUSH1 0x40 DUP3 ADD SWAP1 POP SWAP2 SWAP1 POP JUMP JUMPDEST PUSH0 PUSH1 0x20 DUP3 ADD SWAP1 POP DUP2 DUP2 SUB PUSH0 DUP4 ADD MSTORE PUSH2 0x132C DUP2 PUSH2 0x12F3 JUMP JUMPDEST SWAP1 POP SWAP2 SWAP1 POP JUMP JUMPDEST PUSH0 PUSH1 0x60 DUP3 ADD SWAP1 POP PUSH2 0x1346 PUSH0 DUP4 ADD DUP7 PUSH2 0xE48 JUMP JUMPDEST PUSH2 0x1353 PUSH1 0x20 DUP4 ADD DUP6 PUSH2 0xE48 JUMP JUMPDEST PUSH2 0x1360 PUSH1 0x40 DUP4 ADD DUP5 PUSH2 0xF2B JUMP JUMPDEST SWAP5 SWAP4 POP POP POP POP JUMP JUMPDEST PUSH32 0x446F6E6174696F6E206973206E6F7420616C6C6F776564206174207468697320 PUSH0 DUP3 ADD MSTORE PUSH32 0x74696D6500000000000000000000000000000000000000000000000000000000 PUSH1 0x20 DUP3 ADD MSTORE POP JUMP JUMPDEST PUSH0 PUSH2 0x13C2 PUSH1 0x24 DUP4 PUSH2 0x11C5 JUMP JUMPDEST SWAP2 POP PUSH2 0x13CD DUP3 PUSH2 0x1368 JUMP JUMPDEST PUSH1 0x40 DUP3 ADD SWAP1 POP SWAP2 SWAP1 POP JUMP JUMPDEST PUSH0 PUSH1 0x20 DUP3 ADD SWAP1 POP DUP2 DUP2 SUB PUSH0 DUP4 ADD MSTORE PUSH2 0x13EF DUP2 PUSH2 0x13B6 JUMP JUMPDEST SWAP1 POP SWAP2 SWAP1 POP JUMP JUMPDEST PUSH32 0x646F6E6F7220616D6F756E74206D757374206265206772656174657220746861 PUSH0 DUP3 ADD MSTORE PUSH32 0x6E207A65726F0000000000000000000000000000000000000000000000000000 PUSH1 0x20 DUP3 ADD MSTORE POP JUMP JUMPDEST PUSH0 PUSH2 0x1450 PUSH1 0x26 DUP4 PUSH2 0x11C5 JUMP JUMPDEST SWAP2 POP PUSH2 0x145B DUP3 PUSH2 0x13F6 JUMP JUMPDEST PUSH1 0x40 DUP3 ADD SWAP1 POP SWAP2 SWAP1 POP JUMP JUMPDEST PUSH0 PUSH1 0x20 DUP3 ADD SWAP1 POP DUP2 DUP2 SUB PUSH0 DUP4 ADD MSTORE PUSH2 0x147D DUP2 PUSH2 0x1444 JUMP JUMPDEST SWAP1 POP SWAP2 SWAP1 POP JUMP JUMPDEST PUSH32 0x4E487B7100000000000000000000000000000000000000000000000000000000 PUSH0 MSTORE PUSH1 0x11 PUSH1 0x4 MSTORE PUSH1 0x24 PUSH0 REVERT JUMPDEST PUSH0 PUSH2 0x14BB DUP3 PUSH2 0xE3F JUMP JUMPDEST SWAP2 POP PUSH2 0x14C6 DUP4 PUSH2 0xE3F JUMP JUMPDEST SWAP3 POP DUP3 DUP3 ADD SWAP1 POP DUP1 DUP3 GT ISZERO PUSH2 0x14DE JUMPI PUSH2 0x14DD PUSH2 0x1484 JUMP JUMPDEST JUMPDEST SWAP3 SWAP2 POP POP JUMP JUMPDEST PUSH32 0x496E76616C696420746F704E2076616C75650000000000000000000000000000 PUSH0 DUP3 ADD MSTORE POP JUMP JUMPDEST PUSH0 PUSH2 0x1518 PUSH1 0x12 DUP4 PUSH2 0x11C5 JUMP JUMPDEST SWAP2 POP PUSH2 0x1523 DUP3 PUSH2 0x14E4 JUMP JUMPDEST PUSH1 0x20 DUP3 ADD SWAP1 POP SWAP2 SWAP1 POP JUMP JUMPDEST PUSH0 PUSH1 0x20 DUP3 ADD SWAP1 POP DUP2 DUP2 SUB PUSH0 DUP4 ADD MSTORE PUSH2 0x1545 DUP2 PUSH2 0x150C JUMP JUMPDEST SWAP1 POP SWAP2 SWAP1 POP JUMP JUMPDEST PUSH32 0x4E487B7100000000000000000000000000000000000000000000000000000000 PUSH0 MSTORE PUSH1 0x41 PUSH1 0x4 MSTORE PUSH1 0x24 PUSH0 REVERT JUMPDEST PUSH32 0x4E487B7100000000000000000000000000000000000000000000000000000000 PUSH0 MSTORE PUSH1 0x32 PUSH1 0x4 MSTORE PUSH1 0x24 PUSH0 REVERT JUMPDEST PUSH0 PUSH2 0x15B0 DUP3 PUSH2 0xE3F JUMP JUMPDEST SWAP2 POP PUSH2 0x15BB DUP4 PUSH2 0xE3F JUMP JUMPDEST SWAP3 POP DUP3 DUP3 SUB SWAP1 POP DUP2 DUP2 GT ISZERO PUSH2 0x15D3 JUMPI PUSH2 0x15D2 PUSH2 0x1484 JUMP JUMPDEST JUMPDEST SWAP3 SWAP2 POP POP JUMP JUMPDEST PUSH32 0x5265656E7472616E637947756172643A207265656E7472616E742063616C6C00 PUSH0 DUP3 ADD MSTORE POP JUMP JUMPDEST PUSH0 PUSH2 0x160D PUSH1 0x1F DUP4 PUSH2 0x11C5 JUMP JUMPDEST SWAP2 POP PUSH2 0x1618 DUP3 PUSH2 0x15D9 JUMP JUMPDEST PUSH1 0x20 DUP3 ADD SWAP1 POP SWAP2 SWAP1 POP JUMP JUMPDEST PUSH0 PUSH1 0x20 DUP3 ADD SWAP1 POP DUP2 DUP2 SUB PUSH0 DUP4 ADD MSTORE PUSH2 0x163A DUP2 PUSH2 0x1601 JUMP JUMPDEST SWAP1 POP SWAP2 SWAP1 POP JUMP INVALID LOG2 PUSH5 0x6970667358 0x22 SLT KECCAK256 SHR PUSH3 0xA48D33 BALANCE 0xA5 0xBC PUSH20 0x521A522083022114BB30A52A614E858002C62C57 AND PUSH24 0xCE64736F6C634300081E0033000000000000000000000000 "
				},
				"gasEstimates": {
					"creation": {
						"codeDepositCost": "1150200",
						"executionCost": "infinite",
						"totalCost": "infinite"
					},
					"external": {
						"": "195",
						"donate()": "infinite",
						"donationEndTime()": "2513",
						"donationStartTime()": "2447",
						"emergencyStop()": "48691",
						"getBalance()": "335",
						"getDonation(address)": "2896",
						"getTopDonors(uint256)": "infinite",
						"getTotalInfo()": "infinite",
						"setTimeRestriction(uint256,uint256,bool)": "infinite",
						"timeRestrictionEnabled()": "2555",
						"withdraw()": "infinite"
					}
				},
				"methodIdentifiers": {
					"donate()": "ed88c68e",
					"donationEndTime()": "f12a4a53",
					"donationStartTime()": "78331552",
					"emergencyStop()": "63a599a4",
					"getBalance()": "12065fe0",
					"getDonation(address)": "410a1d32",
					"getTopDonors(uint256)": "f5d1282b",
					"getTotalInfo()": "285109d1",
					"setTimeRestriction(uint256,uint256,bool)": "a601c624",
					"timeRestrictionEnabled()": "5e068de1",
					"withdraw()": "3ccfd60b"
				}
			},
			"storageLayout": {
				"storage": [
					{
						"astId": 10,
						"contract": "solidity/task2/BeggingContract.sol:BeggingContract",
						"label": "_status",
						"offset": 0,
						"slot": "0",
						"type": "t_uint256"
					},
					{
						"astId": 95,
						"contract": "solidity/task2/BeggingContract.sol:BeggingContract",
						"label": "owner",
						"offset": 0,
						"slot": "1",
						"type": "t_address"
					},
					{
						"astId": 97,
						"contract": "solidity/task2/BeggingContract.sol:BeggingContract",
						"label": "totalAmount",
						"offset": 0,
						"slot": "2",
						"type": "t_uint256"
					},
					{
						"astId": 101,
						"contract": "solidity/task2/BeggingContract.sol:BeggingContract",
						"label": "donates",
						"offset": 0,
						"slot": "3",
						"type": "t_mapping(t_address,t_uint256)"
					},
					{
						"astId": 104,
						"contract": "solidity/task2/BeggingContract.sol:BeggingContract",
						"label": "donors",
						"offset": 0,
						"slot": "4",
						"type": "t_array(t_address)dyn_storage"
					},
					{
						"astId": 106,
						"contract": "solidity/task2/BeggingContract.sol:BeggingContract",
						"label": "donationStartTime",
						"offset": 0,
						"slot": "5",
						"type": "t_uint256"
					},
					{
						"astId": 108,
						"contract": "solidity/task2/BeggingContract.sol:BeggingContract",
						"label": "donationEndTime",
						"offset": 0,
						"slot": "6",
						"type": "t_uint256"
					},
					{
						"astId": 110,
						"contract": "solidity/task2/BeggingContract.sol:BeggingContract",
						"label": "timeRestrictionEnabled",
						"offset": 0,
						"slot": "7",
						"type": "t_bool"
					}
				],
				"types": {
					"t_address": {
						"encoding": "inplace",
						"label": "address",
						"numberOfBytes": "20"
					},
					"t_array(t_address)dyn_storage": {
						"base": "t_address",
						"encoding": "dynamic_array",
						"label": "address[]",
						"numberOfBytes": "32"
					},
					"t_bool": {
						"encoding": "inplace",
						"label": "bool",
						"numberOfBytes": "1"
					},
					"t_mapping(t_address,t_uint256)": {
						"encoding": "mapping",
						"key": "t_address",
						"label": "mapping(address => uint256)",
						"numberOfBytes": "32",
						"value": "t_uint256"
					},
					"t_uint256": {
						"encoding": "inplace",
						"label": "uint256",
						"numberOfBytes": "32"
					}
				}
			},
			"userdoc": {
				"kind": "user",
				"methods": {},
				"version": 1
			}
		}
	}
}