{"abi":[{"type":"function","name":"add","inputs":[{"name":"a","type":"uint256","internalType":"uint256"},{"name":"b","type":"uint256","internalType":"uint256"}],"outputs":[{"name":"","type":"uint256","internalType":"uint256"}],"stateMutability":"nonpayable"},{"type":"function","name":"sub","inputs":[{"name":"a","type":"uint256","internalType":"uint256"},{"name":"b","type":"uint256","internalType":"uint256"}],"outputs":[{"name":"","type":"uint256","internalType":"uint256"}],"stateMutability":"nonpayable"},{"type":"event","name":"Addition","inputs":[{"name":"a","type":"uint256","indexed":true,"internalType":"uint256"},{"name":"b","type":"uint256","indexed":true,"internalType":"uint256"},{"name":"result","type":"uint256","indexed":false,"internalType":"uint256"}],"anonymous":false},{"type":"event","name":"Subtraction","inputs":[{"name":"a","type":"uint256","indexed":true,"internalType":"uint256"},{"name":"b","type":"uint256","indexed":true,"internalType":"uint256"},{"name":"result","type":"uint256","indexed":false,"internalType":"uint256"}],"anonymous":false}],"bytecode":{"object":"0x6080604052348015600e575f5ffd5b5061035f8061001c5f395ff3fe608060405234801561000f575f5ffd5b5060043610610034575f3560e01c8063771602f714610038578063b67d77c514610068575b5f5ffd5b610052600480360381019061004d91906101b8565b610098565b60405161005f9190610205565b60405180910390f35b610082600480360381019061007d91906101b8565b6100eb565b60405161008f9190610205565b60405180910390f35b5f5f82846100a6919061024b565b905082847f099a8fd2a0841afbe8000d711d763bf2c54b2c63bed7b7f92a244ef4f5154536836040516100d99190610205565b60405180910390a38091505092915050565b5f8183101561012f576040517f08c379a0000000000000000000000000000000000000000000000000000000008152600401610126906102d8565b60405180910390fd5b5f828461013c91906102f6565b905082847fcc1e4c4352d62a39790806ed8a1280fcd6798f7aeda79d070b0ddcea074ac1688360405161016f9190610205565b60405180910390a38091505092915050565b5f5ffd5b5f819050919050565b61019781610185565b81146101a1575f5ffd5b50565b5f813590506101b28161018e565b92915050565b5f5f604083850312156101ce576101cd610181565b5b5f6101db858286016101a4565b92505060206101ec858286016101a4565b9150509250929050565b6101ff81610185565b82525050565b5f6020820190506102185f8301846101f6565b92915050565b7f4e487b71000000000000000000000000000000000000000000000000000000005f52601160045260245ffd5b5f61025582610185565b915061026083610185565b92508282019050808211156102785761027761021e565b5b92915050565b5f82825260208201905092915050565b7f556e646572666c6f772070726f74656374696f6e0000000000000000000000005f82015250565b5f6102c260148361027e565b91506102cd8261028e565b602082019050919050565b5f6020820190508181035f8301526102ef816102b6565b9050919050565b5f61030082610185565b915061030b83610185565b92508282039050818111156103235761032261021e565b5b9291505056fea26469706673582212206b581ca291e0f4cb3ee6b22da9b826fb5d87f3d2f9ddb96e48a8bb2ff121478664736f6c634300081e0033","linkReferences":{}},"methodIdentifiers":{"add(uint256,uint256)":"771602f7","sub(uint256,uint256)":"b67d77c5"},"id":19}