{"abi":[{"type":"function","name":"add","inputs":[{"name":"a","type":"uint256","internalType":"uint256"},{"name":"b","type":"uint256","internalType":"uint256"}],"outputs":[{"name":"","type":"uint256","internalType":"uint256"}],"stateMutability":"pure"},{"type":"function","name":"lastResult","inputs":[],"outputs":[{"name":"","type":"uint256","internalType":"uint256"}],"stateMutability":"view"},{"type":"function","name":"sub","inputs":[{"name":"a","type":"uint256","internalType":"uint256"},{"name":"b","type":"uint256","internalType":"uint256"}],"outputs":[{"name":"","type":"uint256","internalType":"uint256"}],"stateMutability":"pure"}],"bytecode":{"object":"0x6080604052348015600e575f5ffd5b506103118061001c5f395ff3fe608060405234801561000f575f5ffd5b506004361061003f575f3560e01c8063771602f714610043578063abcc11d814610073578063b67d77c514610091575b5f5ffd5b61005d6004803603810190610058919061016a565b6100c1565b60405161006a91906101b7565b60405180910390f35b61007b6100d6565b60405161008891906101b7565b60405180910390f35b6100ab60048036038101906100a6919061016a565b6100db565b6040516100b891906101b7565b60405180910390f35b5f81836100ce91906101fd565b905092915050565b5f5481565b5f8183101561011f576040517f08c379a00000000000000000000000000000000000000000000000000000000081526004016101169061028a565b60405180910390fd5b818361012b91906102a8565b905092915050565b5f5ffd5b5f819050919050565b61014981610137565b8114610153575f5ffd5b50565b5f8135905061016481610140565b92915050565b5f5f604083850312156101805761017f610133565b5b5f61018d85828601610156565b925050602061019e85828601610156565b9150509250929050565b6101b181610137565b82525050565b5f6020820190506101ca5f8301846101a8565b92915050565b7f4e487b71000000000000000000000000000000000000000000000000000000005f52601160045260245ffd5b5f61020782610137565b915061021283610137565b925082820190508082111561022a576102296101d0565b5b92915050565b5f82825260208201905092915050565b7f556e646572666c6f77206e6f7420616c6c6f77656400000000000000000000005f82015250565b5f610274601583610230565b915061027f82610240565b602082019050919050565b5f6020820190508181035f8301526102a181610268565b9050919050565b5f6102b282610137565b91506102bd83610137565b92508282039050818111156102d5576102d46101d0565b5b9291505056fea264697066735822122020faec8691de076e92ce6d67abc3ef2d29bf76717b56d847c566236122cf2dc864736f6c634300081e0033","linkReferences":{}},"methodIdentifiers":{"add(uint256,uint256)":"771602f7","lastResult()":"abcc11d8","sub(uint256,uint256)":"b67d77c5"},"id":20}