{"abi":[{"type":"function","name":"add","inputs":[{"name":"a","type":"uint256","internalType":"uint256"},{"name":"b","type":"uint256","internalType":"uint256"}],"outputs":[{"name":"","type":"uint256","internalType":"uint256"}],"stateMutability":"nonpayable"},{"type":"function","name":"lastResult","inputs":[],"outputs":[{"name":"","type":"uint256","internalType":"uint256"}],"stateMutability":"view"},{"type":"function","name":"sub","inputs":[{"name":"a","type":"uint256","internalType":"uint256"},{"name":"b","type":"uint256","internalType":"uint256"}],"outputs":[{"name":"","type":"uint256","internalType":"uint256"}],"stateMutability":"nonpayable"}],"bytecode":{"object":"0x6080604052348015600e575f5ffd5b506102e58061001c5f395ff3fe608060405234801561000f575f5ffd5b506004361061003f575f3560e01c8063771602f714610043578063abcc11d814610073578063b67d77c514610091575b5f5ffd5b61005d60048036038101906100589190610171565b6100c1565b60405161006a91906101be565b60405180910390f35b61007b6100e1565b60405161008891906101be565b60405180910390f35b6100ab60048036038101906100a69190610171565b6100e6565b6040516100b891906101be565b60405180910390f35b5f5f82846100cf9190610204565b9050805f819055508091505092915050565b5f5481565b5f8183101561012a576040517f08c379a000000000000000000000000000000000000000000000000000000000815260040161012190610291565b60405180910390fd5b5f82840390508091505092915050565b5f5ffd5b5f819050919050565b6101508161013e565b811461015a575f5ffd5b50565b5f8135905061016b81610147565b92915050565b5f5f604083850312156101875761018661013a565b5b5f6101948582860161015d565b92505060206101a58582860161015d565b9150509250929050565b6101b88161013e565b82525050565b5f6020820190506101d15f8301846101af565b92915050565b7f4e487b71000000000000000000000000000000000000000000000000000000005f52601160045260245ffd5b5f61020e8261013e565b91506102198361013e565b9250828201905080821115610231576102306101d7565b5b92915050565b5f82825260208201905092915050565b7f556e646572666c6f77206e6f7420616c6c6f77656400000000000000000000005f82015250565b5f61027b601583610237565b915061028682610247565b602082019050919050565b5f6020820190508181035f8301526102a88161026f565b905091905056fea2646970667358221220bbdb5b91a8cc195635f831ffd53ddbe87b6446580749f9a5f96447abddf1258264736f6c634300081e0033","linkReferences":{}},"methodIdentifiers":{"add(uint256,uint256)":"771602f7","lastResult()":"abcc11d8","sub(uint256,uint256)":"b67d77c5"},"id":19}